:020000040800F2
:1000000098BF0420AD020008B17D00088F3F0008B2
:10001000157D0008030F0008859600080000000009
:100020000000000000000000000000001D8C00081F
:100030002313000800000000CD840008D58E0008BE
:10004000C7020008C7020008C7020008C70200086C
:10005000C7020008C7020008C7020008C70200085C
:10006000C7020008C7020008C7020008C70200084C
:10007000C7020008C7020008C7020008C70200083C
:10008000C7020008C7020008C7020008C70200082C
:10009000C7020008C7020008C7020008C70200081C
:1000A000C7020008C7020008C7020008C70200080C
:1000B000C7020008C7020008C7020008C7020008FC
:1000C000C7020008C7020008C7020008C7020008EC
:1000D000C7020008E5950008C7020008C70200082B
:1000E000C7020008C7020008C7020008C7020008CC
:1000F000C7020008C7020008C7020008C7020008BC
:10010000C7020008C7020008C7020008C7020008AB
:10011000C7020008C7020008C7020008C70200089B
:10012000C702000831110008C7020008C702000812
:10013000C7020008C7020008C7020008C70200087B
:10014000C7020008C7020008C7020008C70200086B
:10015000C7020008C7020008C7020008C70200085B
:10016000C7020008C7020008C7020008C70200084B
:10017000C7020008C7020008911000080000000034
:10018000C7020008C7020008C7020008C70200082B
:10019000C7020008C7020008C7020008C70200081B
:1001A000C7020008C7020008C7020008C70200080B
:1001B000C7020008C7020008C7020008C7020008FB
:1001C000C7020008C702000800000000C7020008BC
:1001D000C7020008C7020008C7020008C7020008DB
:1001E000C7020008C7020008C7020008C7020008CB
:1001F000C7020008C702000800F002F800F047F844
:100200000AA090E8000C82448344AAF10107DA4571
:1002100001D100F03CF8AFF2090EBAE80F0013F07C
:10022000010F18BFFB1A43F001031847D8930100D0
:10023000F8930100103A24BF78C878C1FAD8520761
:1002400024BF30C830C144BF04680C607047000050
:100250000023002400250026103A28BF78C1FBD8CF
:10026000520728BF30C148BF0B607047642900F0B7
:100270002381782900F08381732900F0BB85002059
:1002800070471FB513F0CEF81FBD10B510BD00F0BC
:100290000DFE1146FFF7F5FF0BF06EFD00F02BFE93
:1002A00003B4FFF7F2FF03BC09F027FB09488047BE
:1002B00009480047FEE7FEE7FEE7FEE7FEE7FEE748
:1002C000FEE7FEE7FEE7FEE704480549054A064B60
:1002D00070470000DD8E0008F901000898AD042089
:1002E00098BF042098AF042098AF0420704753EAC9
:1002F000020C00F069802DE9F04B4FF00006002B56
:100300001FBFB3FA83F503FA05F424FA05F65E403D
:1003100012BF1643B2FA82F502FA05F4C5F12005C0
:100320001EBF22FA05FC44EA0C04203556EA044CB0
:100330004FEA144418BF641C4FF000084FF0000946
:10034000904271EB030C39D3002919BFB1FA81F740
:1003500001FA07F6B0FA80F700FA07F6C7F12007AE
:100360001EBF20FA07FC46EA0C062037B6FBF4FC59
:10037000A7EB0507103F07F01F0BCBF120060CFA87
:100380000BFB2CFA06F644BFB3460026202FA4BF71
:100390005E464FF0000B5BEA060C08BF4FF0010B06
:1003A00019EB0B09ABFB027C48EB0608C01B06FBF4
:1003B00002CC0BFB03CC71EB0C01C1E70B460246F0
:1003C00041464846BDE8F08B13B54FF000004FF0B2
:1003D0000001AFF30080BDE81C407047B2F120037C
:1003E0000AD5C2F1200320FA02F001FA03F341FA20
:1003F00002F140EA0300704741FA03F04FEAE1716D
:10040000704710B54C1084EA530404D54042C1F142
:10041000000138BF491E1B4204D55242C3F10003FC
:1004200038BF5B1EFFF763FF14F0804F04D04042DB
:10043000C1F1000138BF491E14F0004F04D05242F0
:10044000C3F1000338BF5B1E10BD00000FB40449A8
:1004500010B503AA029800F0D1FC10BC5DF814FBA3
:100460002000022070B50C460546012A05D02878E8
:10047000800600D5EA69002302E0012305E05B1C49
:10048000934202D2E05C0028F9D1A869E618C01AAC
:10049000A861286A184428622846AFF3008004E067
:1004A000D5E9012114F8010B9047B442F8D328464E
:1004B000AFF3008070BD00002DE9F0410646002436
:1004C00010687529314616A510D0AFF300800028BA
:1004D00002DA404213A507E031688A0701D512A568
:1004E00002E0490704D511A5012401E0AFF3008023
:1004F00000210A2206F1240709E0B0FBF2FCB0FB60
:10050000F2F302FB1C00303078541846491C0028D6
:10051000F3D123462A463046BDE8F04100F0E6BB61
:10052000000000002D0000002B0000002000000053
:10053000F0B40D460188090502D51B4C7C4402E04D
:10054000194C7C440E34002100F1240305E002F034
:100550000F061209A65D5E54491C002AF7D10278E5
:100560000023120704D5702D06D009B102231134DF
:100570002246F0BC00F0BABB01231034F8E770B596
:1005800004460D4621461068AFF300800246294616
:100590002046BDE87040CBE70368126843F02003B3
:1005A00003600823C361C3E78B9001002DE9F05F6E
:1005B000894604464FF0000ADFF874B1FB44C0F8E6
:1005C00020A02046E1688847002874D0252806D05E
:1005D000D4E901219047206A401C2062F1E70026FF
:1005E0005F462046E16888472028054607DB312D15
:1005F00005D2781910F8200C08B10643F1E7B007CE
:1006000001D526F00406C4F81CA00027C4F818A0E1
:100610002A2D09D0284609F069F938B304EB870878
:10062000303DC8F8185019E059F8041B204604EB77
:1006300087029161E1688847012F054618D1E0697A
:10064000002820DA26F020061DE0D8F8180000EB7C
:10065000800005EB40003038C8F818002046E168FB
:100660008847054609F042F90028EED1012F0AD04B
:100670002E2D08D12046E16888477F1C0546022FB1
:1006800046F02006C4DBA069002803DA404246F0A9
:100690000106A061F00701D026F010066C2D0BD0EA
:1006A000682D09D04C2D39D06A2D35D0742D35D018
:1006B0007A2D33D016E038E0E1682F46204688478F
:1006C000B842054609D16C2F26D04FF48060E1680E
:1006D000064320468847054604E06C2F1AD04FF4A5
:1006E000807006430DB3A5F14100192802D82035CA
:1006F00046F400664A462946204626604E46FFF7E5
:10070000B5FD80B101280BD0F61D26F0070000F1E1
:10071000080956E74020E4E78020D8E70020D6E724
:1007200006F104094DE7284652E7206ABDE8F09F2C
:10073000339001002DE9F04F9B4616464FF001091A
:10074000C1B020910090A9F1010920A85DF82950BD
:1007500050F82900C5E04FEA6A0070432C185FEAA0
:10076000CA7100D1801B5A46214627182846904757
:1007700000280EDD304646EA0501890765D022785B
:100780002978401E05F8012B04F8011BF7D1AD1B99
:10079000A41B5A46394620469047002823DD5A4676
:1007A00039462846904700280EDD304646EA0501C6
:1007B000890751D03A782978401E05F8012B07F8AF
:1007C000011BF7D1AD1BBF1B304646EA0401890768
:1007D00049D03A782178401E04F8012B07F8011B14
:1007E000F7D1A41BBF1B314646EA0402B81B92078F
:1007F00040D003782278491E04F8013B00F8012B11
:10080000F7D12C46871BB84634445A464146204609
:1008100090470028F8DB5A464146BF1B38469047B0
:100820000028F8DC304646EA0401A7424FEA81710D
:100830002ED931B33A782178401E04F8012B07F8FD
:10084000011BF7D1A41BBF1BDEE722682968001F2C
:1008500004C502C4F9D19AE73A682968001F04C5A3
:1008600002C7F9D1AEE73A682168001F04C402C785
:10087000F9D1B6E703682268091F08C404C0F9D19A
:10088000BFE73A682168001F04C402C7F9D1D9E75D
:10089000E1B198F800202178401E04F8012B08F8F7
:1008A000011BF6D1A21B501BB0FBF6F0401EAAEBB9
:1008B0000001491E884216DD0A2910DD20AB4DF8E3
:1008C000295043F8290009F1010918E0D8F800205F
:1008D0002168001F04C448F8041BF7D1E2E70A2886
:1008E00010DD824637E70A2807DD4DF8292020AAC7
:1008F00042F8291009F10109F3E70A2902DD15463A
:100900008A4628E7B9F1000F7FF41DAF41B0BDE87A
:10091000F08F2DE9F04799460F460646140039D06E
:10092000002F37D00A2F01D9FFF704FF7F1E35466D
:1009300007FB04582CE02F46254400E03F1BB7423C
:1009400005D34A462946384690470028F6DC44EA53
:1009500005003B1980070CD0002117E029180A1B5D
:100960000F6802E011681151121B9A42FAD2001D61
:100970001751A0420CD2F1E76818027801E007781D
:100980000755001B9842FAD2491C0255A142F3D3E5
:100990004545D0D3BDE8F08740EA010310B59B0779
:1009A0000FD1042A0DD310C808C9121F9C42F8D0D9
:1009B00020BA19BA884201D9012010BD4FF0FF308A
:1009C00010BD1AB1D30703D0521C07E0002010BDA0
:1009D00010F8013B11F8014B1B1B07D110F8013B2C
:1009E00011F8014B1B1B01D1921EF1D1184610BD0D
:1009F00040EA0103024630B59B0710D14FF00134A5
:100A000000E008C208C91D1B9D4315EAC41FF8D0A9
:100A100013F0FF0102F8011B0DD01B0AF8E711F8D3
:100A2000013B002B02F8013B05D011F8013B002BE4
:100A300002F8013BF3D130BD10B5431C02E010F8C1
:100A4000011B71B18107FAD14FF0013202C88C1A33
:100A50008C4314EAC211F9D0C01A0A0603D0C01E92
:100A600010BDC01A10BD0A0401D0801E10BD0902BD
:100A7000FCD0401E10BD032A40F2308010F0030C61
:100A800000F0158011F8013BBCF1020F624498BFE1
:100A900011F801CB00F8013B38BF11F8013BA2F17E
:100AA000040298BF00F801CB38BF00F8013B11F0F9
:100AB000030300F06780083AC0F0088051F8043B57
:100AC000083A51F804CBA0E80810F5E7121D5CBF06
:100AD00051F8043B40F8043BAFF30080D20724BF39
:100AE00011F8013B11F801CB48BF11F8012B24BFCD
:100AF00000F8013B00F801CB48BF00F8012B70471C
:100B0000431A28BF9A427FF6B6AF032A1044114415
:100B100040F2268010F0030F1EBF11F8013D521E57
:100B200000F8013D10F0030F7FF4F6AF11F003035E
:100B300000F08981083AC0F00B8051F8043D083A72
:100B400051F804CD40F8043D40F804CDFFF7F3BF61
:100B5000121D5CBF51F8043D40F8043DAFF3008026
:100B6000D20724BF11F8013D11F801CD48BF11F89B
:100B7000012C24BF00F8013D00F801CD48BF00F86A
:100B8000012C704710B5203AC0F00B80B1E8185026
:100B9000203AA0E81850B1E81850A0E81850BFF467
:100BA000F5AF5FEA027C24BFB1E81850A0E8185006
:100BB00044BF18C918C0BDE810405FEA827C24BF5A
:100BC00051F8043B40F8043B08BF7047D20728BFE8
:100BD00031F8023B48BF11F8012B28BF20F8023B37
:100BE00048BF00F8012B70474FF000020429C0F005
:100BF000128010F0030C00F01B80CCF1040CBCF14F
:100C0000020F18BF00F8012BA8BF20F8022BA1EBA0
:100C10000C0100F00DB85FEAC17C24BF00F8012B85
:100C200000F8012B48BF00F8012B70474FF000027D
:100C300000B5134694469646203922BFA0E80C50D2
:100C4000A0E80C50B1F12001BFF4F7AF090728BFAD
:100C5000A0E80C5048BF0CC05DF804EB890028BF29
:100C600040F8042B08BF704748BF20F8022B11F052
:100C7000804F18BF00F8012B704700004FF0013C77
:100C800050F8042B51F8043B9A4215D1A2EB0C0307
:100C9000934313EACC130BD150F8042B51F8043BC7
:100CA0009A4209D1A2EB0C03934313EACC13E7D089
:100CB0004FF00000704700BFD01A01BAB1FA81F1BD
:100CC00001F0180122FA01F0CB40C1F12001DBB2A2
:100CD000C0B2C01A2CFA01F3D11A914311EAC31120
:100CE000E6D1704770477047704770472DE9F0476D
:100CF0000D4699469246044600F12408016888068C
:100D000004D5E06921F01001216000E00120A84233
:100D100001DD471B00E00027A1697A1902EB0900F9
:100D2000081AA0612078C00602D42046AFF30080E4
:100D3000002608E0D4E901211AF806009047206A4D
:100D4000401C761C20624E45F4DB2078C0060AD594
:100D50002046AFF3008006E0D4E90121302090471F
:100D6000206A401C2062381EA7F10107F4DC07E06E
:100D7000D4E9012118F805009047206A401C206240
:100D8000281EA5F10105F3DC2046AFF30080207892
:100D9000000602D50220BDE8F0870120FBE7000035
:100DA00001694A1C02610878704700B58FB0CDE92F
:100DB00001310021059105497944CDE9031011461F
:100DC0006846FFF7F3FB0FB000BD0000E5FFFFFF33
:100DD00010B5436913B1AFF3008001E0FFF742FBA8
:100DE000012010BD127800F124010A7000224A701F
:100DF0000122EDE711684FF0FF32E9E7074B70B5CC
:100E00000D467B44FFF7D1FF0446284600F04AF820
:100E100010B14FF0FF3070BD204670BDE3A600005A
:100E2000431A28BF9A427FF6ADAE104410F0030F6C
:100E300011441EBF11F8013D521E00F8013D10F093
:100E4000030F7FF4F6AF103AC0F00A8010B531E915
:100E50001850103A20E91850BFF4F9AFBDE810401F
:100E6000530724BF31E9081020E9081044BF51F8A6
:100E7000043D40F8043D12F0030F08BF7047D2074D
:100E800028BF31F8023D48BF11F8012C28BF20F8D7
:100E9000023D48BF00F8012C704700000048704731
:100EA00038AD0420007B00F0800070477546FFF7E6
:100EB000F5FFAE4605006946534620F0070085461B
:100EC00018B020B5FFF700FABDE820404FF000064B
:100ED0004FF000074FF000084FF0000B21F0070122
:100EE000AC46ACE8C009ACE8C009ACE8C009ACE865
:100EF000C0098D4670470446AFF300802046FFF7D7
:100F0000CFF900BFFEE7000010B500BF00BF00BF73
:100F100000BF00BFBFF34F8F00BF00BF00BF00BFC7
:100F200000BF00BFBFF36F8F00BF00BF00BF002036
:100F3000114908601148006840F400300F4908600A
:100F400000BF00BF00BFBFF34F8F00BF00BF00BF97
:100F500000BF00BF00BFBFF36F8F00BF00BF00BF67
:100F600000BF07F081FC04484C30006840F00400EA
:100F700001494C31086010BD50EF00E014ED00E075
:100F800070B50546AC6BA06C406D022806D0012000
:100F900084F83500E06C40F04000E064204600F04A
:100FA00085FB70BD2DE9F84306460C4615461F46E5
:100FB000DDF8208000BF3148006840F480002F49F0
:100FC00008600846006800F48000009000BF00BF81
:100FD00000BF2B482B49886408462949886300BF15
:100FE00008460068006820F010000968086026487C
:100FF000234908604FF0007048600021204881605C
:10100000C160C0F810804FF48051416187610911BF
:10101000C161490201620421416201218162002112
:10102000C162016300F007FD154800F035FD00BF07
:101030000020134981F8340000BF34B92B463246F2
:1010400012490F4800F09CFD16E0234632460F4936
:101050000B48009500F09DFC09480068006840F0CE
:10106000100007490968086003220221392001F0B5
:101070001FF9392001F00FF9BDE8F883303802403C
:10108000FC030220AC030220286402402800055023
:1010900010B5024800F030FB10BD0000AC03022088
:1010A00010B51448144908600020486020211248F7
:1010B00081600021C16001614161816100F076FBC6
:1010C0000D480068C06820F01E000B490968C86020
:1010D00009480068C06840F0010007490968C86015
:1010E00005480068006840F48040034909680860CA
:1010F00010BD000000000550AC03022010B5002117
:10110000084605F04DFF06F0D1F807480068006872
:1011100040F001000449096808600448006840F094
:1011200001000249086010BDFC03022000000550C8
:1011300010B5294800682949884205D927485438FC
:10114000006800F400601BE02348006824498842DE
:1011500005D922485838006800F4006010E01E48A5
:1011600000681F496039884205D91D48B838406871
:1011700000F4006004E01A48B838006800F4006029
:1011800040B3154800681549884204D9C81413496A
:101190004C39086019E0104800681149884204D9A8
:1011A000C8140E49503908600FE00B4800680C491C
:1011B0006039884204D9C8140949B839C86004E0C4
:1011C0004FF400600649B8398860064800688047D7
:1011D00007F00CFB10BD0000FC0302205864024025
:1011E000B8600240400002200146087810381823F9
:1011F000B0FBF3F20848805CC865032A05D908688B
:101200006FF30900001D886503E008686FF30900AB
:101210008865886D7047000046340108014600204B
:101220008A6A8B6903BB32B1012A0CD0022A10D022
:10123000032A17D115E0CB6A03F08073B3F1807FE6
:1012400000D101200FE0CB6AB3F1C07F00D10120B3
:1012500009E0CB6A03F08073B3F1807F00D10120F5
:1012600001E000E000BF35E08B69B3F5005F1BD102
:1012700032B1012A06D0022A0CD0032A12D10BE087
:10128000012010E0CB6A03F08073B3F1807F00D1BE
:10129000012008E0012006E0CB6AB3F1C07F00D155
:1012A000012000E000BF15E032B1012A05D0022A7A
:1012B00004D0032A0CD103E000BF00BF012008E0E6
:1012C000CB6A03F08073B3F1807F00D1012000E08E
:1012D00000BF00BF704710B5046863608468402C8D
:1012E00004D10468A2600468E16003E00468A160BE
:1012F0000468E26010BD30B50468246824F48024DA
:1013000005682C60046863608468402C04D104681C
:10131000A2600468E16003E00468A1600468E26020
:1013200030BD704770B504461D460023B5F5804FAB
:1013300013D154F822300C480340D1E9000640EAAA
:1013400006108E6840EA06208E8940EA06408E69C3
:101350003043034344F8223003E06FF0704044F818
:101360002200002070BD00000000F0CF10B5024642
:101370000023086852F820301B480340D1E90104DB
:101380002043CC6820430C6920434C6920438C697E
:101390002043CC6920430C6A20434C6A20438C6A6A
:1013A0002043CC6A20430C6B20438C6B20434C6B56
:1013B000204303438868082801D143F040030868AC
:1013C00042F82030086BB0F5801F05D1086818B1CD
:1013D00010680C6B20431060086818B110684C6BE3
:1013E00020431060002010BD8004C0FF30B50346CC
:1013F00014460022601C53F8202002F04042D1E93C
:10140000000540EA05108D6840EA05208D8940EA14
:101410000545088A401E45EA0055087D801E45EABC
:1014200000608D6928430243601C43F8202018683F
:1014300000F4801038B1586820F47002088A401E09
:1014400042EA00525A60002030BD30B50246002307
:1014500000240868012816D013686FF30E03D1E941
:1014600001052843CD6828430D6928434D69284369
:101470008D692843CD6928430D6A28434D6A284366
:101480000343136019E0136823F4F843D1E9070517
:1014900028434D6A2843034354686FF30E04D1E98F
:1014A00001052843CD6828430D6928434D69284329
:1014B0008D692843044313605460002030BD024608
:1014C000506940EA4100506100207047F8B5064677
:1014D0000C461546002000900027D4E9000108437F
:1014E000A168491E40EA4110E16840EA41200090AD
:1014F0000098306100F096FC074609E0681C38B19E
:1015000025B100F08FFCC01BA84201D90320F8BD13
:10151000B06900F020000028F0D100BFF7E700001C
:1015200070B50346154600220024012D1FD09A688D
:1015300002F070420868401E4E68761E40EA0616A9
:101540008868401E46EA0026C868401E46EA003603
:10155000088A401E46EA0046888A401E46EA00562F
:10156000087E401E46EA006002439A6022E09A68C4
:1015700011480240C868401E0603888A401E46EA99
:1015800000500243DC6804F070440868401E4E6856
:10159000761E40EA06168868401E46EA0026088A3B
:1015A000401E46EA0046087E401E46EA00600443AC
:1015B0009A60DC60002070BDFF0F0FFF2DE9F05F27
:1015C0008246884614462046E21704EB5272D21037
:1015D0002146E31704EB5373DB10A4EBC3030BB1F9
:1015E000012300E000231A44624302F0FF099AF845
:1015F00000600AF1010082460578812E05DB402D4E
:1016000003DBFF2D01D0FF2E0DD14FF0000B06E0C4
:10161000002008F8010B0BF1010000F0FF0BCB4597
:10162000F6DBBDE8F09F7F2D03DAA5F14000C5B2DF
:1016300002E0A5F14100C5B2A6F18100C6B2BE200C
:1016400010FB065000FB09F70C2C06D0102C0DD017
:10165000182C14D0202C24D11AE01348D0F80900FB
:10166000C1194A46404608F06DF81AE00E48D0F815
:101670001100C1194A46404608F064F811E00A48D2
:10168000D0F81900C1194A46404608F05BF808E056
:101690000548D0F82100C1194A46404608F052F8E2
:1016A00000BF00BF00BFBCE760AC04207047000073
:1016B00010B5044601200B49087000200A49088033
:1016C00001210A4800F0A4FB09480078401C0849A1
:1016D000087008480068C06840F0010005490968C2
:1016E000C86010BD02000220100002200004024069
:1016F0003C000220AC03022070B504462068056956
:1017000005F0040004280ED121684861E06C40F027
:101710000200E064042084F835002348A16C0865C9
:10172000A06C00F074F905F0020002280ED12168C7
:101730004861E06C40F00100E064042084F835006A
:101740001948A16C0865A06C00F061F905F0100063
:10175000102804D121684861204600F085F805F082
:101760000800082804D121684861204600F010F9DB
:1017700005F00100B8B12068006800F002000228FE
:1017800005D12068C06820F01E002168C86020686C
:10179000C06820F001002168C8600120216848610C
:1017A0002046FFF785FF70BD810F000810B5044685
:1017B0000CB9012010BD94F8350010B9204600F096
:1017C00055F8022084F83500206800682549084053
:1017D00021680860616960680843E168084321691D
:1017E0000843A1680843A1690843216A0843616A64
:1017F0000843A16A0843E16A0843216B0843216852
:101800000968084321680860606810281DD1217F9D
:10181000607F4FF47F4292FAA2F2B2FA82F29040D5
:101820000843A17F4FF47F0292FAA2F2B2FA82F249
:1018300091400843E17F4FF07F4292FAA2F2B2FA60
:1018400082F291400843216888612068C06840F0B6
:101850001E002168C8600020E064012084F8350083
:101860000020A7E707F0E0FF7047000010B586B042
:10187000044600BF4048006840F001003E4908604F
:101880000846006800F00100009000BF00BF00BFE4
:10189000081F006840F00100091F08600846006842
:1018A00000F00100009000BF00BF00BF08460068C4
:1018B00040F0020008600846006800F00200009056
:1018C00000BF00BF00BF0846006840F00400086089
:1018D0000846006800F00400009000BF00BF00BF91
:1018E0000846006840F0080008600846006800F0FC
:1018F0000800009000BF00BF00BF0846006840F02D
:10190000800008600846006800F08000009000BF7A
:1019100000BF40200190022002900120039003208C
:1019200004900D20059001A9144800F05DF94FF4D2
:101930006070019001A9124800F056F94FF43C6024
:10194000019001A90F4800F04FF90820019001A96A
:101950000D4800F049F94FF48070019001A90B483F
:1019600000F042F9022211464E2000F0A1FC4E2068
:1019700000F091FC06B010BD343802400000024077
:101980000004024000080240000C0240001C02401B
:1019900070472DE9F04704460E4617461D46DDF810
:1019A00020804FF00009A068802804D140006065C5
:1019B0004FF0010929E000BF94F83400012802D15A
:1019C0000220BDE8F087012084F8340000BF94F8BD
:1019D0003500012817D1022084F8350020680068FE
:1019E00040F48020216808602068056143463A463B
:1019F00031462046FFF76FFC2068006840F0010088
:101A00002168086001E04FF002094846D9E7014625
:101A100091F83500022803D08020486501207047E6
:101A2000052081F835000868006820F001000A6888
:101A300010600020F3E770B504460CB9012070BDBA
:101A400094F83500022800D1F9E72068006820F0FA
:101A50000100216808600020216808602168486052
:101A6000216888602168C860216808612120216898
:101A700048612046FFF7B8FB054694F85C103F200C
:101A80008840A8600020606584F8350000BF84F8B5
:101A9000340000BF00BFD2E72DE9F0410446002525
:101AA00000F0C0F9074614B90120BDE8F081606A72
:101AB00000B100BF00BF002084F8340000BF022046
:101AC00084F835002068006820F001002168086073
:101AD0000AE000F0A7F9C01B052805D920206065A1
:101AE000032084F83500E0E72068006800F001007A
:101AF0000028EED12068056820480540D4E901019E
:101B00000843E16808432169084361690843A16902
:101B10000843E1690843216A08430543606A0428D1
:101B200003D1D4E90B010843054320680560206810
:101B3000456925F00705606A0543606A04280BD1F2
:101B4000A06A05432046FFF769FB28B14020606585
:101B5000012084F83500A8E7206845612046FFF79A
:101B600043FB064694F85C103F208840B06000209C
:101B70006065012084F83500002096E73F8010E082
:101B80002DE9F04104460D4616461F464FF0000869
:101B900000BF94F83400012802D10220BDE8F08192
:101BA000012084F8340000BF94F83500012811D1D9
:101BB000022084F83500002060653B463246294605
:101BC0002046FFF798FB2068006840F0010021687C
:101BD000086006E000BF002084F8340000BF4FF02A
:101BE00002084046DAE70000F8B502460B4600213D
:101BF00000250024002000BFE4E0012606FA01F5DC
:101C00001E6806EA0504AC4271D15E68022E02D05D
:101C10005E68122E13D1CF0802F1200656F8270075
:101C20004E07F70E0F26BE40B0434F07FF0E1E694A
:101C3000BE403043CF0802F1200646F82700106866
:101C40004F000326BE40B0431E7906F003064F0046
:101C5000BE40304310605E68012E08D05E68022EE0
:101C600005D05E68112E02D05E68122E13D19068E6
:101C70004F000326BE40B0434F00DE68BE403043F5
:101C80009060506801268E40B0431E79C6F300165E
:101C90008E4030435060D0684F000326BE40B043B2
:101CA0004F009E68BE403043D0605E6806F08056AC
:101CB000B6F1805FA8D100BF444E366846F4804636
:101CC000424F3E603E46366806F48046009600BFAE
:101CD00000BF3F4E8F0856F827008E07370F0F269C
:101CE000BE40B0433B4EB24202D100262EE068E037
:101CF000394EB24201D1012628E0384EB24201D11C
:101D0000022623E0364EB24201D103261EE0354EB4
:101D1000B24201D1042619E0334EB24201D1052668
:101D200014E0324EB24201D106260FE0304EB242EC
:101D300001D107260AE02F4EB24201D1082605E064
:101D40002D4EB24201D1092600E00A268F073F0F2F
:101D5000BE4030431E4E8F0846F82700274E30689D
:101D6000A0435E6806F48036B6F5803F00D120437C
:101D7000224E3060361D3068A0435E6806F400369F
:101D8000B6F5003F00D120431C4E361D3060361D95
:101D90003068A0435E6806F48016B6F5801F00D157
:101DA0002043164E08363060361D3068A0435E680A
:101DB00006F40016B6F5001F00D120430F4E0C3676
:101DC0003060491C1029FFF418AFF8BD44380240B8
:101DD00008380140000002400004024000080240B0
:101DE000000C0240001002400014024000180240A3
:101DF000001C02400020024000240240003C014040
:101E0000024613690B400BB1012000E0002070472F
:101E100042694A40426170470AB1816101E00B04A6
:101E20008361704701480068704700001800022075
:101E300002480068401C01490860704718000220F1
:101E400010B50848006840F4007006490860052095
:101E500000F06CFA0F2000F007F800F01BFA0020E9
:101E600010BD0000003C024070B504460748006801
:101E70004FF47A71B0FBF1F5284601F0A7FE00227D
:101E80002146501E00F014FA002070BD14000220FC
:101E900070B504460E46154600BF94F8A000012810
:101EA00001D1022070BD012084F8A00000BF0220F3
:101EB00084F8A10005EB850101EBC50204F13801AE
:101EC00001EB820034223146FEF75CFE2A463146A1
:101ED000204605F0B3FD01202168486284F8A10086
:101EE00000BF002084F8A00000BF00BFDAE70000B8
:101EF00070B50446002500260CB9012070BD94F889
:101F0000A10028B9002084F8A000204600F084F841
:101F1000022084F8A1002068806920F070402168C8
:101F20008861D4E901010843E16808432169084355
:101F3000216889690843216888612068806835497B
:101F4000084021688860A08A050420688068A1692B
:101F500029430843216888602068C0682D490840EB
:101F60002168C860A08B05042068C068216A2943E5
:101F700008432168C8602068006926490840216834
:101F80000861A08C050420680069A16A2943084300
:101F900021680861206840691E490840216848613D
:101FA000A08D050420684069216B294308432168FE
:101FB000486194F83500050294F83600060420685C
:101FC000C06A00F07F402168C86246EA050094F8C4
:101FD000341008432168C96A08432168C862206830
:101FE000406B40F00400216848632068406B40F07B
:101FF0000200216848632068806940F00100216880
:1020000088610020C4F8A400012084F8A100002009
:1020100074E7000000F800F010B586B0044600BF79
:102020004748006840F080604549086008460068FD
:1020300000F08060009000BF00BF00BF404814382F
:10204000006840F400003E49143908600846006802
:1020500000F40000009000BF00BF00BF0846006809
:1020600040F0020008600846006800F0020000909E
:1020700000BF00BF00BF0846006840F020000860B5
:102080000846006800F02000009000BF00BF00BFBD
:102090000846006840F0400008600846006800F00C
:1020A0004000009000BF00BF00BF0846006840F03D
:1020B000800008600846006800F08000009000BFC3
:1020C00000BF00BF0846006840F480700860084602
:1020D000006800F48070009000BF00BF20200190D5
:1020E0000120029003900320049001A91548FFF7F6
:1020F0007BFD4FF48060019002200290002003904D
:10210000032004900E20059001A90F48FFF76CFDF5
:102110004FF40C60019001A90C48FFF765FD4FF4E6
:102120007E40019001A90A48FFF75EFD40F2F7608A
:10213000019001A90748FFF757FD06B010BD000048
:1021400044380240000402400014024000180240DB
:10215000001C0240002002402DE9F04104460E46DA
:102160001746984600BF94F8A000012802D102202B
:10217000BDE8F081012084F8A00000BF022084F8AF
:10218000A10008EB880000EBC80104F1380000EB67
:1021900081052E60A86A30446860AF60E86A384400
:1021A000E86042462946204605F048FC01202168A7
:1021B000486284F8A10000BF002084F8A00000BF9E
:1021C00000BFD5E72DE9F04105460E461746984673
:1021D00000BF95F8A000012802D10220BDE8F081DF
:1021E000012085F8A00000BF022085F8A10008EBBF
:1021F000880000EBC80105F1380000EB81040020E5
:1022000020602068304460600020A060A0683844EE
:10221000E060A662E76242462146284605F00EFCD1
:1022200001202968486285F8A10000BF002085F8D8
:10223000A00000BF00BFD1E74178154A11600178C6
:10224000F9B1121D41681160017B0907C27A41EAA8
:102250000261827A41EAC241427B41EA8241827B49
:1022600041EA4241C27B41EA0241427A41EA02210B
:10227000027A41EA420102781143054A08321160AC
:1022800005E00021024A121D1160121D1160704705
:1022900098ED00E0704700BF00F01F02012191405F
:1022A0004209920002F1E022C2F8001100BF70471B
:1022B0002DE9F05F80460D461646002705F07AFDB1
:1022C000074639462A46334601F00700C0F1070A9F
:1022D000BAF1040F02D94FF0040A01E0C0F1070A75
:1022E000D14600F1040ABAF1070F02D24FF0000AFA
:1022F00001E0A0F1030AD4464FF0010A0AFA09FAF4
:10230000AAF1010A0AEA020A0AFA0CFA4FF0010BD2
:102310000BFA0CFBABF1010B0BEA030B4AEA0B04C3
:102320002146404605F04EFDBDE8F09F00BF00F09D
:102330000702064B19684FF6FF031940044B0B4385
:1023400043EA0221014B196000BF70470CED00E029
:102350000000FA0538B5002400BF2048006840F0AE
:1023600080501E4908600846006800F080500090C8
:1023700000BF00BF1A48006840F480301849086068
:10238000FFF750FD044607E0FFF74CFD001BB0F5DA
:102390007A7F01D9032038BD1148406800F48030AD
:1023A000B0F5803FF0D10E48006840F400300C4991
:1023B0000860FFF737FD044607E0FFF733FD001B19
:1023C000B0F57A7F01D90320E5E70548406800F4BD
:1023D0000030B0F5003FF0D10020DCE7403802408B
:1023E000007000402DE9F84304460D4616460127CB
:1023F000FFF718FD8046A86900B100BFE86900B189
:1024000000BF286A00B100BF00BF94F8380001285F
:1024100002D10220BDE8F883012084F8380000BF13
:1024200094F83900012828D10020E063022084F8C4
:1024300039004346002220212046009606F0B0F9DC
:102440000746DFB900222946204606F040F8686AB0
:1024500078B94346012202212046009606F0A0F9F1
:1024600007465FB902202168C860012084F839005E
:1024700004E0012084F8390000E0022700BF0020BA
:1024800084F8380000BF3846C4E70000F8B50446B9
:102490000125FFF7C7FC06460CB90120F8BD206AEC
:1024A000402800D000BF00BF94F83800012801D1B7
:1024B0000220F3E7012084F8380000BF94F83900C7
:1024C00050B9002084F83800204600F04BF841F263
:1024D0008831204600F015F92068006820F4F85192
:1024E000A068401E41EA002021680860206C334645
:1024F000002220210090204606F052F9054635BB07
:102500002179E06840EA0160E1690843216A0843F3
:1025100021680968114A1140084321680860208A2F
:10252000616941EA0040A1690843216849680C4A91
:1025300011400843216848602068006840F00100AD
:10254000216808600020E063012084F8390000BFA2
:10255000002084F8380000BF28469FE72FFFFF00C7
:10256000FEF8E0FF10B586B0044600BF29480068B9
:1025700040F00200274908600846006800F00200A9
:10258000009000BF00BF00BF22480838006840F03C
:1025900002002049083908600846006800F002007F
:1025A000009000BF00BF00BF0846006840F0200058
:1025B00008600846006800F02000009000BF00BFDF
:1025C00040200190022002900120039003200490FB
:1025D0000A20059001A91048FFF706FB4FF4407050
:1025E0000190002003900320049001A90B48FFF7FD
:1025F000FBFA042001900920059001A90648FFF785
:10260000F3FAC020019001A90448FFF7EDFA06B0E3
:1026100010BD00003838024000040240001402409F
:102620002DE9F84F04460E4617460025FFF7FAFB42
:1026300080462068D0F81890206800F1200A00BF7A
:1026400094F83800012802D10220BDE8F88F01205B
:1026500084F8380000BF94F83900012849D10020DF
:10266000E063002E3FD0222084F839002068006902
:10267000401C608620680069401C2086E662206855
:10268000406920F0406040F0806021684861206827
:10269000C0F8189012E04346012206212046009718
:1026A00006F07EF8054605B10BE09AF80010E26AE4
:1026B000501CE0621170608E401E6086608E0028A3
:1026C000E9DC00BF5DB943460122022120460097A4
:1026D00006F066F8054615B902202168C860012099
:1026E00084F8390006E0E06B40F00800E063012563
:1026F00000E0022500BF002084F8380000BF284613
:10270000A3E7016470472DE9F84304460E461746D7
:102710000025FFF787FB8046206800F1200900BFF5
:1027200094F83800012802D10220BDE8F883012086
:1027300084F8380000BF94F83900012844D1002003
:10274000E063002E3AD0122084F839002068006936
:10275000401C608520680069401C208566622068F6
:10276000406920F040602168486112E04346012240
:1027700004212046009706F013F8054605B10BE04A
:10278000616A481C6062087889F80000608D401E0C
:102790006085608D0028E9DC00BF5DB943460122F9
:1027A00002212046009705F0FBFF054615B90220DF
:1027B0002168C860012084F8390006E0E06B40F031
:1027C0000800E063012500E0022500BF002084F836
:1027D000380000BF2846A8E72DE9F8430446002644
:1027E00000250027A846A946207800F0010088B1FE
:1027F00000BFFE48006820F40000FC49086008465D
:102800000068616B0843F949086000BF606B08B954
:102810004FF00108206800F40020B0F5002F13D11C
:10282000F2488430006820F44010E16B0843EF491F
:1028300084310860E06BB0F5801F01D14FF00108D2
:10284000E06B08B94FF00109206800F48010B0F582
:10285000801F13D1E5488430006820F44000216CCB
:102860000843E24984310860206CB0F5800F01D143
:102870004FF00108206C08B94FF00109206800F002
:102880008070B0F1807F01D14FF00108207800F016
:102890002000202870D100BFD4483830006840F0B4
:1028A0008050D249383108600846006800F08050F6
:1028B000009000BF00BFCE48006840F48070CC4953
:1028C0000860FFF7AFFA064607E0FFF7ABFA801B98
:1028D000642802D90320BDE8F883C548006800F4E5
:1028E00080700028F1D0C1486830006800F440755D
:1028F00085B3208E00F44070A8422BD0BB486830CE
:10290000006820F44075B9486830006840F48030B1
:10291000B649683108600846006820F480300860D5
:1029200008460560006800F0010098B1FFF77AFAE8
:10293000064608E0FFF776FA801B41F288318842AC
:1029400001D90320C7E7A94868300068C0F34000F8
:102950000028EFD000BF208E00F44070B0F5407F1B
:102960000BD1A248006820F4F810A24A216B114054
:1029700008439E49086006E010E09C48006820F487
:10298000F8109A490860994868300068218EC1F3B0
:102990000B01084395496831086000BF207800F0BA
:1029A0001000102810D100BF90488430006820F03B
:1029B00080708E498431086008460068A16B084326
:1029C0008A498431086000BF208800F48040B0F557
:1029D000804F09D185488830006820F44030616E0E
:1029E0000843824988310860208800F40040B0F52F
:1029F000004F09D17D488830006820F44020A16E46
:102A000008437A4988310860206800F48030B0F5C6
:102A1000803F09D175488830006820F44010E16E8D
:102A20000843724988310860206800F40030B0F52E
:102A3000003F09D16D488830006820F44000216FC4
:102A400008436A4988310860207800F04000402837
:102A500009D166488830006820F00300616C0843A3
:102A6000624988310860207800F08000802809D110
:102A70005E488830006820F00C00A16C08435B4978
:102A800088310860208800F48070B0F5807F09D11B
:102A900056488830006820F03000E16C0843534904
:102AA00088310860208800F40070B0F5007F09D1FB
:102AB0004E488830006820F0C000216D08434B4923
:102AC00088310860208800F48060B0F5806F09D1FB
:102AD00046488830006820F44070616D08434349DF
:102AE00088310860208800F40060B0F5006F09D1DB
:102AF0003E488830006820F44060A16D08433B499F
:102B000088310860208800F48050B0F5805F09D1DA
:102B100036488830006820F44050E16D084333495E
:102B200088310860208800F40050B0F5005F09D1BA
:102B30002E488830006820F44040216E08432B491D
:102B400088310860206800F48000B0F5800F09D15A
:102B500026488830006820F08060A16F0843234930
:102B600088310860206800F40010B0F5001F0FD114
:102B70001E488830006820F00060E16F08431B4960
:102B800088310860E06FB0F1006F01D14FF00109AA
:102B9000207800F00800082801D14FF001092068D2
:102BA00000F48020B0F5802F09D1104888300068EB
:102BB00020F04070616F08430C498831086020683C
:102BC00000F40000B0F5000F0AD108488830006812
:102BD00020F08050D4F88010084304498831086000
:102BE000206800F08060B0F1806F05E00838024096
:102BF00000700040FFFCFF0F08D1FE48006820F085
:102C00000050D4F884100843FA490860206800F0A6
:102C10000060B0F1006F0AD1F648001F006820F094
:102C20000070D4F888100843F249091F0860206832
:102C300000F08050B0F1805F0AD1EE48001F0068BC
:102C400020F08060D4F88C100843EA49091F08601E
:102C5000B8F1010F03D02068B0F1007F7DD1E548C5
:102C60009038006820F08060E24990390860FFF7F2
:102C7000D9F8064606E0FFF7D5F8801B642801D98D
:102C8000032028E6DB4890380068C0F3C0600028C5
:102C9000F1D1207800F00100F0B3606BE0BBD548C3
:102CA0000C38006800F440304FF4403191FAA1F143
:102CB000B1FA81F120FA01F5CE480C38006800F035
:102CC00070604FF0706191FAA1F1B1FA81F120FAD0
:102CD00001F747F6C07191FAA1F1B1FA81F160688C
:102CE00088404FF4403191FAA1F1B1FA81F105FA2F
:102CF00001F108434FF0706191FAA1F1B1FA81F14D
:102D000007FA01F108434FF0E04292FAA2F2B2FA58
:102D100082F2A168914000E003E00843B5490C3914
:102D20000860206800F40020B0F5002F03D1E06BAC
:102D3000B0F5801F09D0206800F48010B0F5801F26
:102D400050D1206CB0F5800F4CD1AA480C380068E7
:102D500000F440304FF4403100E0CFE091FAA1F1AF
:102D6000B1FA81F120FA01F5A2480C38006800F0B0
:102D7000E0404FF0E04191FAA1F1B1FA81F120FA7F
:102D800001F747F6C07191FAA1F1B1FA81F16068DB
:102D900088404FF4403191FAA1F1B1FA81F105FA7E
:102DA00001F108434FF0706292FAA2F2B2FA82F295
:102DB000E168914008434FF0E04191FAA1F1B1FA86
:102DC00081F107FA01F108438A490C390860894802
:102DD000001F006820F01F00616A491E08438549F2
:102DE000091F0860206800F08070B0F1807F3FD13B
:102DF00080480C38006800F070604FF0706191FA04
:102E0000A1F1B1FA81F120FA01F57A480C38006895
:102E100000F0E0404FF0E04191FAA1F1B1FA81F108
:102E200020FA01F747F6C07191FAA1F1B1FA81F1E8
:102E3000606888404FF4403292FAA2F2B2FA82F20D
:102E40002169914008434FF0706191FAA1F1B1FA04
:102E500081F105FA01F108434FF0E04191FAA1F147
:102E6000B1FA81F107FA01F1084362490C390860AF
:102E7000206800F00070B0F1007F25D147F6C071E6
:102E800091FAA1F1B1FA81F1606888404FF44032C3
:102E900092FAA2F2B2FA82F22169914008434FF00D
:102EA000706292FAA2F2B2FA82F2E16891400843AB
:102EB0004FF0E04292FAA2F2B2FA82F2A168914097
:102EC00008434C490C3908604A489038006840F083
:102ED0008060484990390860FEF7A4FF064606E086
:102EE000FEF7A0FF801B642801D90320F3E44148CA
:102EF00090380068C0F3C0600028F1D0B9F1010F2C
:102F000069D13C489038006820F0805039499039A8
:102F10000860FEF787FF064606E0FEF783FF801B8A
:102F2000642801D90320D6E4324890380068C0F301
:102F300040700028F1D1206800F40020B0F5002F87
:102F400001D1E06B38B1206800F48010B0F5801F2B
:102F50004FD1206CF0BB27480838006800F440309F
:102F60004FF4403191FAA1F1B1FA81F120FA01F563
:102F700020480838006800F0E0404FF0E04191FA46
:102F8000A1F1B1FA81F120FA01F747F6C07191FA87
:102F9000A1F1B1FA81F1606988404FF4403191FAB2
:102FA000A1F1B1FA81F105FA01F108434FF0706225
:102FB00092FAA2F2B2FA82F2A169914008434FF06C
:102FC000E04191FAA1F1B1FA81F107FA01F1084368
:102FD000084901E00DE0BBE008390860081D006801
:102FE00020F4F851A06A401E41EA00200149091F5F
:102FF000086001E090380240206800F40010B0F54D
:10300000001F40D1E06FB0F1006F3CD15148006823
:1030100000F070604FF0706191FAA1F1B1FA81F1A6
:1030200020FA01F54B48006800F0E0404FF0E04125
:1030300091FAA1F1B1FA81F120FA01F747F6C071D6
:1030400091FAA1F1B1FA81F1606988404FF4403200
:1030500092FAA2F2B2FA82F2216A914008434FF04A
:10306000706191FAA1F1B1FA81F105FA01F1084319
:103070004FF0E04191FAA1F1B1FA81F107FA01F1C3
:10308000084334490860207800F00800082845D13A
:103090003048006800F070604FF0706191FAA1F163
:1030A000B1FA81F120FA01F52A48006800F44030B5
:1030B0004FF4403191FAA1F1B1FA81F120FA01F710
:1030C00047F6C07191FAA1F1B1FA81F160698840C7
:1030D0004FF4403191FAA1F1B1FA81F107FA01F10F
:1030E00008434FF0706191FAA1F1B1FA81F105FA4C
:1030F00001F108434FF0E04292FAA2F2B2FA82F2F2
:10310000E1699140084313490860081D006820F4F4
:103110004030E16A08430F49091D08600D488838AE
:10312000006840F080500B4988390860FEF77AFE4D
:10313000064606E0FEF776FE801B642801D90320D0
:103140009FE5044888380068C0F340700028F1D03B
:10315000002096E58838024070B504460D460026EA
:103160006648006800F00F00A8420ED2634800686D
:1031700020F00F002843614908600846006800F00D
:103180000F00A84201D0012070BD207800F002009D
:10319000022807D15A48006820F0F000A1680843CF
:1031A00057490860207800F00100002860D060686E
:1031B000012807D1524808380068C0F34040A0B940
:1031C0000120E1E76068022807D14D48083800680F
:1031D000C0F3406048B90120D6E749480838006884
:1031E000C0F3400008B90120CEE74548006820F050
:1031F00003006168084342490860FEF713FE064673
:103200006068012810D108E0FEF70CFE801B41F237
:103210008831884201D90320B6E73948006800F0B8
:103220000C000428F0D123E06068022810D108E0E7
:10323000FEF7F8FD801B41F28831884201D9032056
:10324000A2E72F48006800F00C000828F0D10FE03A
:1032500008E0FEF7E7FD801B41F28831884201D982
:10326000032091E72648006800F00C000028F0D108
:103270002248006800F00F00A8420ED91F480068DD
:1032800020F00F0028431D4908600846006800F040
:103290000F00A84201D0012076E7207800F004005A
:1032A000042807D11648006820F4E050E16808437C
:1032B00013490860207800F00800082808D1104859
:1032C000006820F46040216940EAC1000C490860B0
:1032D00000F04EF80A49096801F0F001F02292FA74
:1032E000A2F2B2FA82F2D140064A515CC8400649C5
:1032F00008600F20FEF7B8FD002045E7003C0240C3
:10330000083802402E3401081400022001480068E9
:10331000704700001400022000B5FFF7F7FF0749CF
:10332000096801F4E0514FF4E05292FAA2F2B2FAC5
:1033300082F2D140024A515CC84000BD08380240C8
:103340003E34010800B5FFF7E1FF0749096801F4C1
:1033500060414FF4604292FAA2F2B2FA82F2D14096
:10336000024A515CC84000BD083802403E340108A2
:1033700070B50021002200230020274C246804F0AF
:103380000C0424B1042C04D0082C41D103E02348C0
:1033900040E023483EE0204C241F246804F03F0115
:1033A0001D4C241F246804F4800484B11C4CB4FB1D
:1033B000F1F5194C241F246847F6C076344096FA7C
:1033C000A6F6B6FA86F6F44005FB04F20FE0134CBD
:1033D000B4FBF1F5104C241F246847F6C076344046
:1033E00096FAA6F6B6FA86F6F44005FB04F20A4C05
:1033F000241F246804F440344FF4403595FAA5F5B1
:10340000B5FA85F5EC40641C6300B2FBF3F001E013
:10341000024800BF00BF70BD083802400024F4001D
:1034200040787D0138B504460025207800F0010081
:10343000002871D0FE48006800F00C0004280DD070
:10344000FB48006800F00C00082813D1F848001F62
:10345000006800F48000B0F5800F0BD1F448083804
:103460000068C0F34040002869D06068002866D139
:10347000012038BD00BF6068B0F5803F08D1EC483E
:103480000838006840F48030E949083908602EE0C7
:10349000606868B9E6480838006820F48030E4497C
:1034A000083908600846006820F4802008601EE0A3
:1034B0006068B0F5A02F0DD1DD480838006840F4F1
:1034C0008020DB49083908600846006840F48030F5
:1034D00008600CE0D6480838006820F48030D449F1
:1034E000083908600846006820F48020086000BFA2
:1034F000606890B1FEF796FC054606E0FEF792FC88
:10350000401B642801D90320B3E7C9480838006884
:10351000C0F340400028F1D011E0FEF783FC0546DF
:1035200006E0FEF77FFC401B642801D90320A0E7DA
:10353000BF4808380068C0F340400028F1D1207827
:1035400000F00200022873D1B948006800F00C00B6
:1035500058B1B748006800F00C00082821D1B448E1
:10356000001F006800F48000D8B9B148083800682E
:10357000C0F3400020B1E068012801D0012078E7C5
:10358000AB480838006820F0F800F82292FAA2F25E
:10359000B2FA82F2216991400843A54908390860CE
:1035A00046E0E06850B3A2480838006840F00100E7
:1035B0009F4908390860FEF735FC054606E0FEF72E
:1035C00031FC401B022801D9032052E798480838F3
:1035D0000068C0F340000028F1D095480838006822
:1035E00020F0F800F82292FAA2F2B2FA82F22169EF
:1035F000914008438E490839086019E08C48083822
:10360000006820F001008A4908390860FEF70AFCCA
:10361000054606E0FEF706FC401B022801D9032000
:1036200027E7834808380068C0F340000028F1D13C
:10363000207800F00800082836D16069D0B17C48B5
:103640006C30006840F0010079496C310860FEF789
:10365000E9FB054606E0FEF7E5FB401B022801D921
:10366000032006E772486C300068C0F34000002871
:10367000F1D019E06E486C30006820F001006C4910
:103680006C310860FEF7CEFB054606E0FEF7CAFB8C
:10369000401B022801D90320EBE665486C30006826
:1036A000C0F340000028F1D1207800F00400042885
:1036B00071D100BF5E483830006840F080505C49EE
:1036C000383108600846006800F08050009000BF64
:1036D00000BF5848006840F4807056490860FEF703
:1036E000A1FB054606E0FEF79DFB401B642801D9BF
:1036F0000320BEE64F48006800F480700028F2D036
:1037000000BFA068012808D149486830006840F02F
:1037100001004749683108602DE0A06868B9444855
:103720006830006820F001004149683108600846AF
:10373000006820F0040008601DE0A06805280DD195
:103740003B486830006840F004003949683108603F
:103750000846006840F0010008600CE0344868301A
:10376000006820F0010032496831086008460068AE
:1037700020F00400086000BFA068A8B1FEF752FB6B
:10378000054609E0FEF74EFB401B41F288318842B6
:1037900002D903206DE61BE0254868300068C0F3BD
:1037A00040000028EED013E0FEF73CFB054608E0A1
:1037B000FEF738FB401B41F28831884201D90320D3
:1037C00057E61B4868300068C0F340000028EFD17E
:1037D000A06988B31648006800F00C00082873D070
:1037E000A069022864D112480838006820F080706F
:1037F0000F4908390860FEF715FB054606E0FEF79D
:1038000011FB401B022801D9032032E60848083882
:103810000068C0F340600028F1D1D4E907010843F3
:1038200047F6C07292FAA2F2B2FA82F2616A04E03A
:10383000083802400070004058E0914008430122DF
:10384000A16AC2EB51014FF4403292FAA2F2B2FAED
:1038500082F2914008434FF0706292FAA2F2B2FAFB
:1038600082F2E16A914008434FF0E04292FAA2F2FC
:10387000B2FA82F2216B914008431D490860081F8B
:10388000006840F08070091F0860FEF7CBFA05461B
:1038900006E0FEF7C7FA401B022801D90320E8E53D
:1038A0001348001F0068C0F340600028F1D01DE0FD
:1038B0000F48001F006820F080700D49091F086044
:1038C000FEF7B0FA054607E00EE0FEF7ABFA401B44
:1038D000022801D90320CCE50548001F0068C0F389
:1038E00040600028F1D101E00120C2E50020C0E5E0
:1038F0000438024070B504460D460CB9012070BD75
:1039000094F82C0028B9002084F82D00204600F0FF
:1039100011F8022084F82C00211D2068FDF795FD88
:103920002946D4E90002FDF7FBFD012084F82C00B4
:103930000020E4E710B586B0044600BF3E480068AA
:1039400040F001003C4908600846006800F00100B2
:10395000009000BF00BF00BF37480838006840F043
:1039600004003549083908600846006800F0040082
:10397000009000BF00BF00BF0846006840F008008C
:1039800008600846006800F00800009000BF00BF13
:1039900000BF0846006840F0100008600846006854
:1039A00000F01000009000BF00BF00BF0846006894
:1039B00040F0200008600846006800F020000090F9
:1039C00000BF00BF00BF0846006840F0400008602C
:1039D0000846006800F04000009000BF00BF0D20C6
:1039E00001900220029001200390032004900C20FB
:1039F000059001A91148FEF7F7F84CF20370019009
:103A000001A90F48FEF7F0F84FF68370019001A965
:103A10000C48FEF7E9F84FF63F00019001A90A486B
:103A2000FEF7E2F848F23710019001A90748FEF7C7
:103A3000DBF806B010BD0000383802400008024034
:103A4000000C024000100240001402400018024026
:103A500070B504460D4694F82C00022800D170BDC4
:103A6000022084F82C0029462068FDF728FD01205B
:103A700084F82C000020F2E770B504460D46164687
:103A800094F82C00022800D170BD022084F82C008C
:103A9000324629462068FDF719FD2868022803D11F
:103AA000052084F82C0002E0012084F82C0000207E
:103AB000EAE770B504460E4615460CB9012070BD04
:103AC00094F8450028B9002084F84400204600F00E
:103AD0001DF804F108012068FDF748FC3146A26892
:103AE0002068FDF783FC2946E36AD4E90102FDF76B
:103AF00019FCA168206850F8210040F00100A2687C
:103B0000216841F822000020D9E7000010B586B0F6
:103B1000044600BF2048006840F001001E490860CC
:103B20000846006800F00100009000BF00BF00BF21
:103B300019480838006840F008001749083908603B
:103B40000846006800F00800009000BF00BF00BFFA
:103B50000846006840F0100008600846006800F061
:103B60001000009000BF00BF4EF2B3700190022021
:103B7000029001200390032004900C20059001A9DD
:103B80000648FEF731F84FF68070019001A904480D
:103B9000FEF72AF806B010BD38380240000C02408B
:103BA00000100240042808D14FF0E021096941F0DB
:103BB00004014FF0E022116107E04FF0E0210969B4
:103BC00021F004014FF0E0221161704770B5044606
:103BD0002546681EB0F1807F01D301200FE0681EEA
:103BE0004FF0E02148610F214FF0FF3004F0EAF878
:103BF00000204FF0E021886107200861002070BD9F
:103C0000704700002DE9F04104462068C56920682E
:103C100006682068876805F00F08B8F1000F0AD120
:103C200005F0200038B106F0200020B1204605F054
:103C300062FABDE8F081B8F1000F79D040F20110CE
:103C40003840002874D005F0010048B106F48070B7
:103C500030B1012021680862E06E40F00100E066AA
:103C600005F0020048B107F0010030B102202168E0
:103C70000862E06E40F00400E06605F0040048B120
:103C800007F0010030B1042021680862E06E40F0C6
:103C90000200E06605F0080060B106F0200010B9EF
:103CA00007F0010030B1082021680862E06E40F0A2
:103CB0000800E066E06E58B305F0200028B106F079
:103CC000200010B1204605F016FAE06E00F0080062
:103CD00020B92068806800F0400018B3204605F045
:103CE000EAF92068806800F04000B8B12068806878
:103CF00020F0400021688860606E50B11748616E06
:103D00000865606EFDF783FE10B1606E016D884737
:103D10000DE02046FFF774FF09E009E02046FFF7B9
:103D20006FFF04E02046FFF76BFF0020E06680E7AE
:103D300005F0800030B106F0800018B1204605F093
:103D4000E5FB76E705F0400030B106F0400018B121
:103D5000204605F0C0F96CE700BF6AE79F900008B5
:103D600010B504460CB9012010BDA06900B100E0F7
:103D700000BF94F8690028B9002084F86800204644
:103D800000F02AF8242084F869002068006820F0F8
:103D9000010021680860204605F0F2F9012800D1F1
:103DA000E2E7606A10B1204605F0CAF82068406872
:103DB00020F49040216848602068806820F02A0044
:103DC000216888602068006840F001002168086070
:103DD000204605F02AF9C7E710B586B00446234906
:103DE0002068884240D100BF2148006840F00100AF
:103DF0001F4908600846006800F00100009000BFFD
:103E000000BF00BF1A481430006840F01000184985
:103E1000143108600846006800F01000009000BFF0
:103E200000BF48150190022002900120039002205B
:103E300004900720059001A90E48FDF7D5FE4FF428
:103E40008060019001A90B48FDF7CEFE2068006854
:103E500040F02000216808602520FEF71CFA0322AC
:103E600011462520FEF724FA06B010BD00100140CF
:103E700030380240000002402DE9F84F04460D465C
:103E8000164699464FF0000A94F86A0020287AD125
:103E900005B116B90120BDE8F88F00BF94F868009D
:103EA000012801D10220F6E7012084F8680000BF54
:103EB0000020583460612220A074FDF7B3FF8246D1
:103EC00026806680583C00BFA068B0F5805F0AD1AC
:103ED000206920B940F2FF10A4F85C001CE0FF202C
:103EE000A4F85C0018E0A06848B9206918B9FF2060
:103EF000A4F85C0010E07F20A4F85C000CE0A0684F
:103F0000B0F1805F08D1206918B97F20A4F85C0067
:103F100002E03F20A4F85C0000BFB4F85C8024E01D
:103F2000B4F85A00401EA4F85A005346002220213B
:103F30002046CDF8009005F01EFB08B10320AAE74B
:103F4000A068B0F5805F09D1206938B92F46206894
:103F5000406A00EA08003880AD1C06E02068406A2C
:103F600008F0FF01084005F8010BB4F85A000028DA
:103F7000D6D1202084F86A0000BF002084F86800B1
:103F800000BF88E7FFE7022085E77047704700BF62
:103F9000FEE7000010B5002210211248FDF73CFF9B
:103FA0001048006820F440600E4908600846006828
:103FB00040F480600860002220210A48FDF72CFFB1
:103FC000022007F005F9012210210648FDF724FF21
:103FD000022007F0FDF8002210210248FDF71CFF27
:103FE00010BD0000001C024000B587B000BF1248A1
:103FF000006840F08000104908600846006800F042
:104000008000019000BF00BF30200290012003908B
:1040100004900220059002A90848FDF7E5FD012261
:1040200020210648FDF7F8FE012210210348FDF784
:10403000F3FE07B000BD000030380240001C024013
:1040400010B5002210211248FDF7E6FE1048006866
:1040500020F440600E4908600846006840F4806023
:104060000860012220210A48FDF7D6FE022007F051
:10407000AFF8012210210648FDF7CEFE022007F01E
:10408000A7F8002210210248FDF7C6FE10BD00006F
:10409000001C024070B5054600241848006820F452
:1040A00040601649086008460068086000261AE06B
:1040B000002210211148FDF7AFFE022007F088F81A
:1040C000012210210D48FDF7A7FE6006040E2021F5
:1040D0000A48FDF795FE08B1601CC4B2012007F044
:1040E00077F8701CC6B2082EE2DB15B9FFF7A8FFFF
:1040F00001E0FFF74FFF204670BD0000001C0240AA
:1041000070B504461C48006820F440601A490860F5
:104110000846006840F480600860002210211648BC
:10412000FDF77AFE002523E0E00928B101222021D5
:104130001148FDF771FE04E0002220210E48FDF732
:104140006BFE6006040E022007F042F801221021E7
:104150000948FDF761FE022007F03AF8002210211D
:104160000548FDF759FE022007F032F8681CC5B279
:10417000082DD9DB70BD0000001C024010B51348AB
:10418000006820F44060114908600846006840F467
:1041900080600860012220210C48FDF73DFE0122CD
:1041A00010210A48FDF738FE042007F011F800221C
:1041B00020210648FDF730FE042007F009F8002210
:1041C00010210248FDF728FE10BD0000001C02402F
:1041D00010B51348006820F4406011490860084693
:1041E000006840F480600860002210210C48FDF750
:1041F00013FE002220210A48FDF70EFE042006F0DF
:10420000E7FF012210210648FDF706FE01222021CA
:104210000348FDF701FE042006F0DAFF10BD0000A0
:10422000001C024010B500241748006820F44060CC
:1042300015490860084600680860012220211248DC
:10424000FDF7EAFD012006F0C3FF012210210E4810
:10425000FDF7E2FD012006F0BBFF07E0601CC4B2E1
:10426000FA2C03DDFFF7B4FF012010BD2021064822
:10427000FDF7C6FD0028F1D1002210210248FDF70C
:10428000CBFD0020F1E70000001C024000B587B024
:1042900000BF2448006840F0010022490860084639
:1042A000006800F00100019000BF00BF00BF084699
:1042B000006840F0040008600846006800F0040050
:1042C000019000BF00BF00BF0846006840F08000BA
:1042D00008600846006800F08000019000BF00BF41
:1042E00001200290002003900220049003200590FA
:1042F00002A90D48FDF778FC4FF400500290002011
:104300000390012004900320059002A90748FDF7BF
:104310006BFC0C20029002A90548FDF765FC07B074
:1043200000BD00003038024000000240000802409A
:10433000001C024010B50446012C01D12D49087023
:104340002C480078002839D008212B48FDF758FD6B
:1043500080B104212848FDF753FD58B14FF40051B6
:104360002648FDF74DFD28B101212548FDF748FD00
:10437000012823D10A2006F01FFF00201D490870E4
:1043800008211D48FDF73CFD08B9012010BD04219E
:104390001948FDF735FD08B90220F7E74FF4005141
:1043A0001648FDF72DFD08B90320EFE70121144859
:1043B000FDF726FD01281BD10420E7E708210E4860
:1043C000FDF71EFD012813D104210B48FDF718FD50
:1043D00001280DD141030948FDF712FD012807D13D
:1043E00001210748FDF70CFD10B9012001490870B3
:1043F0000020CBE727000220001C024000080240FA
:104400000000024070B5044600260D4805880D489E
:10441000006818B1204602F087FF0FE00848408886
:1044200045430021084602F0BBFD02F03FFF002695
:1044300002E005490C80761CAE42FAD370BD000044
:104440003802022048030220000008602DE9FF4FD7
:1044500081B080460D469146DDF838A018480068C6
:1044600040B1CDF800A04A4629464046049B02F0E0
:1044700081FF21E0A9EB0800401C86B20498401B94
:10448000401C1FFA80FB002414E0281981B240462A
:1044900002F086FD02F00AFF002707E004FB067029
:1044A0003AF8100007490880781C87B2B742F5DB5C
:1044B000601C84B25C45E8DB05B0BDE8F08F00000D
:1044C000480302200000086010B504465C4884716F
:1044D0005C48006850B1204602F0F4FF5948C08A99
:1044E000574908805748008B488010BD002C51D197
:1044F000F020534908804FF4A07048800846808817
:1045000049F24131884205D04D48808845F210314A
:10451000884214D12C204A4908812A2048812B2026
:1045200088810846808845F21031884206D14FF4D0
:10453000A070434908804FF4F07048807BE0404809
:10454000808845F21051884210D14FF430503C49D8
:1045500008814FF4285048814FF42C5088814FF443
:10456000F07008804FF44870488064E034488088D8
:1045700041F6631188425ED12C20314908812B20FD
:1045800048812A2088814FF4F07008804FF44870E9
:10459000488050E04FF4A07029490880F0204880FE
:1045A0000846808849F24131884205D024488088F5
:1045B00045F21031884207D12C20214908812A2058
:1045C00048812B20888129E01D48808845F21051C0
:1045D000884210D14FF43050194908814FF42850C7
:1045E00048814FF42C5088814FF4487008804FF474
:1045F000F070488012E01248808841F663118842CA
:104600000CD12C200E4908812A2048812B2088813A
:104610004FF4487008804FF4F07048800848808854
:1046200045F21031884206D14FF4F07004490880F9
:104630004FF4A0704880002002F078FB00BF54E7E0
:10464000380202204803022070B504460D46164683
:104650004348006828B132462946204602F048FF08
:1046600070BD4048808849F24131884205D03D48BC
:10467000808845F21031884214D13A49488902F0C5
:1046800009FE201202F0FAFDE0B202F0F7FD354912
:10469000888902F0FFFD281202F0F0FDE8B202F076
:1046A000EDFD54E02F48808845F21051884220D11A
:1046B0002C49488902F0EEFD201202F0DFFD294965
:1046C0004989491C88B202F0E5FDE0B202F0D6FD4E
:1046D0002449888902F0DEFD281202F0CFFD21492D
:1046E0008989491C88B202F0D5FDE8B202F0C6FD06
:1046F0002DE01C48808841F66311884227D1194873
:10470000807920B917480088401E001B84B21549E3
:10471000488902F0BFFD201202F0B0FDE0B202F0C5
:10472000ADFD201202F0AAFDE0B202F0A7FD0D4996
:10473000888902F0AFFD281202F0A0FDE8B202F075
:104740009DFD281202F09AFDE8B202F097FD05489F
:10475000008905490880891C0E8000BF80E70000A1
:104760004803022038020220FEFF07602DE9F84FBF
:1047700005460E4617469846DDF828904FF0000B88
:104780001448006840B143463A4631462846CDF8C1
:10479000009002F0D5FE1BE0781B401C1FFA80FB46
:1047A000344613E02146284602F0FAFB02F07EFD73
:1047B0004FF0000A06E00849A1F800900AF1010054
:1047C0001FFA80FADA45F6DB601C84B24445E9DD65
:1047D000BDE8F88F480302200000086000B595B0DE
:1047E00003F0C2F8FE4988800846808818B102F0BC
:1047F0004BFF02F0F0B900BFFA48006840F0020039
:10480000F84908600846006800F00200019000BF07
:1048100000BF2020109001201190129003201390CF
:1048200010A9F148FDF7E0F902F00CFA4FF0204032
:10483000EE490860EE484860002088600021EB489F
:10484000C16001611021416100218161C16101628A
:104850004FF480514162002181624FF48041C16276
:104860000021016341634FF480118163112009909D
:1048700000200A9055200B9000200F9015200290E8
:1048800000200390152004900020089002AA09A996
:10489000D648FFF70EF9322006F08EFCD32002F046
:1048A000F9FC02F011FACE49888002F00DFACC49E9
:1048B000888002F009FACA498880084680884FF645
:1048C000FF7101EA0020C649888002F0FDF9C44961
:1048D00089880843C24988800846808849F2413166
:1048E000884278D0D42002F0D5FC02F0EDF9BC4922
:1048F000888002F0E9F9BA49888002F0E5F9B84900
:104900008880084680884FF6FF7101EA0020B4498C
:10491000888002F0D9F9B24989880843B049888073
:104920000846808845F21031884254D04FF45A40EE
:1049300002F0B0FC02F0C8F9A94988804FF45B404E
:1049400002F0A8FC02F0C0F9A549888008468088DA
:104950004FF6FF7101EA0020A14988804FF45C40C6
:1049600002F098FC02F0B0F99D49898808439C49FF
:10497000888008468088B0F5004F02D145F210507B
:1049800088809748808845F21051884223D0A12022
:1049900002F080FC02F098F99149888002F094F9C5
:1049A0008F498880084680884FF6FF7101EA002011
:1049B0008B49888002F088F98949898808438849A9
:1049C00088800846808845F26171884203D141F6AB
:1049D0006310834988808248818886A0FBF736FD72
:1049E0007F48808849F2413188427CD1CF2002F053
:1049F00051FC002002F042FCC12002F03FFC3020BC
:104A000002F03CFCED2002F045FC642002F036FC94
:104A1000032002F033FC122002F030FC812002F06F
:104A20002DFCE82002F036FC852002F027FC102047
:104A300002F024FC7A2002F021FCCB2002F02AFCB8
:104A4000392002F01BFC2C2002F018FC002002F0A0
:104A500015FC342002F012FC022002F00FFCF720BB
:104A600002F018FC202002F009FCEA2002F012FCFF
:104A7000002002F003FC002002F000FCC02002F045
:104A800009FC1B2002F0FAFBC12002F003FC01200C
:104A900002F0F4FBC52002F0FDFB302002F0EEFB3B
:104AA000302002F0EBFBC72002F0F4FBB72002F04D
:104AB000E5FB362002F0EEFB482002F0DFFB3A2057
:104AC00002F0E8FB552002F0D9FBB12002F0E2FB36
:104AD000002002F0D3FB1A2002F0D0FBB62002F037
:104AE000D9FB0A2000E0ABE002F0C8FBA22002F0F4
:104AF000C5FBF22002F0CEFB002002F0BFFB262017
:104B000002F0C8FB012002F0B9FBE02002F0C2FB7A
:104B10000F2002F0B3FB2A2002F0B0FB282002F0A5
:104B2000ADFB082002F0AAFB0E2002F0A7FB082034
:104B300002F0A4FB542002F0A1FBA92002F09EFB8E
:104B4000432002F09BFB0A2002F098FB0F2002F0AA
:104B500095FB002002F092FB002002F08FFB00206A
:104B600002F08CFB002002F089FBE12002F092FBB6
:104B7000002002F083FB152002F080FB172002F0DA
:104B80007DFB072002F07AFB112002F077FB062064
:104B900002F074FB2B2002F071FB562002F06EFB3A
:104BA0003C2002F06BFB052002F068FB102002F0B5
:104BB00065FB0F2002F062FB3F2002F05FFB3F200D
:104BC00002F05CFB0F2002F059FB2B2002F062FB8D
:104BD000002002F053FB002002F050FB012011E006
:104BE000380202203038024000040240EC0102206A
:104BF000040100A0204C43442049443A25780D0A82
:104C00000000000002F03AFB3F2002F037FB2A20B0
:104C100002F040FB002002F031FB002002F02EFBEE
:104C2000002002F02BFBEF2002F028FB112002F005
:104C300031FB782006F0C0FA292002F02BFBD8E5E2
:104C4000FE48808845F21031884240F07C87ED2094
:104C500002F020FB012002F011FBFE2002F00EFB0F
:104C6000EE2002F017FBDE2002F008FB212002F00C
:104C700005FBF12002F00EFB012002F0FFFADF201D
:104C800002F008FB102002F0F9FAC42002F002FB47
:104C90008F2002F0F3FAC62002F0FCFA002002F0A6
:104CA000EDFAE22002F0EAFAE22002F0E7FAE2206E
:104CB00002F0E4FABF2002F0EDFAAA2002F0DEFAD8
:104CC000B02002F0E7FA0D2002F0D8FA002002F03E
:104CD000D5FA0D2002F0D2FA002002F0CFFA11200E
:104CE00002F0CCFA002002F0C9FA192002F0C6FA4C
:104CF000002002F0C3FA212002F0C0FA002002F0E6
:104D0000BDFA2D2002F0BAFA002002F0B7FA3D20D9
:104D100002F0B4FA002002F0B1FA5D2002F0AEFA1F
:104D2000002002F0ABFA5D2002F0A8FA002002F0A9
:104D3000A5FAB12002F0AEFA802002F09FFA00201E
:104D400002F09CFA8B2002F099FA002002F096FA09
:104D5000962002F093FA002002F090FAB22002F0BE
:104D600099FA002002F08AFA002002F087FA022065
:104D700002F084FA002002F081FA032002F07EFAA9
:104D8000002002F07BFAB32002F084FA002002F047
:104D900075FA002002F072FA002002F06FFA00208B
:104DA00002F06CFA002002F069FA002002F066FAC4
:104DB000002002F063FA002002F060FA002002F006
:104DC0005DFA002002F05AFA002002F057FA0020A3
:104DD00002F054FA002002F051FA002002F04EFADC
:104DE000002002F04BFA002002F048FA002002F006
:104DF00045FA002002F042FA002002F03FFA0020BB
:104E000002F03CFA002002F039FA002002F036FAF3
:104E1000002002F033FA002002F030FAB42002F051
:104E200039FA8B2002F02AFA002002F027FA9620A5
:104E300002F024FA002002F021FAA12002F01EFA6A
:104E4000002002F01BFAB52002F024FA022002F042
:104E500015FA002002F012FA032002F00FFA0020E7
:104E600002F00CFA042002F009FA002002F006FA1F
:104E7000B62002F00FFA002002F000FA002002F043
:104E8000FDF9B72002F006FA002002F0F7F9002041
:104E900002F0F4F93F2002F0F1F9002002F0EEF9FF
:104EA0005E2002F0EBF9002002F0E8F9642002F045
:104EB000E5F9002002F0E2F98C2002F0DFF9002091
:104EC00002F0DCF9AC2002F0D9F9002002F0D6F9AA
:104ED000DC2002F0D3F9002002F0D0F9702002F0BB
:104EE000CDF9002002F0CAF9902002F0C7F90020A5
:104EF00002F0C4F9EB2002F0C1F9002002F0BEF983
:104F0000DC2002F0BBF9002002F0B8F9B82002F072
:104F1000C1F9002002F0B2F9002002F0AFF9002040
:104F200002F0ACF9002002F0A9F9002002F0A6F985
:104F3000002002F0A3F9002002F0A0F9002002F006
:104F40009DF9BA2002F0A6F9242002F097F900207A
:104F500002F094F9002002F091F9002002F08EF99D
:104F6000C12002F097F9202002F088F9002002F019
:104F700085F9542002F082F9002002F07FF9FF2029
:104F800002F07CF9002002F079F9C22002F082F9E7
:104F90000A2002F073F9002002F070F9042002F0F8
:104FA0006DF9002002F06AF9C32002F073F93C2089
:104FB00002F064F9002002F061F93A2002F05EF993
:104FC000002002F05BF9392002F058F9002002F0CD
:104FD00055F9372002F052F9002002F04FF93C2039
:104FE00002F04CF9002002F049F9362002F046F9AF
:104FF000002002F043F9322002F040F9002002F0D4
:105000003DF92F2002F03AF9002002F037F92C2068
:1050100002F034F9002002F031F9292002F02EF9D3
:10502000002002F02BF9262002F028F9002002F0DF
:1050300025F9242002F022F9002001E038020220A4
:1050400002F01CF9242002F019F9002002F016F9F0
:10505000232002F013F9002002F010F93C2002F0A6
:105060000DF9002002F00AF9362002F007F90020BD
:1050700002F004F9322002F001F9002002F0FEF8FB
:105080002F2002F0FBF8002002F0F8F82C2002F0AC
:10509000F5F8002002F0F2F8292002F0EFF80020E5
:1050A00002F0ECF8262002F0E9F8002002F0E6F821
:1050B000242002F0E3F8002002F0E0F8242002F0BF
:1050C000DDF8002002F0DAF8232002F0D7F8002003
:1050D00002F0D4F8C42002F0DDF8622002F0CEF82D
:1050E000002002F0CBF8052002F0C8F8002002F002
:1050F000C5F8842002F0C2F8002002F0BFF8F020CA
:1051000002F0BCF8002002F0B9F8182002F0B6F85E
:10511000002002F0B3F8A42002F0B0F8002002F062
:10512000ADF8182002F0AAF8002002F0A7F85020ED
:1051300002F0A4F8002002F0A1F80C2002F09EF882
:10514000002002F09BF8172002F098F8002002F0EF
:1051500095F8952002F092F8002002F08FF8F320E5
:1051600002F08CF8002002F089F8E62002F086F8C0
:10517000002002F083F8C52002F08CF8322002F003
:105180007DF8002002F07AF8442002F077F8002041
:1051900002F074F8652002F071F8002002F06EF859
:1051A000762002F06BF8002002F068F8882002F008
:1051B00065F8002002F062F8C62002F06BF82020AB
:1051C00002F05CF8002002F059F8172002F056F8BF
:1051D000002002F053F8012002F050F8002002F005
:1051E0004DF8C72002F056F8002002F047F80020E2
:1051F00002F044F8002002F041F8002002F03EF8EE
:10520000C82002F047F8002002F038F8002002F031
:1052100035F8002002F032F8002002F02FF8C92003
:1052200002F038F8002002F029F8002002F026F8F9
:10523000002002F023F8002002F020F8002002F005
:105240001DF8002002F01AF8002002F017F80020E4
:1052500002F014F8002002F011F8002002F00EF81D
:10526000002002F00BF8002002F008F8002002F005
:1052700005F8002002F002F8002001F0FFFF0020F6
:1052800001F0FCFFE02002F005F8162001F0F6FF27
:10529000002001F0F3FF1C2001F0F0FF002001F0DE
:1052A000EDFF212001F0EAFF002001F0E7FF3620AA
:1052B00001F0E4FF002001F0E1FF462001F0DEFFF5
:1052C000002001F0DBFF522001F0D8FF002001F0A8
:1052D000D5FF642001F0D2FF002001F0CFFF7A203B
:1052E00001F0CCFF002001F0C9FF8B2001F0C6FFC8
:1052F000002001F0C3FF992001F0C0FF002001F061
:10530000BDFFA82001F0BAFF002001F0B7FFB920CF
:1053100001F0B4FF002001F0B1FFC42001F0AEFFA6
:10532000002001F0ABFFCA2001F0A8FF002001F02F
:10533000A5FFD22001F0A2FF002001F09FFFD9209D
:1053400001F09CFF002001F099FFE02001F096FFA2
:10535000002001F093FFF32001F090FF002001F006
:105360008DFFE12001F096FF162001F087FF00205D
:1053700001F084FF1C2001F081FF002001F07EFF7E
:10538000222001F07BFF002001F078FF362001F0A1
:1053900075FF002001F072FF452001F06FFF002033
:1053A00001F06CFF522001F069FF002001F066FF60
:1053B000642001F063FF002001F060FF7A2001F01B
:1053C0005DFF002001F05AFF8B2001F057FF002005
:1053D00001F054FF992001F051FF002001F04EFF31
:1053E000A82001F04BFF002001F048FFB92001F098
:1053F00045FF002001F042FFC42001F03FFF0020E4
:1054000001F03CFFCA2001F039FF002001F036FF17
:10541000D22001F033FF002001F030FFD82001F04E
:105420002DFF002001F02AFFE02001F027FF0020DF
:1054300001F024FFF32001F021FF002001F01EFF06
:10544000E22001F027FF052001F018FF002001F005
:1054500015FF0B2001F012FF002001F00FFF1B20B1
:1054600001F00CFF002001F009FF342001F006FFDD
:10547000002001F003FF442001F000FF002001F0B4
:10548000FDFE4F2001F0FAFE002001F0F7FE612042
:1054900001F0F4FE002001F0F1FE792001F0EEFEB3
:1054A000002001F0EBFE882001F0E8FE002001F072
:1054B000E5FE972001F0E2FE002001F0DFFEA620CD
:1054C00001F0DCFE002001F0D9FEB72001F0D6FE8D
:1054D000002001F0D3FEC22001F0D0FE002001F038
:1054E000CDFEC72001F0CAFE002001F0C7FED1208A
:1054F00001F0C4FE002001F0C1FED62001F0BEFE86
:10550000002001F0BBFEDD2001F0B8FE002001F01C
:10551000B5FEF32001F0B2FE002001F0AFFEE32063
:1055200001F0B8FE052001F0A9FE002001F0A6FE62
:105530000A2001F0A3FE002001F0A0FE1C2001F0D3
:105540009DFE002001F09AFE332001F097FE00201E
:1055500001F094FE442001F091FE002001F08EFE47
:10556000502001F08BFE002001F088FE622001F047
:1055700085FE002001F082FE782001F07FFE0020F1
:1055800001F07CFE882001F079FE002001F076FE1B
:10559000972001F073FE002001F070FEA62001F0BC
:1055A0006DFE002001F06AFEB72001F067FE0020CA
:1055B00001F064FEC22001F061FE002001F05EFEF9
:1055C000C72001F05BFE002001F058FED12001F061
:1055D00055FE002001F052FED52001F04FFE0020C4
:1055E00001F04CFEDD2001F049FE002001F046FEF6
:1055F000F32001F043FE002001F040FEE42001F022
:1056000049FE012001F03AFE002001F037FE0120A2
:1056100001F034FE002001F031FE022001F02EFEE8
:10562000002001F02BFE2A2001F028FE002001F0CE
:1056300025FE3C2001F022FE002001F01FFE4B2041
:1056400001F01CFE002001F019FE5D2001F016FEA5
:10565000002001F013FE742001F010FE002001F084
:105660000DFE842001F00AFE002001F007FE9320C9
:1056700001F004FE002001F001FEA22001F0FEFD79
:10568000002001F0FBFDB32001F0F8FD002001F047
:10569000F5FDBE2001F0F2FD002001F0EFFDC42079
:1056A00001F0ECFD002001F0E9FDCD2001F0E6FD68
:1056B000002001F0E3FDD32001F0E0FD002001F027
:1056C000DDFDDD2001F0DAFD002001F0D7FDF32043
:1056D00001F0D4FD002001F0D1FDE52001F0DAFD5C
:1056E000002001F0CBFD002001F0C8FD002001F0FA
:1056F000C5FD002001F0C2FD022001F0BFFD002029
:1057000001F0BCFD292001F0B9FD002001F0B6FD3B
:105710003C2001F0B3FD002001F0B0FD4B2001F072
:10572000ADFD002001F0AAFD5D2001F0A7FD0020E5
:1057300001F0A4FD742001F0A1FD002001F09EFD08
:10574000842001F09BFD002001F098FD932001F0E2
:1057500095FD002001F092FDA22001F08FFD0020B8
:1057600001F08CFDB32001F089FD002001F086FDE1
:10577000BE2001F083FD002001F080FDC42001F077
:105780007DFD002001F07AFDCD2001F077FD0020A5
:1057900001F074FDD32001F071FD002001F06EFDD9
:1057A000DC2001F06BFD002001F068FDF32001F02A
:1057B00065FD002001F062FDE62001F06BFD112087
:1057C00001F05CFD002001F059FD342001F056FD90
:1057D000002001F053FD562001F050FD002001F0A3
:1057E0004DFD762001F04AFD002001F047FD7720B5
:1057F00001F044FD002001F041FD662001F03EFD76
:10580000002001F03BFD882001F038FD002001F070
:1058100035FD992001F032FD002001F02FFDBB2065
:1058200001F02CFD002001F029FD992001F026FD5A
:10583000002001F023FD662001F020FD002001F092
:105840001DFD552001F01AFD002001F017FD552027
:1058500001F014FD002001F011FD452001F00EFDC6
:10586000002001F00BFD432001F008FD002001F0B5
:1058700005FD442001F002FD002001F0FFFCE720BF
:1058800001F008FD322001F0F9FC002001F0F6FCE7
:10589000552001F0F3FC002001F0F0FC762001F02F
:1058A000EDFC002001F0EAFC662001F0E7FC00209E
:1058B00001F0E4FC672001F0E1FC002001F0DEFCD7
:1058C000672001F0DBFC002001F0D8FC872001F00C
:1058D000D5FC002001F0D2FC992001F0CFFC002083
:1058E00001F0CCFCBB2001F0C9FC002001F0C6FC9B
:1058F000992001F0C3FC002001F0C0FC772001F0EA
:10590000BDFC002001F0BAFC442001F0B7FC0020EF
:1059100001F0B4FC562001F0B1FC002001F0AEFC17
:10592000232001F0ABFC002001F0A8FC332001F0A3
:10593000A5FC002001F0A2FC452001F09FFC002006
:1059400001F09CFCE82001F0A5FC002001F096FC91
:10595000002001F093FC992001F090FC002001F060
:105960008DFC872001F08AFC002001F087FC882054
:1059700001F084FC002001F081FC772001F07EFC26
:10598000002001F07BFC662001F078FC002001F093
:1059900075FC882001F072FC002001F06FFCAA2049
:1059A00001F06CFC002001F069FCBB2001F066FCFA
:1059B000002001F063FC992001F060FC002001F060
:1059C0005DFC662001F05AFC002001F057FC5520D8
:1059D00001F054FC002001F051FC552001F04EFC78
:1059E000002001F04BFC442001F048FC002001F0B5
:1059F00045FC442001F042FC002001F03FFC552012
:105A000001F03CFC002001F039FCE92001F042FCEF
:105A1000AA2001F033FC002001F030FC002001F04E
:105A20002DFC002001F02AFC002001F033FCAA200C
:105A300001F024FCCF2001F02DFC002001F01EFC21
:105A4000002001F01BFC002001F018FC002001F0F8
:105A500015FC002001F012FC002001F00FFC0020DA
:105A600001F00CFC002001F009FC002001F006FC14
:105A7000002001F003FC002001F000FC002001F0F8
:105A8000FDFB002001F0FAFB002001F0F7FB0020F5
:105A900001F0F4FB002001F0F1FB002001F0EEFB2F
:105AA000F02001F0F7FB002001F0E8FB502001F0AE
:105AB000E5FB002001F0E2FB002001F0DFFB00200D
:105AC00001F0DCFBF32001F0E5FB002001F0D6FB48
:105AD000F92001F0DFFB062001F0D0FB102001F0DF
