:020000040800F2
:10000000D8E20420E5020008C3AC0008DB49000880
:1000100005AC0008291E0008CDE90008000000001A
:100020000000000000000000000000009DE100084A
:100030004922000800000000CD1D000825E400084A
:100040001F0300081F0300081F0300081F03000808
:100050001F0300081F0300081F0300081F030008F8
:100060001F0300081F0300081F0300081F030008E8
:100070001F0300081F0300081F0300081F030008D8
:100080001F0300081F0300081F0300081F030008C8
:100090001F0300081F0300081F0300081F030008B8
:1000A0001F0300081F0300081F0300081F030008A8
:1000B0001F0300081F0300081F0300081F03000898
:1000C0001F0300081F0300081F0300081F03000888
:1000D0001F0300086DE900081F0300081F03000844
:1000E0001F0300081F0300081F0300081F03000868
:1000F0001F0300081F0300081F0300081F03000858
:100100001F0300081F0300081F0300081F03000847
:100110001F0300081F0300081F0300081F03000837
:100120001F030008792100081F0300081F030008AF
:100130001F0300081F0300081F0300081F03000817
:100140001F0300081F0300081F0300081F03000807
:100150001F0300081F0300081F0300081F030008F7
:100160001F0300081F0300081F0300081F030008E7
:100170001F0300081F030008F5200008000000000E
:100180001F0300081F0300081F0300081F030008C7
:100190001F0300081F0300081F0300081F030008B7
:1001A0001F0300081F0300081F0300081F030008A7
:1001B0001F0300081F0300081F0300081F03000897
:1001C0001F0300081F030008000000001F030008B1
:1001D0001F0300081F0300081F0300081F03000877
:1001E0001F0300081F0300081F0300081F03000867
:1001F0001F0300081F03000800F002F800F062F877
:100200000AA090E8000C82448344AAF10107DA4571
:1002100001D100F057F8AFF2090EBAE80F0013F061
:10022000010F18BFFB1A43F0010318473CE9010016
:100230005CE901000A4410F8014B14F00F0508BFF7
:1002400010F8015B240908BF10F8014B6D1E05D0A2
:1002500010F8013B6D1E01F8013BF9D1641E03D07B
:10026000641E01F8015BFBD19142E4D370470000AA
:100270000023002400250026103A28BF78C1FBD8AF
:10028000520728BF30C148BF0B607047662918F07D
:100290000683642900F05A81782900F0BA81732915
:1002A00000F0EA87002070471FB518F0F3FA01F05C
:1002B00093F804000020002118F0D6FAE0601FBD7A
:1002C00010B510BD01F03EF91146FFF7EDFF10F03B
:1002D00093FF01F05CF903B4FFF7F2FF03BC0EF0EB
:1002E00098FC000011488047DFF84400016841F4A1
:1002F00070010160BFF34F8FDFF83800016821F013
:1003000040410160BFF36F8F0B480047FEE7FEE7F7
:10031000FEE7FEE7FEE7FEE7FEE7FEE7FEE7FEE7B5
:1003200006480749074A084B7047000049E400089F
:1003300088ED00E034EF00E0F9010008D8DC04208B
:10034000D8E20420D8DE0420D8DE042072B670473C
:1003500062B67047EFF3108072B6704780F3108872
:10036000704730BF704720BF7047B0FA80F07047C9
:1003700090FAA0F0B0FA80F0704790FAA0F07047C1
:10038000704753EA020C00F069802DE9F04B4FF002
:100390000006002B1FBFB3FA83F503FA05F424FA15
:1003A00005F65E4012BF1643B2FA82F502FA05F472
:1003B000C5F120051EBF22FA05FC44EA0C042035D5
:1003C00056EA044C4FEA144418BF641C4FF000086E
:1003D0004FF00009904271EB030C39D3002919BF8B
:1003E000B1FA81F701FA07F6B0FA80F700FA07F6DA
:1003F000C7F120071EBF20FA07FC46EA0C0620378B
:10040000B6FBF4FCA7EB0507103F07F01F0BCBF181
:1004100020060CFA0BFB2CFA06F644BFB346002666
:10042000202FA4BF5E464FF0000B5BEA060C08BF0E
:100430004FF0010B19EB0B09ABFB027C48EB0608F4
:10044000C01B06FB02CC0BFB03CC71EB0C01C1E71C
:100450000B46024641464846BDE8F08B13B54FF0C7
:1004600000004FF00001AFF30080BDE81C40704772
:10047000B2F120030AD5C2F1200320FA02F001FAFA
:1004800003F341FA02F140EA0300704741FA03F036
:100490004FEAE171704710B54C1084EA530404D55B
:1004A0004042C1F1000138BF491E1B4204D55242EF
:1004B000C3F1000338BF5B1EFFF763FF14F0804FEA
:1004C00004D04042C1F1000138BF491E14F0004F72
:1004D00004D05242C3F1000338BF5B1E10BD0000C0
:1004E0000FB4044910B503AA029800F0C9FE10BC6D
:1004F0005DF814FB3400022070B50C460546012A55
:1005000005D02878800600D5EA69002302E001239F
:1005100005E05B1C934202D2E05C0028F9D1A86997
:10052000E618C01AA861286A184428622846AFF362
:10053000008004E0D5E9012114F8010B9047B44292
:10054000F8D32846AFF3008070BD00002DE9F041DC
:100550000646002410687529314616A510D0AFF361
:100560000080002802DA404213A507E031688A07BC
:1005700001D512A502E0490704D511A5012401E027
:10058000AFF3008000210A2206F1240709E0B0FB46
:10059000F2FCB0FBF2F302FB1C003030785418463A
:1005A000491C0028F3D123462A463046BDE8F041D5
:1005B00000F0D1BB000000002D0000002B00000067
:1005C00020000000F0B40D460188090502D51B4C3F
:1005D0007C4402E0194C7C440E34002100F12403D9
:1005E00005E002F00F061209A65D5E54491C002AC0
:1005F000F7D102780023120704D5702D06D009B177
:10060000022311342246F0BC00F0A5BB01231034B4
:10061000F8E770B504460D4621461068AFF3008038
:10062000024629462046BDE87040CBE703681268C1
:1006300043F0200303600823C361C3E7C7E401005C
:100640002DE9F05F894604464FF0000ADFF874B1E7
:10065000FB44C0F820A02046E1688847002874D0F9
:10066000252806D0D4E901219047206A401C206249
:10067000F1E700265F462046E168884720280546C6
:1006800007DB312D05D2781910F8200C08B106438C
:10069000F1E7B00701D526F00406C4F81CA0002736
:1006A000C4F818A02A2D09D028460EF0ABFA38B3AA
:1006B00004EB8708303DC8F8185019E059F8041BBE
:1006C000204604EB87029161E1688847012F0546C7
:1006D00018D1E069002820DA26F020061DE0D8F8BD
:1006E000180000EB800005EB40003038C8F8180017
:1006F0002046E168884705460EF084FA0028EED1CE
:10070000012F0AD02E2D08D12046E16888477F1C92
:100710000546022F46F02006C4DBA069002803DA54
:10072000404246F00106A061F00701D026F0100615
:100730006C2D0BD0682D09D04C2D39D06A2D35D0B9
:10074000742D35D07A2D33D016E038E0E1682F468D
:1007500020468847B842054609D16C2F26D04FF471
:100760008060E168064320468847054604E06C2F18
:100770001AD04FF4807006430DB3A5F1410019283B
:1007800002D8203546F400664A46294620462660AF
:100790004E46FFF77BFD80B101280BD0F61D26F0F9
:1007A000070000F1080956E74020E4E78020D8E779
:1007B0000020D6E706F104094DE7284652E7206AF3
:1007C000BDE8F09F6FE401002DE9F04F9B4616460F
:1007D0004FF00109C1B020910090A9F1010920A8B2
:1007E0005DF8295050F82900C5E04FEA6A007043CF
:1007F0002C185FEACA7100D1801B5A46214627187F
:100800002846904700280EDD304646EA0501890754
:1008100065D022782978401E05F8012B04F8011BC9
:10082000F7D1AD1BA41B5A463946204690470028F5
:1008300023DD5A4639462846904700280EDD3046CB
:1008400046EA0501890751D03A782978401E05F813
:10085000012B07F8011BF7D1AD1BBF1B304646EA41
:100860000401890749D03A782178401E04F8012B09
:1008700007F8011BF7D1A41BBF1B314646EA04024F
:10088000B81B920740D003782278491E04F8013B38
:1008900000F8012BF7D12C46871BB84634445A4642
:1008A0004146204690470028F8DB5A464146BF1B88
:1008B000384690470028F8DC304646EA0401A74253
:1008C0004FEA81712ED931B33A782178401E04F86D
:1008D000012B07F8011BF7D1A41BBF1BDEE7226821
:1008E0002968001F04C502C4F9D19AE73A6829684B
:1008F000001F04C502C7F9D1AEE73A682168001F9E
:1009000004C402C7F9D1B6E703682268091F08C406
:1009100004C0F9D1BFE73A682168001F04C402C7C8
:10092000F9D1D9E7E1B198F800202178401E04F808
:10093000012B08F8011BF6D1A21B501BB0FBF6F0EF
:10094000401EAAEB0001491E884216DD0A2910DD6F
:1009500020AB4DF8295043F8290009F1010918E0AE
:10096000D8F800202168001F04C448F8041BF7D100
:10097000E2E70A2810DD824637E70A2807DD4DF84E
:10098000292020AA42F8291009F10109F3E70A29D0
:1009900002DD15468A4628E7B9F1000F7FF41DAF46
:1009A00041B0BDE8F08F2DE9F04799460F46064665
:1009B000140039D0002F37D00A2F01D9FFF704FFD8
:1009C0007F1E354607FB04582CE02F46254400E0E7
:1009D0003F1BB74205D34A46294638469047002870
:1009E000F6DC44EA05003B1980070CD0002117E033
:1009F00029180A1B0F6802E011681151121B9A4254
:100A0000FAD2001D1751A0420CD2F1E76818027803
:100A100001E007780755001B9842FAD2491C02559D
:100A2000A142F3D34545D0D3BDE8F08740EA0103A6
:100A300010B59B070FD1042A0DD310C808C9121F87
:100A40009C42F8D020BA19BA884201D9012010BDC1
:100A50004FF0FF3010BD1AB1D30703D0521C07E08E
:100A6000002010BD10F8013B11F8014B1B1B07D1F2
:100A700010F8013B11F8014B1B1B01D1921EF1D163
:100A8000184610BD40EA0103024630B59B0710D15D
:100A90004FF0013400E008C208C91D1B9D4315EA50
:100AA000C41FF8D013F0FF0102F8011B0DD01B0A80
:100AB000F8E711F8013B002B02F8013B05D011F8D3
:100AC000013B002B02F8013BF3D130BD10B5431CB4
:100AD00002E010F8011B71B18107FAD14FF0013229
:100AE00002C88C1A8C4314EAC211F9D0C01A0A0643
:100AF00003D0C01E10BDC01A10BD0A0401D0801E54
:100B000010BD0902FCD0401E10BD032A40F2308007
:100B100010F0030C00F0158011F8013BBCF1020F3E
:100B2000624498BF11F801CB00F8013B38BF11F8BF
:100B3000013BA2F1040298BF00F801CB38BF00F8D6
:100B4000013B11F0030300F0AD83083AC0F00880C8
:100B500051F8043B083A51F804CBA0E80810F5E737
:100B6000121D5CBF51F8043B40F8043BAFF300801A
:100B7000D20724BF11F8013B11F801CB48BF11F88F
:100B8000012B24BF00F8013B00F801CB48BF00F85F
:100B9000012B7047431A28BF9A427FF6B6AF032A4B
:100BA0001044114440F2268010F0030F1EBF11F8CC
:100BB000013D521E00F8013D10F0030F7FF4F6AF27
:100BC00011F0030300F0B383083AC0F00B8051F832
:100BD000043D083A51F804CD40F8043D40F804CDF6
:100BE000FFF7F3BF121D5CBF51F8043D40F8043D10
:100BF000AFF30080D20724BF11F8013D11F801CDF9
:100C000048BF11F8012C24BF00F8013D00F801CDC8
:100C100048BF00F8012C70474FF000020429C0F0D3
:100C2000128010F0030C00F0AE83CCF1040CBCF188
:100C3000020F18BF00F8012BA8BF20F8022BA1EB70
:100C40000C0100F0A0BB5FEAC17C24BF00F8012BBF
:100C500000F8012B48BF00F8012B70474FF0013C12
:100C600050F8042B51F8043B9A4215D1A2EB0C0327
:100C7000934313EACC130BD150F8042B51F8043BE7
:100C80009A4209D1A2EB0C03934313EACC13E7D0A9
:100C90004FF00000704700BFD01A01BAB1FA81F1DD
:100CA00001F0180122FA01F0CB40C1F12001DBB2C2
:100CB000C0B2C01A2CFA01F3D11A914311EAC31140
:100CC000E6D17047704770477047704730B5B0F154
:100CD0000A024FEA900E71F100034EEA817EB0EBFA
:100CE0000E0061EB91014FEA101E4EEA017E10EBFF
:100CF0000E0041EB11114FEA102E4EEA016E10EB7F
:100D00000E0041EB11214FEA104E4EEA014E10EB5E
:100D10000E0041EB1141401841F100014FEAD000B3
:100D200040EA41704FEAD10110EB80054FEA81049F
:100D300044EA907444EB01046D1944EB0404521B23
:100D4000A3414FF0000348BF0A3200D530BD401C1C
:100D500041F1000130BD2DE9F0470D46994692461C
:100D6000044600F124080168880604D5E06921F0F2
:100D70001001216000E00120A84201DD471B00E0D6
:100D80000027A1697A1902EB0900081AA0612078EE
:100D9000C00602D42046AFF30080002608E0D4E964
:100DA00001211AF806009047206A401C761C206238
:100DB0004E45F4DB2078C0060AD52046AFF300800C
:100DC00006E0D4E9012130209047206A401C2062CF
:100DD000381EA7F10107F4DC07E0D4E9012118F877
:100DE00005009047206A401C2062281EA5F10105DD
:100DF000F3DC2046AFF300802078000602D5022005
:100E0000BDE8F0870120FBE770472DE9FF4F0C4656
:100E10001E464FF0FF378BB0D2E90001DDF860804D
:100E20000A908A46C1F30A5505B93D460021084695
:100E30004FF00000BAF1000F00F4400005DA00EBBB
:100E400080004FF4400101EA50004FEA9059B9F197
:100E5000010F00DDB9460A9850EA4A000ED044F668
:100E60001050A5F2FF3545432F14B8F1000F1ED0E6
:100E70007542291E1EDDC9F100021CE0B8F1010F08
:100E80004FF0000001D0302103E0F24305E021548F
:100E9000401CB042FBDB30460022002121540B995C
:100EA000C1F80880C1E900200FB0BDE8F08FBD1B7C
:100EB0006D1CDEE74A4600DA694206A800F0D0FA67
:100EC00006AB93E8070003AB83E8070050460A9996
:100ED00000F063FB8DE80700A0F500501F3800907C
:100EE0000398002D09DD42F21F014A46084403A978
:100EF0000390684600F0C2FD08E0A0F500504A46A5
:100F00001F3803A90390684600F0CCFD8DE8070068
:100F10000004000C03D04FF0FF30410800E0104601
:100F2000B8F1000F03D00022009215461EE0751E96
:100F300005D4FFF7CBFE303262556D1EF9D5B346AE
:100F40000122084302D000227F1C04E020783028D0
:100F500001D100227F1E002A099786D01DE0112DA5
:100F600007DAFFF7B3FE303262556D1C50EA01021A
:100F7000F5D1084302D00098C8B10EE00021681EE8
:100F800005E0235C625C63542254401E491C81428C
:100F9000F7DBAB46A81B401E0990002004F80B00AD
:100FA0000B98099AC0F80880C0E9002B7CE711264D
:100FB0004FF0000859E72DE9F04F88460446D21D4E
:100FC00022F0070191B0D1E90001CDE90A010DF04D
:100FD00001FE02460B98C00F01D02D2007E02068CB
:100FE000810701D52B2002E0202101EAC000032A5D
:100FF000099001D0072A05DB03464146204600F050
:10100000EFF90BE12078800601D5E06900E00620C9
:10101000B8F1650F814606D0B8F1660F18D0B8F167
:10102000670F70D131E00020B9F1110F009001DBA2
:10103000112301E009F101030AAA01A90CA8FFF795
:10104000E4FEDDE90C70002609F10105834647E066
:1010500001204B4600904FF000470AAA01A90CA8B6
:10106000FFF7D3FEDDE90DB00C995D46002610B9FF
:1010700009F101000D18B9EB050003D4C0F1FF36EA
:1010800009F10105A5EB09002BE0B9F1010F01DA27
:101090004FF001090020B9F1110F0090484601DD21
:1010A000112300E003460AAA01A90CA8FFF7ADFE30
:1010B000DDE90C704D4600268346207800070AD4EF
:1010C000AB4500DA5D4601A8012D04DD411911F898
:1010D000011C302907D04F4502DA17F1040F04DA5A
:1010E000012082460FE06D1EEEE7002F02DCED1BB3
:1010F0003E4403E0781CA84200DD7D1CB81B00F1D3
:10110000010A4FF000472078000703D4AA4501DB0D
:101110004FF0FF3A0021B7F1004F0DF143088DF871
:10112000431024D002202B23002F01DA7F422D23ED
:101130000A21021EA0F1010000DC5FB197FBF1FC67
:1011400097FBF1F201FB1C7C17460CF1300C08F800
:1011500001CDEEE7A8F1010003702188090501D552
:10116000452100E06521A0F1010800F8011C099863
:101170000FA9A1EB0807FF1D00B10120411901EBE8
:10118000EA70A1693844081A401EA0612078C006A0
:1011900002D42046AFF30080099828B1D4E9012198
:1011A0009047206A401C20622078C00622D5204645
:1011B000AFF300801EE0002E04DBB34502DD01A882
:1011C000805D00E03020D4E901219047206A401C76
:1011D0002062761CAAF101005FEA000A0AD100F041
:1011E000FBF8C0680168405CD4E901219047206A9F
:1011F000401C2062281EA5F10105DCDC07E0D4E9D3
:10120000012118F8010B9047206A401C2062381E0B
:10121000A7F10107F3DC2046AFF30080032011B0F3
:1012200043E6000001694A1C02610878704700B576
:101230008FB0CDE901310021059105497944CDE90F
:10124000031011466846FFF7FBF90FB000BD000020
:10125000E5FFFFFF10B5436913B1AFF3008001E074
:10126000FFF74AF9012010BD127800F124010A703D
:1012700000224A700122EDE711684FF0FF32E9E7E2
:10128000074B70B50D467B44FFF7D1FF0446284657
:1012900000F054F910B14FF0FF3070BD204670BD22
:1012A0000FF6000010B5203AC0F00B80B1E81850DE
:1012B000203AA0E81850B1E81850A0E81850BFF440
:1012C000F5AF5FEA027C24BFB1E81850A0E81850DF
:1012D00044BF18C918C0BDE810405FEA827C24BF33
:1012E00051F8043B40F8043B08BF7047D20728BFC1
:1012F00031F8023B48BF11F8012B28BF20F8023B10
:1013000048BF00F8012B7047431A28BF9A427FF666
:10131000C9AF104410F0030F11441EBF11F8013D76
:10132000521E00F8013D10F0030F7FF4F6AF103AA3
:10133000C0F00A8010B531E91850103A20E9185071
:10134000BFF4F9AFBDE81040530724BF31E90810DE
:1013500020E9081044BF51F8043D40F8043D12F064
:10136000030F08BF7047D20728BF31F8023D48BFBE
:1013700011F8012C28BF20F8023D48BF00F8012CCD
:1013800070474FF0000200B5134694469646203948
:1013900022BFA0E80C50A0E80C50B1F12001BFF42E
:1013A000F7AF090728BFA0E80C5048BF0CC05DF894
:1013B00004EB890028BF40F8042B08BF704748BFE2
:1013C00020F8022B11F0804F18BF00F8012B704756
:1013D0000048704778DC04200048704798DC0420FF
:1013E0002DE9F0411F46044603260168072A01F44F
:1013F000006004DB08B116A505E016A503E008B1FE
:1014000015A500E015A521F010002060A069C01E00
:10141000A0610FB1401EA0612046AFF300804FB124
:10142000D4E9012138469047206A401C2062C01C44
:10143000206206E0206AFAE7D4E9012115F8010BE1
:101440009047761EF8D22046AFF30080BDE8F081C9
:101450004E414E006E616E00494E4600696E660058
:101460002DE9F047814616468AB0334878440DC8C6
:101470008DE80D0030487844801C03AC0DC884E82A
:101480000D0041F69B300844372190FBF1F290FBB0
:10149000F1F5A5F1800501FB12041B3C02D5644265
:1014A000012000E00020DFF890A080460027FA44E9
:1014B000AAF1BE0A0DE0E00709D03246684607EB04
:1014C00047010AEB810100F0EDFA8DE80700641096
:1014D0007F1C002CEFD1184F7F44AC3F18E0E80789
:1014E00014D007EB04100DF1180A90E80E008AE8FA
:1014F0000E00C068F04201D198190890324606A942
:1015000003A800F0CFFA03AB83E807006D10641C5A
:10151000002DE4D132466946B8F1000F03A802D08D
:1015200000F0ACFA01E000F0BDFAC9E90001C9F829
:1015300008200AB0BDE8F087E0D60100007B00F08B
:10154000800070477546FFF743FFAE4605006946C9
:10155000534620F00700854618B020B5FEF7E0FEA0
:10156000BDE820404FF000064FF000074FF00008A4
:101570004FF0000B21F00701AC46ACE8C009ACE825
:10158000C009ACE8C009ACE8C0098D467047044604
:10159000AFF300802046FEF79EFE5FEA400C08BFD6
:1015A00091F0000F4FEA8C234FEAC12243EA5151D8
:1015B0004FEA1C5018BF00F5F0404FEA300018BF4A
:1015C00041F000415FEA6C5C00F02980BCF1FF3F14
:1015D00008BF40F080407047130C06BF12044FF064
:1015E000100C4FF0000C130E04BF12020CF1080C8B
:1015F000130F04BF12010CF1040C930F04BF9200EF
:101600000CF1020CD30F04BF52000CF1010C114677
:101610004FF00002A0F11F00A0EB0C00704711F08A
:10162000004F08BF704731F000413FF4D5AF0B0CBD
:1016300006BF09044FF0100C4FF0000C0B0E04BF56
:1016400009020CF1080C0B0F04BF09010CF1040C8A
:101650008B0F04BF89000CF1020CCB0F04BF4900B3
:101660000CF1010CCCF12003A0EB0C0022FA03F3E7
:1016700002FA0CF241EA030100F10100704720F088
:101680007F4C80EA030023F07F47ACEB070303F5B0
:101690007C5300F0004003F1FF032DE980494FEA3D
:1016A000154B09B44FEA144325EA0B4E24EA0348CC
:1016B0000FF2042606EB132749083E785FEA320250
:1016C00003FB0667C7F5000707FB06F64FEA54372A
:1016D0004FEAD64606F1020607FB066CCCF1005C29
:1016E0004FEA1C472CEA074C07FB06F40CFB06F5F7
:1016F00004EB15464FEA961634BF00204FF0004029
:101700004FEAD13706FB07FC4FEA1C4C0CFB0BF7EA
:10171000D21B03FB0CF761EB07010CFB0EF7B0EBE0
:10172000074072EB17420CFB08F734BFA2EB0742ED
:10173000B2EB074261EB17414FEA0C444FEA9107C5
:1017400006FB07FC4FEA1C4C0CFB0BF7B0EBC74049
:1017500072EB573203FB0CF734BFA2EBC742B2EB7C
:10176000C74261EB57310CFB0EF7B0EBC70072EBD1
:1017700057720CFB08F734BFA2EBC702B2EBC702EB
:1017800061EB5771039F4FEA816141EA921104EBCB
:10179000CC044FEAD1374FEA826206FB07FC42EAEB
:1017A00090124FEA80604FEA1C4C0CFB0BF7D21BE7
:1017B00003FB0CF761EB07010CFB0EF7B0EB0740E6
:1017C00072EB17420CFB08F734BFA2EB0742B2EBF7
:1017D000074261EB17414FEA8C554FEA910704EB42
:1017E0009C2406FB07FC4FEA1C4C0CFB0BF7B0EBF0
:1017F000C74072EB573203FB0CF734BFA2EBC74272
:10180000B2EBC74261EB57310CFB0EF7B0EBC700F0
:1018100072EB57720CFB08F734BFA2EBC702B2EBB6
:10182000C70261EB577115EB4C254FEA816141EA24
:1018300092114FEA82624FEAD13742EA901206FBD8
:1018400007FC44F100044FEA80604FEA1C4C0CFB9B
:101850000BF7D21B03FB0CF761EB07010CFB0EF738
:10186000B0EB074072EB17420CFB08F734BFA2EB5A
:101870000742B2EB074261EB174115EB1C154FEA2B
:10188000813141EA92414FEA823242EA90424FEA84
:1018900080304FEA0C7644F1000448EA03434EEAF4
:1018A0000B484FF0000EB2EB080C71EB030724BF9E
:1018B000624639464EEB0E0E4FF0000B00185241B7
:1018C00049414BEB0B0BB2EB080C71EB03077BF1BF
:1018D000000B24BF624639464EEB0E0E4FF0000B54
:1018E0000018524149414BEB0B0BB2EB080C71EB6A
:1018F00003077BF1000B24BF624639464EEB0E0E08
:1019000051EA020718BF46F0010616EB0E7655F1B4
:10191000000254F1000103D5BDE88901BDE800884B
:10192000BDE88901BDE80048B619524141EB01010B
:10193000A3F10103704780807F7E7D7C7B7A79787C
:10194000777676757473727171706F6E6E6D6C6C84
:101950006B6A6A6968686766666564646363626126
:101960006160605F5F5E5E5D5D5C5C5B5B5A5A59A7
:101970005958585757565655555554545353525213
:101980005251515050504F4F4F4E4E4D4D4D4C4C6B
:101990004C4B4B4B4A4A4A494949484848474747B4
:1019A00047464646454545444444444343434342F1
:1019B000424242414141002B26D4770021D01CB540
:1019C0004FEA370703B44FF010004FF010014FF00B
:1019D00000000FBCBDE810400BF1010BBBF1010F83
:1019E00008BF5FEA170722BF12F1010211F10101DE
:1019F0004FF0004143F1000300F0004043EA0000D3
:101A00007047F9D35708DAE746EA064613F1400F64
:101A10004FEA16461FDD13F1200FDFBF16430A46BB
:101A2000002120335B42C8D0C3F1200746EA0646B6
:101A300002FA07F74FEA164646EA0706C3F12007FF
:101A400022FA03F201FA07F721FA03F14FF000033B
:101A500042EA0702B1E746EA020646EA06464FEACC
:101A6000164646EA0106BCBF46EA0646360C4FF06B
:101A700000034FF000024FF000019EE72DE9C0483F
:101A8000934630B491E8380007C831EA400C48BFAB
:101A900034EA430C03D5FFF7F2FDFFF78CFFF0BCEF
:101AA000BDE800882DE9C048934630B491E838007D
:101AB00007C810F0804F08BF13F0804F03D100F02B
:101AC00005F8FFF778FFF0BCBDE8008820F07F47FD
:101AD00080EA030023F07F4C07EB0C03A3F57C5353
:101AE00000F00040A3F1FE0392F0000F00F0B3807D
:101AF00095F0000F00F077802DE901494FEA114081
:101B00004FEA144621EA004800FB06FC24EA064797
:101B100008FB06F607FB08F800FB07F718EB06487A
:101B20004CEB164C4FEA124B18EB07484FEA1546A0
:101B30004CEB174022EA0B4E0BFB06FC25EA06474E
:101B40000EFB06F607FB0EFE0BFB07F71EEB064E21
:101B50004CEB164C4FF000061EEB074E4CEB174BB0
:101B600018EB0B0840F1000018EB0E0B58EB0008C7
:101B700040F100008F1A4FF000013CBFC943661BC3
:101B800014BFB5EB040C00213CBFC943F61B4FEA60
:101B900017444EEA8E0E27EA04454FEA1C4704FB21
:101BA00007622CEA074C05FB07F70CFB05F604FB64
:101BB0000CFC16EB074642EB174216EB0C4642EBC9
:101BC0001C421BEB060658EB0202414146EA9E0608
:101BD00001D5BDE80189B619524141EB0101A3F1DC
:101BE0000103BDE801894FEA14454FEA114724EA91
:101BF000054621EA074C05FB07F406FB07F70CFB3B
:101C000006F105FB0CFC11EB074144EB17444FEACE
:101C1000124711EB0C4144EB1C4422EA074C05FB34
:101C200007F206FB07F70CFB06F605FB0CFC16EBB0
:101C3000074642EB174216EB0C4642EB1C456A186E
:101C400054F1000148BF7047B619524141EB010100
:101C5000A3F10103704795F0000F37D04FEA11420E
:101C60004FEA144721EA024624EA074C02FB07F137
:101C700006FB07F70CFB06F402FB0CFC14EB074415
:101C800041EB17414FEA154714EB0C4441EB1C4163
:101C900025EA074C02FB07F506FB07F70CFB06F6E7
:101CA00002FB0CFC16EB074645EB174516EB0C4602
:101CB00045EB1C42121951F1000148BF7047B6199B
:101CC000524141EB0101A3F1010370474FEA144572
:101CD0004FEA114724EA054621EA074C05FB07F1C4
:101CE00006FB07F70CFB06F24FF0000605FB0CFCA9
:101CF00012EB074241EB174112EB0C4251EB1C4136
:101D000048BF7047921841EB0101A3F101037047EE
:101D1000EFF3098141B1F1EE101A40F8041D20EDF6
:101D2000200A3E490A6810607047B0EC200A02C8D9
:101D3000E1EE101A3A490A681060704772B64EF622
:101D40002250CEF2000040F2FF01C0F2000101700B
:101D50004FF0000080F3098809F0CAFF40F230100C
:101D6000C2F20200016881F3088840F2BA00C2F2B0
:101D7000020040F2BB01C2F202010A78027040F296
:101D80002815C2F2020540F22C11C2F202010A68C3
:101D90002A60106880F30988EFF3148040F0020095
:101DA00080F31488BFF36F8FBDE8F00F0FBCBDE860
:101DB000005006BC62B608471A484FF080510160D7
:101DC000704718484FF080510160704772B6EFF3CA
:101DD000098020E9F00F40F22815C2F202052E68B2
:101DE0003060744609F084FF40F2BA00C2F202008B
:101DF00040F2BB01C2F202010A78027040F22C11DB
:101E0000C2F202010A682A6044F0F40E1068B0E8D9
:101E1000F00F80F3098862B67047000028010220A5
:101E20002C01022004ED00E0FEE700002DE9F04166
:101E30001D4E0027776000F091F8378000257780ED
:101E4000B760F7607761B7613761FEF783FA002406
:101E5000804677613088401C3080708810B900F06F
:101E600095F8B0607088401C708000F057F8706979
:101E70000544601C0404240CEBD0C6E9045740461A
:101E8000B761FEF76BFAFEF765FA044600F036F824
:101E90000648102108F0F2FE00F040F82046BDE8A8
:101EA000F041FEF75BBA000054000220F41D02204E
:101EB00070B5FEF74FFA084D6C69FEF74FFA2869C6
:101EC00084428CBF241A0024FEF744FA0021696181
:101ED000FEF744FA204670BD5400022070B5FEF7AC
:101EE00039FA054DAC69FEF739FA286984428CBF8E
:101EF000201A002070BD00005400022010B5064CCE
:101F00002088401C2080608810B900F03FF8A06055
:101F10006088401C608010BD5400022010B50B4C3E
:101F20006088401E0004000C608018BF10BD00F0E7
:101F30002DF8E060A168401A6169814238BF606194
:101F4000A169814238BFA06110BD00005400022089
:101F500001494860704700005400022010B501F0AC
:101F60009FFF08490A6842F080720A600649002211
:101F70004A600A6842F001020A60BDE81040FFF7BB
:101F8000E7BF0000FCED00E0001000E00148406801
:101F900070470000001000E070B4BFF34F8FBFF334
:101FA0006F8F184900200860174D296841F40031EF
:101FB0002960BFF34F8FBFF36F8F14490860BFF3E1
:101FC0004F8F081F006843F6FF76114AC0F34E3C5E
:101FD000C0F3C90406EA4C11204641EA807313603D
:101FE000401EFAD2BCF1010CF4D2BFF34F8F286827
:101FF00040F480302860BFF34F8FBFF36F8F70BC09
:102000007047000050EF00E014ED00E084ED00E0C8
:1020100060EF00E010B5806B816C496D022906D03D
:10202000012180F83510C16C41F04001C16400F01D
:10203000A7FA10BD2DE9F84380462A489C460F4672
:10204000089B1646016841F4800101600068264C37
:1020500000F480000090A4F150008464A063226822
:10206000106820F0100010600025204820604FF01C
:102070000070C4E901054013E560C4E904300011B3
:10208000C4E906C040022062042060620120C4E965
:102090000A052046256300F017FC204600F056FC98
:1020A000134984F83450A7B13B4642462046009677
:1020B00000F0B9FB2068016841F0100101600322C3
:1020C0000221392001F042F8BDE8F843392001F03F
:1020D00030B801B0334642460348BDE8F04300F053
:1020E000E3BC000030380240F81B022028640240A4
:1020F00028000550014800F065BA0000A81B022026
:1021000010B5104C20210E4820600020C4E90101C8
:10211000E06020616061A061204600F0ABFA2068B9
:10212000C16821F01E01C1602068C16841F0010151
:10213000C1602068016841F48041016010BD000069
:1021400000000550A81B02200021084610B507F02A
:10215000A5FF08F0C1F906480068016841F00101D7
:1021600001600448016841F00101016010BD0000F8
:10217000F81B022000000550274870B5274B006867
:10218000DFF89CC0274C9842274A04D927490968A0
:1021900001F4006105E0604532D92549096801F480
:1021A0000061002908BF70BD4FF40061984288BFEC
:1021B000204803D8604588BF1F4828D901601F48C0
:1021C000406880471E4900200860BFF34F8F081FFA
:1021D000006843F6FF741B4AC0F34E3CC0F3C905C8
:1021E00004EA4C11284641EA80731360401EFAD27B
:1021F000BCF1010CF4D2BFF34F8FBFF36F8F70BDF2
:10220000A0428CBF5168116801F40061C9E7A04287
:102210008CBFD1609160D2E7F81B02205864024065
:10222000B86002405860024000600240046402400E
:10223000006402400C64024008640240380002203E
:1022400084ED00E074EF00E070470000B3F5804FCC
:1022500030B418BF6FF0704104D040F8221030BC89
:102260000020704750F82230DFF824C08D8903EA3F
:102270000C03D1E900C44CEA041C8C68896924026F
:1022800044EA05444CEA040C4CEA01011943E4E732
:102290000000F0CF70B4D1F800C050F82C201B4BD8
:1022A000D1E903561A40D1E9014335431C432C437D
:1022B0004D692C438D692C43CD692C430D6A2C4309
:1022C0004D6A2C438D6A2C43CD6A2C430D6B2C43F5
:1022D0008D6B2C434D6B2C432243082B08BF42F0DF
:1022E000400240F82C200A6BB2F5801F05D10A6825
:1022F0004AB1026842F4801202600A681AB10268A8
:10230000496B1143016070BC002070478004C0FF1E
:1023100000EB820270B453684FF07E46D1E900C4EE
:102320008D8903F040434CEA041C8C68240244EA83
:1023300005440D8A4CEA0404DFF834C00CEB055563
:102340002C430D7D06EB05652C438D692C432343FF
:102350005360026812F4801F07D04268098A22F491
:1023600070020CEB01511143416070BC00207047BA
:102370000000F0FF4DF8044DD1E901320C68134321
:10238000D1E903C24CEA02021A434B6913438A693A
:10239000012C046843EA020CCB690A6A496A08D036
:1023A0004CEA03031A4311436FF30E042143016007
:1023B0000BE024F4F8441A4321430A4341680260C5
:1023C0006FF30E014CEA010141605DF8044B0020FF
:1023D0007047426942EA4101416100207047F8B507
:1023E00014460546D1E900026FF01F0310438A68C6
:1023F000C96803EB421242EA412108430090286178
:1024000000F0B6FC0646A86910F0200F0ED0B4F11B
:10241000FF3F07D024B100F0ABFC801BA04201D9E4
:102420000320F8BDA86910F0200FF0D10020F8BDFE
:102430002DE9F001D1F804C06FF00F050B682C01F5
:102440005B1E05EB0C1C43EA0C03D1F808C04FEAF5
:102450000428270304EB0C2C43EA0C050B8A260402
:10246000CC68012A826808EB034C8B8A097E07EB53
:10247000035306EB01610DD0361306EB04342C43F5
:1024800044EA0C0C4CEA0303194302F07042114376
:10249000816012E0240322F47042A4F580542343A7
:1024A00022F470021A43C36845EA0C0C826003F000
:1024B00070434CEA01011943C160BDE8F0010020FE
:1024C0007047000030B413468C46044612F00700F3
:1024D00018BF012000EBD300217810FB03F0812905
:1024E000C2B2607828BF402825D3FF2818BFFF2933
:1024F00021D07F2834BF40384138C4B2A1F18100D7
:10250000C0B20C2BC0EB401101EB80101B4904EB57
:10251000400000FB02F01CD0102B21D0182B26D03D
:10252000202B1CBF30BC7047D1F8211001446046FD
:1025300030BC0CF0B3BA0023002A8EBF002030BCA0
:1025400070470CF8010B591CCBB29A42F9D830BC39
:102550007047D1F8091030BC014460460CF09EBAB7
:10256000D1F8111030BC014460460CF097BAD1F894
:10257000191030BC014460460CF090BAA0DB042076
:10258000704700000A48012110B501700021094878
:1025900001800121084800F0E2FB08480178491C4D
:1025A000017007480068C16841F00101C16010BDB9
:1025B0000000022002000220000402403800022035
:1025C000A81B02202DE9F0410446006805694FF080
:1025D0000406274F15F0040F0BD04661E06C40F065
:1025E0000200E06484F83560A06C0765A06C00F020
:1025F00058F915F0020F0DD0216802204861E06CF7
:1026000040F00100E06484F83560A06C0765A06CC0
:1026100000F047F915F0100F05D02168102048612F
:10262000204600F085F815F0080F05D02168082035
:102630004861204600F0F6F815F0010F08BFBDE82C
:10264000F0812068016811F0020F03D0C16821F009
:102650001E01C1602068C16821F00101C1602168CC
:10266000012048612046FFF78DFFBDE8F0810000A2
:1026700015200008002804BF0120704710B504464B
:1026800090F83500002804BF204600F053F80220DF
:1026900084F8350020680168244A114001606169AE
:1026A00060680843D4E9031211430843A168084352
:1026B000A1690843216A0843616A0843A16A084383
:1026C000E16A0843216B01432068026811430160FD
:1026D000606810281DD14FF47F42617F207F4FF04A
:1026E0007F4392FAA2F293FAA3F3B2FA82F2B3FA18
:1026F00083F391404FF47F020843A17F92FAA2F244
:10270000B2FA82F29140E27F9A4011430843216875
:1027100088612068C16841F01E01C1600020E0644A
:10272000012084F83500002010BD000007F0E0FF14
:102730007047000034484DF804ED87B0016841F05F
:1027400001010160006800F0010005902F48016858
:1027500041F001010160016801F00101059101688A
:1027600041F002010160016801F002010591016878
:1027700041F004010160016801F004010591016864
:1027800041F008010160016801F00801059101684C
:1027900041F0800101600068694600F0800005900A
:1027A000402000900220019001200290032003901D
:1027B0000D200490164800F0B5F94FF460700090B9
:1027C0001448694600F0AEF94FF43C60009012489E
:1027D000694600F0A7F9082000901048694600F00B
:1027E000A1F94FF4807000900D48694600F09AF905
:1027F00002224E20114600F0A9FC4E2000F099FC68
:1028000007B05DF804FB0000343802403038024065
:10281000000002400004024000080240000C024098
:10282000001C0240704770B484684FF0000C039D98
:10283000802C13D090F83440012C02BF022070BCD1
:102840007047012480F8344090F83540012C18BFBF
:102850004FF0020C08D070BC604670474FF4807196
:1028600041654FF0010CF6E7022480F8354004681A
:10287000266846F4802626600468236103685D604C
:102880008368402B036803BF9A600268D160996037
:102890001CBF0168CA600068016841F00101016065
:1028A000D9E790F83510022903D080214165012035
:1028B0007047052180F835100068016821F001019A
:1028C0000160002070470000002804BF012070470D
:1028D00090F83510022904BF0220704701680A6889
:1028E00022F001020A6001684FF0000CC1F800C03C
:1028F0000168C1F804C00168C1F808C00168C1F8E6
:102900000CC00168C1F810C0212102685161016842
:102910000C4BCAB2103A6FF30901A3FB02320A4B07
:102920001209032A9B5CC36588BF091D3F2281658C
:102930009A408A60C0F854C080F835C080F834C02E
:1029400000207047ABAAAAAABA88010870B504464D
:1029500000F00EFA002C054604BF012070BD0026D1
:10296000022084F8346084F835002068016821F082
:10297000010101602068006810F0010F0FD000F025
:10298000F7F9401B052805D920206065032084F84D
:10299000350070BD2068006810F0010FEFD121688C
:1029A00008683E4A1040D4E901231A43D4E9033CA5
:1029B00043EA0C031A4363691A43A3691A43E369A0
:1029C0001A43236A1A431043626A042A03D1D4E9E2
:1029D0000B231A4310430860236858694FF0010C19
:1029E00020F00701606A014304283ED1A06AA26971
:1029F000014352B1B2F5005F1CD000281CBF012872
:102A000002282CD0032826D02FE020B1012807D09F
:102A100002280AD029E0E06A10F0807F1FD124E06C
:102A2000E06AB0F1C07F20D119E0E06A10F0807F49
:102A300015D11AE098B1012808D002280FD0032838
:102A400004BFE06AB0F1C07F09D00EE0E06A10F088
:102A5000807F04D109E0E06A10F0807F05D040203B
:102A6000606584F835C0012070BD596120680C4A4A
:102A7000C1B210396FF30900A2FB0121094A09090B
:102A80000329525CE26588BF001D3F21A06591408B
:102A90008160666584F835C0002070BD3F8010E01D
:102AA000ABAAAAAABA88010830B490F834C00024AE
:102AB000BCF1010F02BF022030BC70474FF0010C87
:102AC00080F834C090F835504FF0000C012D1CBF39
:102AD00080F834C0022402D0204630BC7047022562
:102AE00080F83550C0F854C0D0F800C0DCF8005071
:102AF00025F48025CCF80050D0F800C0CCF8043084
:102B00008368402B036803BF9A600268D1609960B4
:102B10001CBF0168CA600068016841F001010160E2
:102B2000DAE700002DE9F84FDFF81C920022DFF809
:102B300014820F2709F1040A4FF0010E0B680EFAF8
:102B400002F52B40AB4240F0F780D1F804C0BCF155
:102B5000020F18BFBCF1120F12D14FEAD20C00EBDA
:102B60008C0CDCF820605407E40E07FA04FB26EA1C
:102B70000B06D1F810B00BFA04F43443CCF8204023
:102B800006684FEA420C91F804B003240BF0030BE3
:102B900004FA0CF4A6430BFA0CFB4BEA060606609B
:102BA0004E68012E18BF022E03D0112E18BF122E10
:102BB00011D18668D1F80CB0A6430BFA0CFB4BEA96
:102BC00006068660466826EA05050E79C6F30016F5
:102BD000964035434560C56825EA04048D6805FACA
:102BE0000CFC4CEA040CC0F80CC0D1F804C01CF07A
:102BF000805F7CD0D8F800C04CF4804CC8F800C08E
:102C0000D8F800C00CF4804CCDF800C022F0030CC2
:102C10000CF1804505F59835D5F808C89407240FC0
:102C200007FA04F62CEA0606A0F1804CBCF5003C3D
:102C300048D0A0F1804CBCF5013C08BF4FF0010C1E
:102C400040D0A0F1804CBCF5023C08BF4FF0020C14
:102C500038D0A0F1804CBCF5033C08BF4FF0030C0A
:102C600030D0A0F1804CBCF5043C08BF4FF0040C00
:102C700028D0A0F1804CBCF5053C08BF4FF0050CF6
:102C800020D0A0F1804CBCF5063C08BF4FF0060CEC
:102C900018D0A0F1804CBCF5073C08BF4FF0070CE2
:102CA00010D0A0F1804CBCF5083C08BF4FF0080CD8
:102CB00008D0A0F1804CBCF5093C0CBF4FF0090CCA
:102CC0004FF00A0C0CFA04FC4CEA060CC5F808C8D4
:102CD000D9F800C04C682CEA030C14F4803F18BFEC
:102CE0004CEA030CC9F800C0DAF800C000E023E0A9
:102CF0004C682CEA030C14F4003F18BF4CEA030C98
:102D0000CAF800C0114CD4F800C04D682CEA030C7E
:102D100015F4801F18BF4CEA030CC4F800C00C4C1B
:102D2000D4F800C04D682CEA030C15F4001F18BF3E
:102D30004CEA030CC4F800C0521C102AFFF4FEAE8B
:102D4000BDE8F88F44380240003C0140083C014097
:102D50000C3C01400069084018BF012070474269DF
:102D6000514041617047002A08BF090481617047E2
:102D700001480068704700002400022002480168F2
:102D8000491C01607047000024000220074810B56C
:102D9000016841F400710160052000F009FA0F207C
:102DA00000F006F800F0C4F9002010BD003C02401D
:102DB00010B5044607484FF47A720068B0FBF2F091
:102DC00001F002FC00222146501E00F0BFF9002055
:102DD00010BD0000200002202DE9F05F044690F8AD
:102DE000A000012804BF0220BDE8F09F01250220B9
:102DF00084F8A05084F8A10002EB820000EBC2002E
:102E000004EB8003B1E8C11F3833A3E8C11F91E888
:102E1000C111203983E8C111204607F011FE206856
:102E2000456284F8A150002084F8A000BDE8F09F1E
:102E3000002804BF0120704770B5044690F8A10037
:102E4000002520B9204684F8A05000F077F8022031
:102E500084F8A1002068816921F070418161D4E982
:102E600001010843D4E90312114301432068826938
:102E700011438161206882682F490A408260A08ADC
:102E8000020420688368D4F818C043EA0C031A438C
:102E900082602068C2680A40C260A08B0204206879
:102EA000C368D4F820C043EA0C031A43C260206808
:102EB00002690A400261A08C020420680369D4F808
:102EC00028C043EA0C031A4302612068426911409A
:102ED0004161A08D010420684269236B1A431143AC
:102EE000416194F83500020294F83600010420682C
:102EF000C36A03F07F43C3622068C36A114394F836
:102F000034C043EA0C031943C1622068416B41F0AD
:102F1000040141632068416B41F002014163206874
:102F2000816941F001018161C4F8A450012084F855
:102F3000A100002070BD000000F800F0354810B579
:102F400086B0016841F080610160006800F0806037
:102F500005903148016841F400010160016801F405
:102F600000010591016841F002010160016801F072
:102F700002010591016841F020010160016801F042
:102F800020010591016841F040010160016801F0F4
:102F900040010591016841F080010160016801F084
:102FA00080010591016841F480710160006803248B
:102FB000694600F480700590202000900120019067
:102FC000CDE902041548FFF7ADFD4FF48060009095
:102FD0000220019000206946CDE902040E200490F1
:102FE0000F48FFF79FFD4FF40C6000900D486946B5
:102FF000FFF798FD4FF47E4000900B486946FFF7BD
:1030000091FD40F2F760009008486946FFF78AFD9D
:1030100006B010BD4438024030380240000402407F
:103020000014024000180240001C02400020024030
:1030300070B5044690F8A0008C46012804BF022019
:1030400070BD0125022084F8A05084F8A10003EB94
:10305000830000EBC30004EB800000F13801C0F8EE
:1030600038C0006E6044C1E90102C86A10441A46C3
:10307000C860204607F0E4FC2068456284F8A1504F
:10308000002084F8A00070BD70B5044690F8A00040
:103090008C46012804BF022070BD0125022084F85F
:1030A000A05084F8A10003EB830000EBC3000026CE
:1030B00004EB800000F138012046C1E9006CC1E951
:1030C0000262C1E90AC21A4607F0BAFC20684562EA
:1030D00084F8A150002084F8A06070BD134A4178A4
:1030E0001160111D03780A1D002B04BF0020086029
:1030F0001AD043680B60017BC37A090741EA036178
:10310000837A41EAC341437B41EA8341837B41EABD
:103110004341C37B41EA0341437A41EA0321037AF5
:10312000007841EA430108431060704798ED00E0E1
:103130007047012200F01F0102FA01F140098000EE
:1031400000F1E020C0F8001170470000174B4DF867
:10315000044D1B68C3F30223C3F1070CBCF1040F39
:1031600088BF4FF0040C1C1D072C34BF0023DB1E4E
:10317000012404FA0CFCACF1010C0CEA01019940A9
:1031800004FA03F35B1E1A40114300284FEA0111B1
:10319000B8BF00F00F0000F1E020B4BF80F8141DAC
:1031A00080F800145DF8044B704700000CED00E05F
:1031B000074A00F0070011684FF6FF03194041EA83
:1031C000002040F0FD7040F080601060704700000B
:1031D0000CED00E01C4838B5016841F080510160F9
:1031E00000681A4C00F080500090206840F4803055
:1031F0002060FFF7BDFD0546606810F4803F09D1EF
:10320000FFF7B6FD401BB0F57A7F14D8606810F464
:10321000803FF5D0206840F400302060FFF7A8FD23
:103220000546606810F4003F0BD1FFF7A1FD401B7D
:10323000B0F57A7F01D9032038BD606810F4003FF3
:10324000F3D0002038BD000040380240007000403C
:103250002DE9F84F16468A460446FFF789FD834656
:1032600094F83800012804BF0220BDE8F88F012738
:1032700084F8387094F839004FF00008012818BF1E
:10328000022504D084F838802846BDE8F88FC4F8B9
:103290003C804FF0020984F83990002220215B46DF
:1032A000204600960AF0D4FD0500EBD100225146DD
:1032B00020460AF047FCDAF82400002818BF84F8FA
:1032C0003970DFD101225B460221204600960AF0C8
:1032D000BFFD0500D6D12068C0F80C9084F8397085
:1032E000D0E70000F8B50446FFF742FD002C074682
:1032F00004BF0120F8BD94F83800012804BF022063
:10330000F8BD012684F8386094F83900002538B9F2
:1033100084F83850204600F045F841F288302064A7
:10332000206801686FF0FF03A26821F4F85103EBF5
:10333000022211430160206C002220213B460090B4
:1033400020460AF085FD010026D1E269E068237974
:103350001043226A42EA036202432068036823F0B2
:10336000D00323F07F431A430260D4E905020243ED
:1033700020684368DFF828C003EA0C03B4F810C0E3
:1033800043EA0C431A4342602068026842F001029B
:103390000260E56384F8396084F838500846F8BD67
:1033A000FEF8E0FF224830B587B0016841F0020125
:1033B0000160006800F0020005901E48016841F0BD
:1033C00002010160016801F002010591016841F00C
:1033D0002001016000680324174D694600F02000B9
:1033E000059040200090022001900120CDE90204C8
:1033F0000A2004902846FFF795FB21020091002146
:10340000CDE902140D4C69462046FFF78BFB0421E1
:1034100000910921284604916946FFF783FBC020EB
:10342000694600902046FFF77DFB07B030BD0000E5
:103430003838024030380240000402400014024094
:103440002DE9F84F15468A460446FFF791FC814660
:103450002068816900F1200694F83820012A04BF11
:103460000220BDE8F88F012784F8387094F83920DD
:103470004FF00008012A18BF022003D084F83880DA
:10348000BDE8F88FC4F83C80BAF1000F35D0222295
:1034900084F839200269521C62860269521C228615
:1034A000C4F82CA0426922F0406242F0806242617E
:1034B00020688161608E90B101224B460621204632
:1034C00000950AF0C5FCA8B93178E06A421CE262B6
:1034D0000170608E401E6086608E0028ECD1012253
:1034E0004B460221204600950AF0B2FC10B9226832
:1034F0000221D16084F83970C0E7E06B40F0080029
:10350000E0630120BAE72DE9F84F15468A460446E4
:10351000FFF72EFC8146206894F8381000F1200651
:10352000012904BF0220BDE8F88F012784F8387014
:1035300094F839104FF00008012918BF022003D079
:1035400084F83880BDE8F88FC4F83C80BAF1000FE9
:1035500031D0122184F839100169491C6185016953
:10356000491C2185C4F824A0416921F040614161D2
:10357000608D90B101224B460421204600950AF04F
:1035800067FCA8B9606A411C616200783070608D88
:10359000401E6085608D0028ECD101224B4602213F
:1035A000204600950AF054FC10B922680221D1602F
:1035B00084F83970C4E7E06B40F00800E063012054
:1035C000BEE700002DE9F84F04460078DFF82C94A0
:1035D0004FF0000B10F0010F5D4610D0D9F800003D
:1035E00020F40000C9F80000D9F80000616B08431E
:1035F000C9F80000606B002808BF4FF0010B20687D
:10360000FF4E10F4002F0FD03068E16B20F4401013
:1036100008433060E06BB0F5801F08BF4FF0010B2E
:1036200002D0002808BF0125206810F4801F0FD0A9
:103630003068216C20F4400008433060206CB0F505
:10364000800F08BF4FF0010B02D0002808BF0125F2
:10365000206810F0807F18BF4FF0010B10F0200F92
:1036600071D0E848016841F0805101600068DFF8DE
:10367000988300F080500090D8F8000040F48070EB
:10368000C8F80000FFF774FB0746D8F8000010F4F4
:10369000807F0AD1FFF76CFBC01B642800F23083E7
:1036A000D8F8000010F4807FF4D0DFF86083D8F8F9
:1036B000000010F4407031D0218E01F4407181423D
:1036C0002CD0D8F80000D8F8001020F4407041F455
:1036D0008031C8F80010D8F8001021F48031C8F803
:1036E0000010C8F80000D8F8000010F0010F15D045
:1036F000FFF73EFB0746D8F8000010F0020F08BFA6
:1037000041F2883A0AD1FFF733FBC01B504500F263
:10371000F782D8F8000010F0020FF4D0206B4FF4BD
:10372000407181431CBFD9F8000020F4F81000F06C
:10373000EE80C9F80000D8F80000218EC1F30B011B
:103740000843C8F80000207810F0100F07D0306848
:1037500020F0807030603068A16B084330602088B2
:1037600010F4804FAA4805D00168626E21F4403100
:1037700011430160218811F4004F05D00168A26E49
:1037800021F4402111430160216811F4803F05D0EC
:103790000168E26E21F4401111430160216811F4C7
:1037A000003F05D00168226F21F440011143016000
:1037B000217811F0400F05D00168626C21F00301FF
:1037C00011430160217811F0800F05D00168A26CCF
:1037D00021F00C0111430160218811F4807F05D094
:1037E0000168E26C21F0300111430160218811F47D
:1037F000007F05D00168226D21F0C00111430160F6
:10380000218811F4806F05D00168626D21F4407148
:1038100011430160218811F4006F05D00168A26D89
:1038200021F4406111430160218811F4805F05D0CB
:103830000168E26D21F4405111430160218811F4C7
:10384000005F05D00168226E21F440411143016000
:10385000216811F4800F05D00168A26F21F080610A
:1038600011430160216811F4001F0AD00168E26F62
:1038700021F0006111430160E16FB1F1006F08BFF9
:103880000125216811F0080F18BF012511F4802FC0
:1038900005D00168626F21F0407111430160216819
:1038A00011F4000F06D00168D4F8802021F0805177
:1038B00011430160216811F0806F06D00168D4F8CF
:1038C000842021F0005111430160206810F0006F46
:1038D00006D03068D4F8881020F0007008433060BB
:1038E000206810F0805F06D03068D4F88C1020F08B
:1038F000806008433060BBF1000F47F6C07A4FF498
:1039000040374FF070684FF0E0490ED109E0D9F828
:10391000001020F4407020F0704021F4F8110843AA
:1039200007E72068B0F1007F67D13A48006820F0CF
:10393000806138480160FFF71BFA8346354800680C
:1039400010F0006F0BD0FFF713FAA0EB0B00642808
:1039500000F2D6812F48006810F0006FF3D1207874
:1039600010F0010F2C482DD0616B59BB016897FAFC
:10397000A7F201F44031B2FA82F2D140026898FA1B
:10398000A8F39AFAAAFC02F07062B3FA83F3BCFAC5
:103990008CFCDA40636803FA0CF397FAA7FCBCFAD4
:1039A0008CFC01FA0CF1194398FAA8F3B3FA83F3EB
:1039B0009A4099FAA9F30A43A168B3FA83F39940AC
:1039C00011430160216811F4002F03D0E26BB2F5BE
:1039D000801F06D011F4801F49D0216CB1F5800FF3
:1039E00045D1016897FAA7F201F44031B2FA82F2A8
:1039F000D140026802F0E04210E0A5E00838024041
:103A00008C3802404038024000700040703802405C
:103A100090380240003802408438024099FAA9F3F5
:103A20009AFAAAFCB3FA83F3BCFA8CFCDA40636816
:103A300003FA0CF397FAA7FCBCFA8CFC01FA0CF120
:103A400098FAA8FC1943E368BCFA8CFC03FA0CF35F
:103A5000194399FAA9F3B3FA83F39A401143016029
:103A60003168626A21F01F01521E114331602168E2
:103A700011F0807F2ED0016898FAA8F201F07061F1
:103A8000B2FA82F2D140026899FAA9F39AFAAAFC32
:103A900002F0E042B3FA83F3BCFA8CFCDA406368CC
:103AA00097FAA7FBBBFA8BFB03FA0CF3D4F810C010
:103AB0000CFA0BFC43EA0C0398FAA8FCBCFA8CFC49
:103AC00001FA0CF1194399FAA9F3B3FA83F39A4076
:103AD00011430160216811F0007F1CD09AFAAAF20C
:103AE000616897FAA7F3B2FA82F2B3FA83F301FAA4
:103AF00002F22169994098FAA8F31143E268B3FAF7
:103B000083F39A4099FAA9F31143A268B3FA83F3B5
:103B10009A40114301607F48006840F080617D4811
:103B20000160FFF725F983467A48006810F0006FBE
:103B30000AD1FFF71DF9A0EB0B0064287DD875486A
:103B4000006810F0006FF4D0002D77D0714D286818
:103B500020F080502860FFF70BF98346286810F0AA
:103B6000005F09D0FFF704F9A0EB0B00642864D8CC
:103B7000286810F0005FF5D12068DFF89CC110F4D0
:103B8000002F01D0E16B21B110F4801F38D0206CE0
:103B9000B0BBDCF8000097FAA7F100F44030B1FAAE
:103BA00081F1C840DCF8001099FAA9F29AFAAAF358
:103BB00001F0E041B2FA82F2B3FA83F3D1406269D4
:103BC0009A4097FAA7F3B3FA83F3984098FAA8F3C8
:103BD0001043A269B3FA83F39A40104399FAA9F209
:103BE000B2FA82F291400843CCF8000030686FF0DE
:103BF000FF02A16A20F4F85002EB01210843306073
:103C0000206810F4001F34D0E06FB0F1006F30D1A5
:103C1000DCF8000098FAA8F100F07060B1FA81F1C8
:103C2000C840DCF8001099FAA9F29AFAAAF301F058
:103C3000E041B2FA82F2D14001E061E067E06269FE
:103C4000B3FA83F397FAA7FB9A40236ABBFA8BFB7C
:103C500003FA0BF31A4398FAA8F3B3FA83F39840E4
:103C6000104399FAA9F2B2FA82F291400843CCF8D3
:103C70000000207810F0080F32D0DCF8000098FA2D
:103C8000A8F100F07060B1FA81F1C840DCF80010D2
:103C900097FAA7F29AFAAAF301F44031B2FA82F243
:103CA000B3FA83F3D14062699A4097FAA7F3B3FA63
:103CB00083F39940114398FAA8F2B2FA82F2904045
:103CC00099FAA9F20843E169B2FA82F291400843F5
:103CD000CCF800003068E16A20F4403008433060DE
:103CE000286840F080502860FFF742F804462868B2
:103CF00010F0005F0BD1FFF73BF8001B642802D9DE
:103D00000320BDE8F88F286810F0005FF3D0002092
:103D1000BDE8F88F00380240883802402DE9F047AE
:103D2000DFF8688104460D46D8F8000000F00F0067
:103D3000A8420CD2D8F8000020F00F002843C8F8A1
:103D40000000D8F8000000F00F00A84270D12078E1
:103D50004F4F10F0020F05D03868A16820F0F00036
:103D600008433860207810F0010F4ED06068494950
:103D7000012820D00968022822D011F0020F57D064
:103D8000396821F0030108433860FEF7F1FF064669
:103D9000606841F28839012816D00228386800F09E
:103DA0000C0021D0F8B1FEF7E3FF801B484528D96D
:103DB0000320BDE8F087096811F4003FE0D137E047
:103DC00011F0007FDCD133E0386800F00C000428EB
:103DD0001BD0FEF7CDFF801B4845E9D8386800F0BE
:103DE0000C000428F5D110E008280ED0FEF7C0FF23
:103DF000801B4845DCD8386800F00C000828F5D155
:103E000003E0386810F00C0FCDD1D8F8000000F0B6
:103E10000F00A8420FD9D8F8000020F00F00284367
:103E2000C8F80000D8F8000000F00F00A84202D047
:103E30000120BDE8F087207810F0040F05D0386825
:103E4000E16820F4E05008433860207810F0080F53
:103E500006D03868216920F4604040EAC10038602B
:103E600000F054F83968F02292FAA2F201F0F00161
:103E7000B2FA82F2D140084A515CC8400749086052
:103E80000F20FEF795FF0020BDE8F087003C0240C0
:103E90000838024000380240A288010820000220B1
:103EA00001480068704700002000022008480949C6
:103EB000006809684FF4E05292FAA2F201F4E0516E
:103EC000B2FA82F2D140044A515CC8407047000007
:103ED0002000022008380240B28801080848094939
:103EE000006809684FF4604292FAA2F201F460415E
:103EF000B2FA82F2D140044A515CC84070470000D7
:103F00002000022008380240B288010821480068D9
:103F100010F00C01204808BF7047DFF880C004296A
:103F200004BF60467047082918BF70474DF8044D1C
:103F30001B4A1168136801F03F0113F4800F47F624
:103F4000C0730BD0BCFBF1F01168194093FAA3F3D6
:103F5000B3FA83F3D94000FB01F00AE0B0FBF1F0C3
:103F60001168194093FAA3F3B3FA83F3D94000FB25
:103F700001F011684FF440325DF8044B92FAA2F25E
:103F800001F44031B2FA82F2D140491C4900B0FB41
:103F9000F1F07047083802400024F40040787D01B9
:103FA000043802402DE9F84FDFF8A8830446007872
:103FB000A8F1040710F0010FA7F104055AD0D8F8B2
:103FC000000000F00C00042809D0D8F8000000F030
:103FD0000C0008280CD1386810F4800F08D028682D
:103FE00010F4003F46D06068002800F0AF8141E047
:103FF0006068B0F5803F04BF286840F480300AD084
:1040000010B1B0F5A02F11D0286820F480302860BE
:10401000286820F4802028606068D0B1FEF7A8FEF0
:104020000646286810F4003F08D023E0286840F4D2
:1040300080202860286840F48030ECE7FEF798FE86
:10404000801B642800F22581286810F4003FF5D019
:1040500010E0FEF78DFE0646286810F4003F09D0F8
:10406000FEF786FE801B642800F21381286810F496
:10407000003FF5D1207810F0020F50D0D8F80000A2
:104080004FF0F80910F00C0F18D0D8F8000000F02D
:104090000C00082804BF386810F4800F0ED0E068C8
:1040A0000028286828D040F001002860FEF760FE54
:1040B0000646286810F0020F09D011E0286810F0B9
:1040C000020F1CBFE06801280AD000F03FB9FEF7DC
:1040D0004FFE801B02287DD8286810F0020FF6D012
:1040E000286899FAA9F22169B2FA82F220F0F80060
:1040F00091400843286012E020F001002860FEF79C
:1041000037FE0646286810F0020F08D0FEF730FE92
:10411000801B02285ED8286810F0020FF6D12078A4
:1041200010F0080F33D0DFF8309260690028D9F81A
:10413000000016D040F00100C9F80000FEF718FE9C
:104140000646D9F8000010F0020F20D1FEF710FE4D
:10415000801B02283ED8D9F8000010F0020FF5D0DD
:1041600015E020F00100C9F80000FEF701FE064648
:10417000D9F8000010F0020F09D0FEF7F9FD801BFE
:10418000022827D8D9F8000010F0020FF5D12078C6
:1041900010F0040F63D07148016841F08051016054
:1041A00000686F4E00F080500090306840F48070DE
:1041B0003060FEF7DDFD8146306810F4807F0BD162
:1041C000FEF7D6FDA0EB0900642862D8306810F431
:1041D000807F00E05DE0F3D0A068624E012804BF5C
:1041E000306840F0010009D008B1052813D03068CC
:1041F00020F001003060306820F004003060A068DA
:1042000041F2883AD0B1FEF7B3FD8146306810F034
:10421000020F08D023E0306840F0040030603068BE
:1042200040F00100EAE7FEF7A3FDA0EB09005045CE
:104230002FD8306810F0020FF5D010E0FEF798FD8F
:104240008146306810F0020F09D0FEF791FDA0EB17
:10425000090050451DD8306810F0020FF5D1A06953
:10426000E8B3D8F8001001F00C0108296ED002283C
:10427000286820F0807028600ED0FEF779FD044693
:10428000286810F0007F5ED0FEF772FD001B022848
:1042900055D90320BDE8F88FFEF76AFD0646286869
:1042A00010F0007F08D0FEF763FD801B0228F0D8D5
:1042B000286810F0007FF6D1D4E9070147F6C072F4
:1042C0004FF0FF3392FAA2F20843616AB2FA82F227
:1042D0009140A26A03EB52024FF4403300E032E017
:1042E00093FAA3F3B3FA83F39A4011434FF0706249
:1042F0000843E16A92FAA2F2B2FA82F291404FF0D8
:10430000E0420843216B92FAA2F2B2FA82F29140A3
:1043100008433860286840F080702860FEF728FD68
:104320000446286810F0007F0DD1FEF721FD001B28
:104330000228AED8286810F0007FF6D003E0286885
:1043400010F0007FA0D10020BDE8F88F0120BDE86B
:10435000F88F0000083802407438024040380240AC
:104360000070004070380240002804BF01207047F0
:1043700070B5044690F82C000D4628B9002084F84A
:104380002D00204600F012F8022084F82C0020684E
:10439000211DFDF7EFFFD4E900022946FEF748F89A
:1043A000012084F82C00002070BD000030484DF83A
:1043B00004ED87B0016841F001010160006800F080
:1043C000010005902B48016841F00401016001687B
:1043D00001F004010591016841F0080101600168E4
:1043E00001F008010591016841F0100101600168C8
:1043F00001F010010591016841F0200101600168A0
:1044000001F020010591016841F040010160006860
:10441000694600F0400005900D20009002200190B8
:1044200001200290032003900C2004901248FEF714
:1044300079FB4CF20370009010486946FEF772FB5E
:104440004FF6837000900E486946FEF76BFB4FF6FF
:104450003F0000900B486946FEF764FB48F23710B6
:10446000009009486946FEF75DFB07B05DF804FB64
:10447000383802403038024000080240000C024048
:1044800000100240001402400018024010B504461B
:1044900090F82C00022808BF10BD022084F82C00E0
:1044A0002068FDF796FF012084F82C00002010BD45
:1044B00070B5044690F82C000D46022808BF70BD68
:1044C000022084F82C002068FDF789FF2868022864
:1044D0000CBF0520012084F82C00002070BD0028AE
:1044E00004BF0120704770B5044690F8450015469A
:1044F0000E4628B9002084F84400204600F01AF83F
:10450000206804F10801FDF7C5FEA2683146206865
:10451000FDF7FEFEE36A2946D4E90102FDF796FEA7
:10452000A168206850F8212042F0010240F82120C3
:10453000002070BD1A484DF804ED87B0016841F0C5
:1045400001010160006800F0010005901548016854
:1045500041F008010160016801F00801059101685E
:1045600041F0100101600068694600F010000590FC
:104570004EF2B370009002200190012002900320BF
:1045800003900C2004900848FEF7CCFA4FF6807098
:10459000009006486946FEF7C5FA07B05DF804FBCF
:1045A0003838024030380240000C0240001002400F
:1045B0004FF0E021042808690CBF40F0040020F00F
:1045C0000400086170470000401EB0F1807F24BFE6
:1045D000012070474FF0E0214861F020044A82F842
:1045E000140D00208861072008610020704700003A
:1045F0000FE000E0704790F8691090F86A000843F7
:104600007047000070B501680446C8690A688B6885
:1046100010F00F0F4FF0200551D040F2011C13EAAB
:104620000C0F7DD010F0010F18BF12F4807F07D05F
:104630004FF0010CC1F820C0E16E41F00101E166CC
:1046400010F0020F18BF13F0010F08D0D4F800C00B
:104650000221CCF82010E16E41F00401E16610F077
:10466000040F18BF13F0010F08D0D4F800C00421C4
:10467000CCF82010E16E41F00201E16610F0080F65
:104680000CD002F0200103F00103194306D0236887
:1046900008211962E16E41F00801E166E16E00292E
:1046A00008BF70BD10F0200F1EBF12F0200F204673
:1046B00009F09DFFE06E10F0080F10D10AE010F035
:1046C000200F18BF12F0200F39D02046BDE87040EF
:1046D00009F08DBF2068806810F0400F29D0206855
:1046E000016821F4907101602068816821F0010166
:1046F000816084F86A502068816811F0400F14D0FE
:10470000816821F040018160606E70B12D490165C2
:10471000606EFEF7C6F8002808BF70BD606E00E04E
:104720000DE0016DBDE8704008472046FFF762FFCD
:1047300070BD2046FFF75EFF0020E06670BD10F000
:10474000800F18BF12F0800F2CD094F86900212838
:1047500018BF70BDB4F8520090B1A068B0F5805F8A
:1047600004BF20690028E06C14D0411CE16421687A
:1047700000788862B4F85200401EA4F8520070BD60
:10478000086820F0800008602068016841F040015E
:10479000016070BD0088C0F308008862E06C801C76
:1047A000E064E7E710F0400F14BF12F0400F70BD57
:1047B00020460A6822F040020A6084F8695000F03E
:1047C0000BF970BDDBE50008002804BF012070472D
:1047D00010B5044690F8690028B9002084F86800F4
:1047E000204600F029F8242084F869002068016838
:1047F00021F001010160204609F038FF012808BFBF
:1048000010BD606A00281CBF204609F049FE2068E0
:10481000416821F4904141602068816821F02A01BB
:1048200081602068016841F0010101602046BDE817
:10483000104009F0A2BE000010B5006886B0A0F1DB
:104840008041B1F588311CBF06B010BD1848016821
:1048500041F001010160006800F001000590154879
:10486000016841F01001016000680121124C00F064
:10487000100005904FF4007000900220CDE9010176
:1048800003900720694604902046FEF74BF9211556
:10489000204600916946FEF745F92520FEF749FCC0
:1048A000032225201146FEF751FC06B010BD000082
:1048B00030380240443802400000024090F86A302C
:1048C000202B49D1002912BF002A0120704790F8FF
:1048D0006830012B40D0012380F868304165A0F892
:1048E0005820A0F85A20FF228168B1F5805F05D0DA
:1048F0007F2351B1B1F1805F0CD012E00169002932
:1049000008BF40F2FF1102D109E0016909BBA0F81C
:104910005C2006E00169002918BF3F2119D0A0F8EA
:104920005C100021C166222280F86A2080F868109D
:1049300001680A6842F480720A6001688A6842F07D
:1049400001028A600068016841F0200101600020D6
:104950007047A0F85C30E4E7022070474DF8044D42
:104960000068A0F18041B1F588311CBF5DF8044BAF
:104970007047174A508810F4004F1CBF5DF8044B75
:10498000704710F4804F4FF000031149097808D0A8
:104990000A2908BF40F4004016D053805DF8044B4C
:1049A00070470D2908BF40F480400DD0094CC0F37A
:1049B0000D0C401C80B2C72804F80C1050809CBF1E
:1049C0005DF8044B7047E8E750805DF8044B704792
:1049D00030000220701A02207047FEE7114810B51F
:1049E00086B0016841F080010160006869460E4CA4
:1049F00000F080000590302000900120019002908E
:104A0000022003902046FEF78DF801222046202147
:104A1000FEF7A9F9012220461021FEF7A4F906B0FD
:104A200010BD000030380240001C02402DE9F0416A
:104A3000374E07460024306820F44060306030680C
:104A400030602546002230461021FEF78CF9022006
:104A50000BF074FD012230461021FEF784F9600648
:104A60002021040E3046FEF775F900281CBF601C9B
:104A7000C4B201200BF062FD681CC5B2082DE1D361
:104A80004FF000024FF0100130460FB3FEF76BF904
:104A9000306820F440603060306840F480603060FE
:104AA000002230462021FEF75EF902200BF046FD81
:104AB000012230461021FEF756F902200BF03EFD90
:104AC000002230461021FEF74EF92046BDE8F08165
:104AD000FEF749F9306820F440603060306840F4F7
:104AE00080603060012230462021FEF73CF9022030
:104AF0000BF024FD012230461021FEF734F902208C
:104B00000BF01CFD002230461021FEF72CF9DCE7EB
:104B1000001C024070B51C4E05463046316821F439
:104B200040613160316841F48061316000221021C0
:104B3000FEF719F9002415F0800F05D00122304648
:104B40002021FEF710F904E0002230462021FEF774
:104B50000AF96806050E02200BF0F0FC012230462F
:104B60001021FEF700F902200BF0E8FC002230468D
:104B70001021FEF7F8F802200BF0E0FC601CC4B234
:104B8000082CD8D370BD0000001C024010B5124C98
:104B9000206820F440602060206840F4806020603D
:104BA000012220462021FEF7DEF8012220461021B6
:104BB000FEF7D9F804200BF0C1FC0022204620218A
:104BC000FEF7D1F804200BF0B9FC00222046BDE826
:104BD00010401021FEF7C7B8001C024010B5124C5F
:104BE000206820F440602060206840F480602060ED
:104BF000002220461021FEF7B6F800222046202190
:104C0000FEF7B1F804200BF099FC01222046102198
:104C1000FEF7A9F8012220462021FEF7A4F8BDE8FE
:104C2000104004200BF08ABC001C024070B5294DD6
:104C30000024286820F44060286028682860012249
:104C400020212846FEF78FF801200BF077FC012287
:104C500028461021FEF787F801200BF06FFC202179
:104C60002846FEF777F800282DD0601CC4B2FA2C35
:104C700023D9286820F440602860286840F48060C8
:104C80002860002228461021FEF76DF800222846F1
:104C90002021FEF768F804200BF050FC0122284682
:104CA0001021FEF760F8012228462021FEF75BF86C
:104CB00004200BF043FC012070BD20212846FEF7A4
:104CC00049F80028D1D1002228461021FEF74BF8E0
:104CD000002070BD001C02401B4870B586B0016802
:104CE00041F001010160016801F0010105910168D5
:104CF00041F004010160016801F0040105910168BF
:104D000041F080010160006803250026694600F03B
:104D10008000059002200124CDE902050B48CDE971
:104D20000046FDF7FFFE60036946CDE9000608482E
:104D3000CDE90245FDF7F6FE0C20009005486946D6
:104D4000FDF7F0FE06B070BD3038024000000240B2
:104D500000080240001C02402DE9F041104E0746B9
:104D6000104800243188006820B13846BDE8F04181
:104D700005F0E2BB708800FB01F50021084605F054
:104D80008DF9094930890880002D86BFB8B20749DE
:104D9000BDE8F0810880641CA542FBD8BDE8F08125
:104DA000A41C02205C1D0220FEFF076000000860BA
:104DB0002DE9FF4F1F4881B088460E9E006830B134
:104DC0000198009605F0C8FB05B0BDE8F08F01988A
:104DD0004FF00004101A401C85B2A3EB0800401CE1
:104DE00007043F0C04BF05B0BDE8F08FDFF848A012
:104DF000DFF848B00BF1020908EB040081B201981A
:104E000005F04CF9BAF80800ABF800000020002DBE
:104E100009D904FB050136F81110A9F80010401C4F
:104E200080B28542F5D8601C84B2BC42E4D305B0A0
:104E3000BDE8F08F5C1D0220A41C0220FEFF07606D
:104E40002DE9F05F3D4C3E4DA071296839B105F068
:104E5000E1FBE88A2080288B6080BDE8F09F37491D
:104E60002C232B254FF0F0094FF4305E49F2413AE4
:104E70004FF448764FF02A0C89884FF4A0784FF40D
:104E8000F07245F2105B45F2103760B1A4F8008073
:104E90005145A4F8029018BFB9422ED12381A4F83D
:104EA0000AC0A58140E0A4F800905145A4F8028012
:104EB00018BFB94209D12381B942A4F80AC0A5811B
:104EC00004BFA4F80080628033E059450AD1A4F8F9
:104ED00008E04FF4285060814FF42C50A0812280CC
:104EE000668026E0A1F5C850633822D12381658110
:104EF000A4F80CC0228066801BE059450AD1A4F8B2
:104F000008E04FF4285060814FF42C50A081268097
:104F1000628009E0A1F5C850633805D12381A4F867
:104F20000AC0A58126806280B94204BF2280A4F80D
:104F300002800020BDE8F05F04F022BFA41C022024
:104F40005C1D02202DE9F84F934B1B681BB1BDE897
:104F5000F84F05F073BBDFF844A20C0ADFF840926B
:104F6000CBB2D446070ABAF8045009F10206BCF8DD
:104F70000C1000F0FF08BCF80AC0A5F5134BBBF1FC
:104F8000410B1CBFA5F5A04BBBF5447B09D0A5F593
:104F9000A04BBBF5A26B3DD0A5F5C857633F7CD0B5
:104FA000F2E0ADF800C0BDF80000ADF80000BDF8BB
:104FB0000000A9F80000ADF80070BDF80000ADF8E1
:104FC0000000BDF800003080ADF80080BDF80000A2
:104FD000ADF80000BDF800003080ADF80010BDF85D
:104FE0000000ADF80000BDF80000A9F80000ADF821
:104FF0000040BDF80000ADF80000BDF800003080B2
:10500000ADF80030BDF80000ADF80000BDF80000BC
:105010003080B9E0ADF800C0BDF80000ADF8000088
:10502000BDF80000A9F80000ADF80070BDF8000060
:10503000ADF80000BDF8000030800CF10100ADF8C3
:105040000000BDF80000ADF80000BDF80000A9F8B0
:105050000000ADF80080BDF80000ADF80000BDF81C
:1050600000003080ADF80010BDF80000ADF8000081
:10507000BDF80000A9F80000ADF80040BDF8000040
:10508000ADF80000BDF800003080481CADF800000D
:10509000BDF80000ADF8000000E00DE0BDF8000034
:1050A000A9F80000ADF80030BDF80000ADF8000030
:1050B000BDF80000308067E09AF8065025B9BAF8CC
:1050C0000050281A401E80B2ADF800C0BDF800C0E4
:1050D000ADF800C0BDF800C0A9F800C04FEA102C20
:1050E000ADF800C0BDF80050ADF80050BDF800505C
:1050F0003580C0B2ADF80000BDF80050ADF80050EA
:10510000BDF800503580ADF800C0BDF800C0ADF866
:1051100000C0BDF800C0A6F800C0ADF80000BDF8A2
:105120000000ADF80000BDF800003080ADF80010C0
:10513000BDF80000ADF80000BDF80000A9F80000BF
:10514000ADF80040BDF80000ADF80000BDF800006B
:105150003080ADF80030BDF80000ADF80000BDF8BB
:1051600000003080ADF80040BDF80000ADF8000050
:10517000BDF800003080ADF80030BDF80000ADF89B
:105180000000BDF800003080BAF80800A9F800005F
:105190003280BDE8F88F00005C1D0220A41C0220B4
:1051A000FEFF07602DE9F84F1F46194B83460C465A
:1051B0000A981B6833B13B460090584605F060FAE8
:1051C000BDE8F88FA2EB0B01491C8DB2BC4288BF31
:1051D000BDE8F88FDFF83C9086B2DFF83CA00AF11A
:1051E00002082146584604F059FFB9F80800AAF809
:1051F00000000020002D05D9A8F80060401C80B2F6
:105200008542F9D8601C84B2BC42EAD9BDE8F88F67
:105210005C1D0220A41C0220FEFF07602DE9F04F58
:1052200095B005F0AFFBFE4945F2105A4FF0050866
:10523000888018B105F080FA04F0B6BCF94801681E
:1052400041F002010160006801264FF0200BCDF80B
:1052500038B000F0020013904FF00309CDF84490ED
:10526000F1480EA9CDE90F66FDF75CFC04F0F2FCF5
:10527000EE4800274FF020416A460160EC49C0E942
:1052800001171021C760C0E9047109028761C76175
:10529000C0E908718900C0E90A7189010763C0E9A2
:1052A0000D711120CDE907075520099015200290B6
:1052B000CDE90007DD4807A90D970697FFF70FF91D
:1052C00032200BF0FFF8D320ADF84C00BDF84C00B5
:1052D000ADF84C00BDF84C00D64D2880AC1C2088A1
:1052E000ADF84C00BDF84C00CD4B2088ADF84C001B
:1052F000BDF84C002088ADF84C00BDF84C004FF6CE
:10530000FF7101EA00202188ADF84C10BDF84C1067
:10531000084319468880A0F5134141397ED0D42036
:10532000ADF84C00BDF84C00ADF84C00BDF84C0099
:1053300028802088ADF84C00BDF84C002088ADF8DE
:105340004C00BDF84C002088ADF84C00BDF84C0076
:105350004FF6FF71228801EA0020ADF84C20BDF81D
:105360004C2010439880A0F5A642103A60D04FF42C
:105370005A40ADF84C00BDF84C00ADF84C00BDF8FB
:105380004C0028802088ADF84C00BDF84C004FF44C
:105390005B40ADF84C00BDF84C00ADF84C00BDF8DA
:1053A0004C0028802088ADF84C00BDF84C004FF42C
:1053B0005C42ADF84C2001EA0020BDF84C20ADF86D
:1053C0004C20BDF84C202A802288ADF84C20BDF836
:1053D0004C2010439880B0F5004F0CBFA3F804A0F8
:1053E000504525D0A120ADF84C00BDF84C00ADF8DB
:1053F0004C00BDF84C0028802088ADF84C00BDF86A
:105400004C002088ADF84C00BDF84C0001EA0020AB
:105410002188ADF84C10BDF84C1000E008E00843BE
:105420009880A0F5AE41613904BF41F663109880C1
:10543000998881A0FBF754F879484FF0B10C818826
:10544000ED20A1F51342413A00F03986E2234FF0F6
:10545000040EA1F5A642103A01F0AE81514544F088
:10546000818155204FF4704129802080481CAA2159
:1054700028802180411C522029802080491C08203E
:1054800029802080491C0120298020800D204FF494
:10549000304129802080491C29802080491C298096
:1054A000208034204FF4364129802080491C2980F7
:1054B0002080491C298020800D214FF43140288014
:1054C0002180401C28802180411C0D2029802080C3
:1054D00034214FF4374028802180411C342029801A
:1054E0002080491C2980208000204FF432412980EF
:1054F0002080491C29802080491C2980208024206C
:105500004FF4384129802080481C242128802180A4
:10551000401C2880218001204FF43F4129802080B9
:105520000F204FF4334129802080491C298020809E
:10553000491C2980208034204FF439412980208063
:10554000491C29802080491C2980208008204FF494
:10555000354129802080481C082128802180411C59
:1055600008202980208003204FF442412980208098
:1055700024204FF43A4129802080491C2980208032
:10558000481C24212880218000204FF43C412980A0
:105590002080481C782128802180411C00202980FF
:1055A00020804FF43D4129802080491C78202980AB
:1055B0002080481C00212880218000204FF43E419B
:1055C00029802080481C64212880218000204FF4FD
:1055D000514129802080491C332029802080491C8A
:1055E000002029802080491C342029802080491CEB
:1055F000002029802080491C3A2029802080491CD5
:10560000002029802080491C4A2029802080481CB5
:10561000002128802180411C5C202980208013E00B
:10562000A41C02203038024000040240581C022012
:10563000040100A0FEFF0760204C43442049443A87
:1056400025780D0A00000000491C298000202080D8
:10565000481C288081212180411C29800020208035
:10566000491C2980A6202080481C288000212180F8
:10567000411C2980E5202080481C288001212180B0
:10568000411C298013202080491C29800120208072
:10569000491C298054202080491C29800120208019
:1056A000491C298082202080481C288001212180DB
:1056B000411C2980CA202080491C2980022020808A
:1056C000491C298000202080491C2980022020803C
:1056D000481C288001212180411C29800220208033
:1056E000491C298034202080491C298002202080E8
:1056F000491C298067202080491C298002202080A5
:10570000491C298084202080491C29800220208077
:10571000491C2980A4202080491C29800220208047
:10572000491C2980B7202080491C29800220208024
:10573000491C2980CF202080491C298002202080FC
:10574000491C2980DE202080491C298002202080DD
:10575000491C2980F2202080491C298002202080B9
:10576000491C2980FE202080491C2980032020809C
:10577000491C298010202080491C2980032020807A
:10578000491C298033202080491C29800320208047
:10579000491C29806D20208000204FF4524129802F
:1057A0002080491C332029802080481C002128802B
:1057B0002180411C342029802080491C0020298020
:1057C0002080491C3A2029802080491C0020298003
:1057D0002080481C4A2128802180411C00202980EB
:1057E0002080491C5C2029802080491C00202980C1
:1057F0002080491C812029802080481C002128808D
:105800002180411CA62029802080491C002029805D
:105810002080491CE52029802080481C0121288007
:105820002180411C132029802080491C01202980CF
:105830002080491C542029802080491C0120298077
:105840002080491C822029802080491C0120298039
:105850002080491CCA2029802080491C02202980E0
:105860002080491C002029802080491C022029809A
:105870002080481C012128802180411C0220298091
:105880002080491C342029802080491C0220298046
:105890002080491C672029802080491C0220298003
:1058A0002080491C842029802080491C02202980D6
:1058B0002080491CA42029802080491C02202980A6
:1058C0002080491CB72029802080491C0220298083
:1058D0002080491CCF2029802080491C022029805B
:1058E0002080491CDE2029802080491C022029803C
:1058F0002080491CF22029802080491C0220298018
:105900002080491CFE2029802080491C03202980FA
:105910002080491C102029802080491C03202980D8
:105920002080491C332029802080491C03202980A5
:105930002080491C6D202980208000204FF4534195
:1059400029802080491C332029802080491C002088
:1059500029802080491C342029802080491C002077
:1059600029802080491C3A2029802080481C002161
:1059700028802180411C4A2029802080491C002049
:1059800029802080491C5C2029802080491C00201F
:1059900029802080491C812029802080491C0020EA
:1059A00029802080491CA62029802080491C0020B5
:1059B00029802080491CE52029802080491C012065
:1059C00029802080491C132029802080491C012027
:1059D00029802080491C542029802080491C0120D6
:1059E00029802080491C822029802080491C012098
:1059F00029802080491CCA2029802080491C02203F
:105A000029802080491C002029802080491C0220F8
:105A100029802080491C012029802080491C0220E7
:105A200029802080491C342029802080491C0220A4
:105A300029802080491C672029802080491C022061
:105A400029802080491C842029802080491C022034
:105A500029802080491CA42029802080491C022004
:105A600029802080491CB72029802080491C0220E1
:105A700029802080481CCF2128802180411C0220C1
:105A800029802080491CDE2029802080491C02209A
:105A900029802080491CF22029802080491C022076
:105AA00029802080481CFE2128802180401C032161
:105AB00028802180411C102029802080491C03203F
:105AC00029802080481C332128802180411C03200C
:105AD00029802080491C6D202980208000214FF4DE
