:020000040800F2
:1000000058090520CD0200084FBB0008B153000875
:1000100091BA000877120008110C010800000000D6
:1000200000000000000000000000000025F40008AF
:10003000C1190008000000005510000851F6000822
:100040000703000807030008070300080703000868
:100050000703000807030008070300080703000858
:100060000703000807030008070300080703000848
:100070000703000807030008070300080703000838
:100080000703000807030008070300080703000828
:100090000703000807030008070300080703000818
:1000A0000703000807030008070300080703000808
:1000B00007030008CDF6000807030008070300083F
:1000C00007030008070300080703000807030008E8
:1000D00007030008610B0108CD0B010807030008A6
:1000E00007030008070300080703000807030008C8
:1000F00007030008070300080703000807030008B8
:10010000070300080703000825F700080703000895
:100110000703000807030008070300080703000897
:1001200007030008F1180008070300080703000888
:100130000703000807030008070300080703000877
:100140000703000807030008070300080703000867
:100150000703000807030008070300080703000857
:100160000703000807030008070300080703000847
:1001700007030008070300086D18000800000000CE
:100180000703000807030008070300080703000827
:100190000703000807030008070300080703000817
:1001A0000703000807030008070300080703000807
:1001B00007030008070300080703000807030008F7
:1001C00007030008070300080000000007030008F9
:1001D00007030008070300080703000807030008D7
:1001E00007030008070300080703000807030008C7
:1001F000070300080703000800F002F800F057F8B2
:100200000AA090E8000C82448344AAF10107DA4571
:1002100001D100F04CF8AFF2090EBAE80F0013F06C
:10022000010F18BFFB1A43F0010318472410020006
:10023000441002000A4410F8014B14F00F0508BFE7
:1002400010F8015B240908BF10F8014B6D1E05D0A2
:1002500010F8013B6D1E01F8013BF9D1641E03D07B
:10026000641E01F8015BFBD19142E4D370470000AA
:100270000023002400250026103A28BF78C1FBD8AF
:10028000520728BF30C148BF0B607047642900F097
:100290005181782900F0B181732900F099850020FF
:1002A00070471FB51AF0A4FD1FBD10B510BD00F0BA
:1002B00047FE1146FFF7F5FF13F0D6F800F065FE94
:1002C00003B4FFF7F2FF03BC10F0E0FD11488047D4
:1002D000DFF84400016841F470010160BFF34F8F03
:1002E000DFF83800016821F040410160BFF36F8FF3
:1002F0000B480047FEE7FEE7FEE7FEE7FEE7FEE706
:10030000FEE7FEE7FEE7FEE706480749074A084B17
:100310007047000075F6000888ED00E034EF00E05B
:10032000F901000858030520580905205805052043
:100330005805052072B6704762B67047EFF310801B
:1003400072B6704780F31088704730BF704720BF87
:100350007047B0FA80F0704790FAA0F0B0FA80F0E1
:10036000704790FAA0F07047704753EA020C00F013
:1003700069802DE9F04B4FF00006002B1FBFB3FA48
:1003800083F503FA05F424FA05F65E4012BF16431E
:10039000B2FA82F502FA05F4C5F120051EBF22FA71
:1003A00005FC44EA0C04203556EA044C4FEA144498
:1003B00018BF641C4FF000084FF00009904271EB29
:1003C000030C39D3002919BFB1FA81F701FA07F6F6
:1003D000B0FA80F700FA07F6C7F120071EBF20FA2F
:1003E00007FC46EA0C062037B6FBF4FCA7EB050732
:1003F000103F07F01F0BCBF120060CFA0BFB2CFA79
:1004000006F644BFB3460026202FA4BF5E464FF039
:10041000000B5BEA060C08BF4FF0010B19EB0B0950
:10042000ABFB027C48EB0608C01B06FB02CC0BFBB7
:1004300003CC71EB0C01C1E70B460246414648462E
:10044000BDE8F08B13B54FF000004FF00001AFF3A3
:100450000080BDE81C407047B2F120030AD5C2F10C
:10046000200320FA02F001FA03F341FA02F140EA14
:100470000300704741FA03F04FEAE171704710B58D
:100480004C1084EA530404D54042C1F1000138BF46
:10049000491E1B4204D55242C3F1000338BF5B1E04
:1004A000FFF763FF14F0804F04D04042C1F1000118
:1004B00038BF491E14F0004F04D05242C3F100036C
:1004C00038BF5B1E10BD00000FB4044910B503AA6D
:1004D000029800F081FC10BC5DF814FB2C00022097
:1004E00070B50C460546012A05D02878800600D54F
:1004F000EA69002302E0012305E05B1C934202D27B
:10050000E05C0028F9D1A869E618C01AA861286A39
:10051000184428622846AFF3008004E0D5E90121A1
:1005200014F8010B9047B442F8D32846AFF300808B
:1005300070BD00002DE9F0410646002410687529C1
:10054000314616A510D0AFF30080002802DA4042F1
:1005500013A507E031688A0701D512A502E0490713
:1005600004D511A5012401E0AFF3008000210A2287
:1005700006F1240709E0B0FBF2FCB0FBF2F302FB4A
:100580001C00303078541846491C0028F3D123460B
:100590002A463046BDE8F04100F097BB000000005D
:1005A0002D0000002B00000020000000F0B40D46DC
:1005B0000188090502D51B4C7C4402E0194C7C449F
:1005C0000E34002100F1240305E002F00F061209A9
:1005D000A65D5E54491C002AF7D102780023120759
:1005E00004D5702D06D009B1022311342246F0BC87
:1005F00000F06BBB01231034F8E770B504460D46DC
:1006000021461068AFF30080024629462046BDE827
:100610007040CBE70368126843F0200303600823AF
:10062000C361C3E7DF0B02002DE9F05F8946044692
:100630004FF0000ADFF874B1FB44C0F820A0204658
:10064000E1688847002874D0252806D0D4E9012124
:100650009047206A401C2062F1E700265F46204652
:10066000E16888472028054607DB312D05D2781937
:1006700010F8200C08B10643F1E7B00701D526F0C9
:100680000406C4F81CA00027C4F818A02A2D09D01D
:10069000284610F0F4FB38B304EB8708303DC8F867
:1006A000185019E059F8041B204604EB87029161A9
:1006B000E1688847012F054618D1E069002820DA53
:1006C00026F020061DE0D8F8180000EB800005EBAE
:1006D00040003038C8F818002046E16888470546D1
:1006E00010F0CDFB0028EED1012F0AD02E2D08D11D
:1006F0002046E16888477F1C0546022F46F0200609
:10070000C4DBA069002803DA404246F00106A0617C
:10071000F00701D026F010066C2D0BD0682D09D003
:100720004C2D39D06A2D35D0742D35D07A2D33D05B
:1007300016E038E0E1682F4620468847B842054673
:1007400009D16C2F26D04FF48060E1680643204623
:100750008847054604E06C2F1AD04FF4807006439A
:100760000DB3A5F14100192802D8203546F40066E2
:100770004A462946204626604E46FFF787FD80B14F
:1007800001280BD0F61D26F0070000F1080956E7F6
:100790004020E4E78020D8E70020D6E706F10409EE
:1007A0004DE7284652E7206ABDE8F09F870B02001C
:1007B0002DE9F04F9B4616464FF00109C1B020913C
:1007C0000090A9F1010920A85DF8295050F82900EE
:1007D000C5E04FEA6A0070432C185FEACA7100D185
:1007E000801B5A46214627182846904700280EDDD0
:1007F000304646EA0501890765D022782978401EEF
:1008000005F8012B04F8011BF7D1AD1BA41B5A46B8
:10081000394620469047002823DD5A463946284667
:10082000904700280EDD304646EA0501890751D081
:100830003A782978401E05F8012B07F8011BF7D1FB
:10084000AD1BBF1B304646EA0401890749D03A7800
:100850002178401E04F8012B07F8011BF7D1A41BD7
:10086000BF1B314646EA0402B81B920740D003780A
:100870002278491E04F8013B00F8012BF7D12C46E1
:10088000871BB84634445A464146204690470028C4
:10089000F8DB5A464146BF1B384690470028F8DC33
:1008A000304646EA0401A7424FEA81712ED931B39E
:1008B0003A782178401E04F8012B07F8011BF7D184
:1008C000A41BBF1BDEE722682968001F04C502C401
:1008D000F9D19AE73A682968001F04C502C7F9D11F
:1008E000AEE73A682168001F04C402C7F9D1B6E731
:1008F00003682268091F08C404C0F9D1BFE73A6839
:100900002168001F04C402C7F9D1D9E7E1B198F802
:1009100000202178401E04F8012B08F8011BF6D1B5
:10092000A21B501BB0FBF6F0401EAAEB0001491EB3
:10093000884216DD0A2910DD20AB4DF8295043F816
:10094000290009F1010918E0D8F800202168001FEA
:1009500004C448F8041BF7D1E2E70A2810DD8246F8
:1009600037E70A2807DD4DF8292020AA42F8291088
:1009700009F10109F3E70A2902DD15468A4628E74D
:10098000B9F1000F7FF41DAF41B0BDE8F08F2DE944
:10099000F04799460F460646140039D0002F37D04D
:1009A0000A2F01D9FFF704FF7F1E354607FB0458C5
:1009B0002CE02F46254400E03F1BB74205D34A46B2
:1009C0002946384690470028F6DC44EA05003B19E2
:1009D00080070CD0002117E029180A1B0F6802E0DD
:1009E00011681151121B9A42FAD2001D1751A042F0
:1009F0000CD2F1E76818027801E007780755001B70
:100A00009842FAD2491C0255A142F3D34545D0D3AE
:100A1000BDE8F08740EA010310B59B070FD1042A17
:100A20000DD310C808C9121F9C42F8D020BA19BAB9
:100A3000884201D9012010BD4FF0FF3010BD1AB11E
:100A4000D30703D0521C07E0002010BD10F8013B73
:100A500011F8014B1B1B07D110F8013B11F8014B9A
:100A60001B1B01D1921EF1D1184610BD40EA0103B3
:100A7000024630B59B0710D14FF0013400E008C2A8
:100A800008C91D1B9D4315EAC41FF8D013F0FF01D0
:100A900002F8011B0DD01B0AF8E711F8013B002BEF
:100AA00002F8013B05D011F8013B002B02F8013B95
:100AB000F3D130BD10B5431C02E010F8011B71B139
:100AC0008107FAD14FF0013202C88C1A8C4314EA24
:100AD000C211F9D0C01A0A0603D0C01E10BDC01A38
:100AE00010BD0A0401D0801E10BD0902FCD0401EBA
:100AF00010BD032A40F2308010F0030C00F0158086
:100B000011F8013BBCF1020F624498BF11F801CB10
:100B100000F8013B38BF11F8013BA2F1040298BF75
:100B200000F801CB38BF00F8013B11F0030300F0DF
:100B30006581083AC0F0088051F8043B083A51F842
:100B400004CBA0E80810F5E7121D5CBF51F8043B88
:100B500040F8043BAFF30080D20724BF11F8013BFB
:100B600011F801CB48BF11F8012B24BF00F8013B5D
:100B700000F801CB48BF00F8012B7047431A28BF8B
:100B80009A427FF6B6AF032A1044114440F2268001
:100B900010F0030F1EBF11F8013D521E00F8013D79
:100BA00010F0030F7FF4F6AF11F0030300F06B8138
:100BB000083AC0F00B8051F8043D083A51F804CDD2
:100BC00040F8043D40F804CDFFF7F3BF121D5CBFB1
:100BD00051F8043D40F8043DAFF30080D20724BF34
:100BE00011F8013D11F801CD48BF11F8012C24BFC7
:100BF00000F8013D00F801CD48BF00F8012C704716
:100C00004FF000020429C0F0128010F0030C00F035
:100C10006681CCF1040CBCF1020F18BF00F8012B67
:100C2000A8BF20F8022BA1EB0C0100F058B95FEA35
:100C3000C17C24BF00F8012B00F8012B48BF00F84D
:100C4000012B70474FF0013C50F8042B51F8043B46
:100C50009A4215D1A2EB0C03934313EACC130BD1A8
:100C600050F8042B51F8043B9A4209D1A2EB0C0333
:100C7000934313EACC13E7D04FF00000704700BF56
:100C8000D01A01BAB1FA81F101F0180122FA01F08B
:100C9000CB40C1F12001DBB2C0B2C01A2CFA01F383
:100CA000D11A914311EAC311E6D1704770477047DA
:100CB0007047704710B500F03BF9006810BD10B5E3
:100CC000044600F035F9046010BD2DE9F0470D46EB
:100CD00099469246044600F124080168880604D526
:100CE000E06921F01001216000E00120A84201DD4F
:100CF000471B00E00027A1697A1902EB0900081AD6
:100D0000A0612078C00602D42046AFF30080002600
:100D100008E0D4E901211AF806009047206A401C37
:100D2000761C20624E45F4DB2078C0060AD52046AA
:100D3000AFF3008006E0D4E9012130209047206A1B
:100D4000401C2062381EA7F10107F4DC07E0D4E95B
:100D5000012118F805009047206A401C2062281ED7
:100D6000A5F10105F3DC2046AFF3008020780006F2
:100D700002D50220BDE8F0870120FBE701694A1C8B
:100D800002610878704700B58FB0CDE901310021CC
:100D9000059105497944CDE9031011466846FFF7EE
:100DA00043FC0FB000BD0000E5FFFFFF10B5436935
:100DB00013B1AFF3008001E0FFF792FB012010BDFB
:100DC000127800F124010A7000224A700122EDE736
:100DD00011684FF0FF32E9E7074B70B50D467B44D1
:100DE000FFF7D1FF0446284600F0A6F810B14FF0F7
:100DF000FF3070BD204670BDBB1C010010B5203A0D
:100E0000C0F00B80B1E81850203AA0E81850B1E8C3
:100E10001850A0E81850BFF4F5AF5FEA027C24BF79
:100E2000B1E81850A0E8185044BF18C918C0BDE870
:100E300010405FEA827C24BF51F8043B40F8043B39
:100E400008BF7047D20728BF31F8023B48BF11F8EE
:100E5000012B28BF20F8023B48BF00F8012B704748
:100E6000431A28BF9A427FF6C9AF104410F0030F0F
:100E700011441EBF11F8013D521E00F8013D10F053
:100E8000030F7FF4F6AF103AC0F00A8010B531E9D5
:100E90001850103A20E91850BFF4F9AFBDE81040DF
:100EA000530724BF31E9081020E9081044BF51F866
:100EB000043D40F8043D12F0030F08BF7047D2070D
:100EC00028BF31F8023D48BF11F8012C28BF20F897
:100ED000023D48BF00F8012C70474FF0000200B5FA
:100EE000134694469646203922BFA0E80C50A0E84D
:100EF0000C50B1F12001BFF4F7AF090728BFA0E8FB
:100F00000C5048BF0CC05DF804EB890028BF40F8C6
:100F1000042B08BF704748BF20F8022B11F0804F08
:100F200018BF00F8012B704700487047F8020520F1
:100F300000487047F8020520007B00F080007047F1
:100F40007546FFF7F1FFAE4605006946534620F0AF
:100F50000700854618B020B5FFF7D6F9BDE8204058
:100F60004FF000064FF000074FF000084FF0000B65
:100F700021F00701AC46ACE8C009ACE8C009ACE818
:100F8000C009ACE8C0098D4670470446AFF3008045
:100F90002046FFF795F90000EFF3098141B1F1EE2A
:100FA000101A40F8041D20ED200A3E490A6810601E
:100FB0007047B0EC200A02C8E1EE101A3A490A68FC
:100FC0001060704772B64EF62250CEF2000040F22A
:100FD000FF01C0F2000101704FF0000080F30988AA
:100FE0000BF0CCFD40F28810C2F20200016881F3E0
:100FF000088840F21210C2F2020040F21311C2F24D
:1010000002010A78027040F28015C2F2020540F235
:101010008411C2F202010A682A60106880F309880C
:10102000EFF3148040F0020080F31488BFF36F8F59
:10103000BDE8F00F0FBCBDE8005006BC62B6084723
:101040001A484FF080510160704718484FF08051A6
:101050000160704772B6EFF3098020E9F00F40F2AB
:101060008015C2F202052E68306074460BF086FDD2
:1010700040F21210C2F2020040F21311C2F2020159
:101080000A78027040F28411C2F202010A682A60F2
:1010900044F0F40E1068B0E8F00F80F3098862B6EF
:1010A00070470000800102208401022004ED00E06E
:1010B000184F84B0184C0025184E0DF108082088F0
:1010C00010F4004F0CD016494FF47A73C2B2114895
:1010D00004F010F93868C16911F0400FFBD0258089
:1010E000002232231146CDE9005810460BF0CAFD0C
:1010F000F0780128E3D13089401C30812188401AE2
:1011000080B20228DBD941F4004020803581F5709F
:10111000D5E70000904002202A00022000000220B3
:10112000C83F022004F046B92DE9F0470E00014601
:101130004FF0000004461ABF01EB06084FF0A0096B
:10114000BDE8F0870702A8EB0400451E04F00AFA88
:10115000280A09EB4000C0B204F0C8F904F052FAC2
:10116000E8B204F0C3F904F04DFA04F0FBF9A12051
:1011700004F0BCF904F046FA002004F043F90546F7
:1011800004F018FA611CE819CCB2A642DAD8BDE81E
:10119000F08710B5044604F0E5F9200AA02101EB20
:1011A0004000C0B204F0A2F904F02CFAE0B204F05E
:1011B0009DF904F027FA04F0D5F9A12004F096F97E
:1011C00004F020FA002004F01DF9044604F0F2F9BE
:1011D000204610BD2DE9F04716000F4680464FF01F
:1011E000000414BF4FF0A00ABDE8F08708EB040527
:1011F000E00027FA00F000F0FF0904F0B3F9280A34
:101200000AEB4000C0B204F071F904F0FBF9E8B257
:1012100004F06CF904F0F6F9484604F067F904F0BC
:10122000F1F904F0C7F90A2011F08AFA601CC4B27F
:10123000A642DBD8BDE8F08770B50D46044604F041
:1012400091F9200AA02202EB4000C0B204F04EF94E
:1012500004F0D8F9E0B204F049F904F0D3F92846D3
:1012600004F044F904F0CEF904F0A4F9BDE87040AC
:101270000A2011F065BAFEE72DE9F0411D4E002766
:10128000776000F091F8378000257780B760F760CD
:101290007761B7613761FFF751F8002480467761C5
:1012A0003088401C3080708810B900F095F8B0602C
:1012B0007088401C708000F057F870690544601C0D
:1012C0000404240CEBD0C6E904574046B761FFF78D
:1012D00039F8FFF733F8044600F036F806481021D5
:1012E0000AF012FC00F040F82046BDE8F041FFF79C
:1012F00029B80000AC0002207444022070B5FFF74A
:101300001DF8084D6C69FFF71DF8286984428CBFF1
:10131000241A0024FFF712F800216961FFF712F880
:10132000204670BDAC00022070B5FFF707F8054DF0
:10133000AC69FFF707F8286984428CBF201A0020A7
:1013400070BD0000AC00022010B5064C2088401C87
:101350002080608810B900F03FF8A0606088401CD1
:10136000608010BDAC00022010B50B4C6088401EA0
:101370000004000C608018BF10BD00F02DF8E06084
:10138000A168401A6169814238BF6061A1698142E8
:1013900038BFA06110BD0000AC00022001494860C8
:1013A00070470000AC00022010B502F03BFF084976
:1013B0000A6842F080720A60064900224A600A68A0
:1013C00042F001020A60BDE81040FFF7E7BF0000ED
:1013D000FCED00E0001000E00148406870470000AC
:1013E000001000E013484DF804ED87B0016841F0AB
:1013F00080010160016801F080010591016841F4FC
:10140000807101600068694600F48070059040209A
:10141000009001200190029003200390064801F003
:1014200043FD082000900548694601F03DFD07B0E6
:101430005DF804FB30380240001C024000200240EE
:101440002DE9F0413C4F80460024386820F0C00070
:101450003860386838601E2011F0AEF9374E00252C
:1014600000224021304601F040FE022011F0A4F994
:1014700001223046402101F038FE60060821040EAA
:10148000384601F029FE00281CBF601CC4B2681C4D
:10149000C5B2082DE4D3B8F1000F4FF000024FF0B1
:1014A0004001304624D001F020FE386820F0C00012
:1014B0003860386840F040003860022011F07CF954
:1014C00000223846082101F010FE022011F074F9C4
:1014D00001223046402101F008FE022011F06CF993
:1014E00000223046402101F000FE2046BDE8F08198
:1014F00001F0FBFD386820F0C0003860386840F02B
:1015000040003860022011F057F9012238460821C6
:1015100001F0EBFD022011F04FF90122304640218D
:1015200001F0E3FD022011F047F90022304640218E
:1015300001F0DBFDD9E7000000200240001C024062
:101540002DE9F0411C4F0546386820F0C000386096
:10155000386840F040003860184E00224021304684
:1015600001F0C3FD022011F027F9002415F0800FCF
:1015700005D001223846082101F0B7FD04E0002221
:101580003846082101F0B1FD68060122050E3046FB
:10159000402101F0AAFD022011F00EF90022304690
:1015A000402101F0A2FD022011F006F9601CC4B236
:1015B000082CDBD3BDE8F08100200240001C024073
:1015C00070B5134C206820F0C0002060206840F007
:1015D0004000206001222046082101F086FD0D4DCB
:1015E00001224021284601F080FD1E2011F0E4F880
:1015F00000222046082101F078FD022011F0DCF8DD
:101600002846BDE870400022402101F06EBD000078
:1016100000200240001C024010B5104C206820F051
:10162000C0002060206840F0400020600C4801228B
:10163000402101F05AFD1E2011F0BEF80022204684
:10164000082101F052FD022011F0B6F801222046D7
:10165000BDE81040082101F048BD00000020024014
:10166000001C024070B5284E0024306820F0C000F5
:1016700030603068306001220821304601F035FDCD
:10168000224D01224021284601F02FFD022011F0B9
:1016900093F80821304601F01FFD00282CD0601C73
:1016A000C4B2FA2C1FD93068344620F0C000306034
:1016B000306840F04000306001222846402101F0AF
:1016C00014FD1E2011F078F800222046082101F0B8
:1016D0000CFD022011F070F801222046082101F0D3
:1016E00004FD012070BD022011F066F8082130468B
:1016F00001F0F2FC0028D2D100222846402101F05E
:10170000F4FC002070BD000000200240001C0240DC
:1017100070B4BFF34F8FBFF36F8F1849002008607C
:10172000174D296841F400312960BFF34F8FBFF393
:101730006F8F14490860BFF34F8F081F006843F68E
:10174000FF76114AC0F34E3CC0F3C90406EA4C11BF
:10175000204641EA80731360401EFAD2BCF1010CAE
:10176000F4D2BFF34F8F286840F480302860BFF375
:101770004F8FBFF36F8F70BC7047000050EF00E0D9
:1017800014ED00E084ED00E060EF00E010B5806B48
:10179000816C496D022906D0012180F83510C16C99
:1017A00041F04001C16401F0ADF810BD2DE9F843EE
:1017B00080462A489C460F46089B1646016841F41D
:1017C000800101600068264C00F480000090A4F1C4
:1017D00050008464A0632268106820F0100010603C
:1017E0000025204820604FF00070C4E90105401337
:1017F000E560C4E904300011C4E906C0400220627B
:10180000042060620120C4E90A052046256301F036
:101810001DFA204601F05CFA134984F83450A7B150
:101820003B4642462046009601F0BFF92068016819
:1018300041F01001016003220221392001F048FE2D
:10184000BDE8F843392001F036BE01B033464246C8
:101850000348BDE8F04301F0E9BA00003038024027
:10186000504102202864024028000550014801F040
:101870006BB800000041022010B5104C20210E482A
:1018800020600020C4E90101E06020616061A06186
:10189000204601F0B1F82068C16821F01E01C16046
:1018A0002068C16841F00101C1602068016841F40D
:1018B0008041016010BD0000000005500041022081
:1018C0000021084610B509F0DDFA09F04BFD064885
:1018D0000068016841F0010101600448016841F0BD
:1018E0000101016010BD00005041022000000550C0
:1018F000274870B5274B0068DFF89CC0274C9842FA
:10190000274A04D92749096801F4006105E06045C8
:1019100032D92549096801F40061002908BF70BD6A
:101920004FF40061984288BF204803D8604588BFC3
:101930001F4828D901601F48406880471E49002081
:101940000860BFF34F8F081F006843F6FF741B4AFF
:10195000C0F34E3CC0F3C90504EA4C11284641EAE5
:1019600080731360401EFAD2BCF1010CF4D2BFF3B5
:101970004F8FBFF36F8F70BDA0428CBF516811684D
:1019800001F40061C9E7A0428CBFD1609160D2E749
:101990005041022058640240B86002405860024042
:1019A0000060024004640240006402400C64024093
:1019B000086402403000022084ED00E074EF00E093
:1019C00070470000B3F5804F30B418BF6FF070411E
:1019D00004D040F8221030BC0020704750F822306C
:1019E000DFF824C08D8903EA0C03D1E900C44CEA76
:1019F000041C8C688969240244EA05444CEA040CFE
:101A00004CEA01011943E4E70000F0CF70B4D1F8CB
:101A100000C050F82C201B4BD1E903561A40D1E9E5
:101A2000014335431C432C434D692C438D692C43A2
:101A3000CD692C430D6A2C434D6A2C438D6A2C438F
:101A4000CD6A2C430D6B2C438D6B2C434D6B2C437B
:101A50002243082B08BF42F0400240F82C200A6BBA
:101A6000B2F5801F05D10A684AB1026842F48012BB
:101A700002600A681AB10268496B1143016070BCC8
:101A8000002070478004C0FF00EB820270B45368EE
:101A90004FF07E46D1E900C48D8903F040434CEA03
:101AA000041C8C68240244EA05440D8A4CEA0404B0
:101AB000DFF834C00CEB05552C430D7D06EB0565B6
:101AC0002C438D692C4323435360026812F4801F1A
:101AD00007D04268098A22F470020CEB01511143CD
:101AE000416070BC002070470000F0FF4DF8044DCD
:101AF000D1E901320C681343D1E903C24CEA020276
:101B00001A434B6913438A69012C046843EA020CA7
:101B1000CB690A6A496A08D04CEA03031A431143A5
:101B20006FF30E04214301600BE024F4F8441A43E0
:101B300021430A43416802606FF30E014CEA010140
:101B400041605DF8044B00207047426942EA410160
:101B5000416100207047F8B514460546D1E90002FE
:101B60006FF01F0310438A68C96803EB421242EA10
:101B7000412108430090286101F0BCFA0646A8699B
:101B800010F0200F0ED0B4F1FF3F07D024B101F0C8
:101B9000B1FA801BA04201D90320F8BDA86910F05A
:101BA000200FF0D10020F8BD2DE9F001D1F804C0DC
:101BB0006FF00F050B682C015B1E05EB0C1C43EA54
:101BC0000C03D1F808C04FEA0428270304EB0C2CBF
:101BD00043EA0C050B8A2604CC68012A826808EBCC
:101BE000034C8B8A097E07EB035306EB01610DD092
:101BF000361306EB04342C4344EA0C0C4CEA030382
:101C0000194302F070421143816012E0240322F470
:101C10007042A4F58054234322F470021A43C3682F
:101C200045EA0C0C826003F070434CEA0101194351
:101C3000C160BDE8F00100207047000030B53948B0
:101C400087B0016841F080010160016801F0800106
:101C50000691016841F4807101600068002401254B
:101C600000F4807006908020CDE90104032001A9D2
:101C7000CDE903502C4801F017F92802CDE9010500
:101C80002A4D01A9284601F00FF9FFF7ABFB00220E
:101C90002846A91501F029FA142010F051FD01225F
:101CA0002846110201F021FA322010F049FD0122EC
:101CB000694600208DF8004000F042F90122694693
:101CC000A42000F03DF91620694601228DF800009D
:101CD000802000F035F90C20694601228DF80000C3
:101CE000882000F02DF902226946A12000F026F894
:101CF0009DF80000302804BF9DF80110032907D08B
:101D00009DF8011001291FBF0229012007B030BD35
:101D1000C9B201EB002106A0FEF7D6FB07B00020F8
:101D200030BD000030380240001C0240002002405C
:101D30004354502049443A25780D0A002DE9F041DA
:101D400015460E460446FFF73BFC7020FFF7F8FBF4
:101D5000FFF788FCE0B2FFF7F3FBFFF783FCFFF728
:101D60002FFC7120FFF7ECFBFFF77CFC0024002D1B
:101D700088BF6F1E0AD9BC4214BF01200020FFF7A4
:101D80005FFB3055601CC4B2AC42F4D3BDE8F041F7
:101D9000FFF742BC2DE9F14FDFF890B10025DFF8E5
:101DA000949182B02C469BF80000401CC1B2604860
:101DB0008BF80010A0FB0120C008404200EB80001F
:101DC00011EB400001D00A297ED20122022002A993
:101DD000FFF7B4FF9DF8080010F00F0F74D000F06B
:101DE0000F0006287FD2FF214FF0000A01FA00F011
:101DF000C0B2C04340F0C000A9F834000120B9F8D7
:101E00003410A84001425CD04B480426E84610F844
:101E10001540FFF7D5FB7020FFF792FBFFF722FC80
:101E2000E0B2FFF78DFBFFF71DFCFFF7C9FB712048
:101E3000FFF786FBFFF716FC0024771EBC4214BF99
:101E400001200020FFF7FCFA08F80400601CC4B26F
:101E5000B442F3D3FFF7E0FB99F844009DF800107B
:101E600010F0010F9DF8010001F00F0100EB0121BE
:101E70000CD009EB450001849DF802209DF8031069
:101E800002F00F0201EB022181810EE02B48008855
:101E9000411A09EB450081819DF802209DF803104D
:101EA00002F00F0201EB022101849DF8000000F016
:101EB000F000802805D009EB4500A0F820A0A0F88C
:101EC0000CA0681CC5B200E00DE0052D96D3B9F852
:101ED0000C100124002902BFB9F8200000288DF859
:101EE00008A08BF800A09DF8080010F01F0F11D17A
:101EF000B9F8340010F0800F18BF20F0800007D12F
:101F00004FF6FF71A9F80C1000F0E000A9F82010BE
:101F1000A9F834009BF80000F02884BF0A208BF851
:101F20000000204603B0BDE8F08F00005000022002
:101F3000CDCCCCCC580002203E0A0208FC41022045
:101F40002DE9F041002716460D460446FFF738FB01
:101F50007020FFF7F5FAFFF785FBE0B2FFF7F0FA24
:101F6000FFF780FB0024002E0AD9285DFFF7E8FA6E
:101F7000FFF778FB070003D1601CC4B2B442F4D36E
:101F8000FFF74AFB3846BDE8F08100002DE9F0413B
:101F9000534888B0016841F080010160016801F098
:101FA00080010791016841F480710160006800249C
:101FB0000326DFF8308100F48070079080256946A1
:101FC00001274046CDE90054CDE9027600F06CFFD0
:101FD00068006946CDE90007434F384600F064FFCA
:101FE000FFF700FA00223846690001F07EF80A2067
:101FF00010F0A6FB01223846110201F076F80A2003
:1020000010F09EFBCDE90054CDE9024669464046FA
:1020100000F04AFF642010F093FB042248F24010C5
:1020200005A900F07BF805A98DF818402FA0FEF750
:102030004BFA31A105A8FEF705FE00281EBF0120BE
:1020400008B0BDE8F0810220012205A98DF8140036
:1020500048F2400000F08AF9012248F2470005A941
:1020600000F05CF89DF8141060292AD224A0FEF735
:102070002BFA28488088A0F5AA41103921D18DF883
:102080001C4001218DF81D10002023499DF81C20C3
:102090000B5C401CC0B2B8281A448DF81C20F5D344
:1020A000D0B21D49C043401C8DF81C00B82248F234
:1020B000470000F05BF9022248F2FF0007A900F098
:1020C00055F90A2010F03CFB012248F2400005A916
:1020D0008DF8144000F04AF908B00020BDE8F08106
:1020E00030380240001C024000200240435450207F
:1020F00049443A25730D0A00393134370000000095
:1021000044656661756C74205665723A25640D0AE3
:1021100000000000FC410220480A02082DE9F041BD
:1021200015460E460446FFF74BFA2820FFF708FA3B
:10213000FFF798FA200AFFF703FAFFF793FAE0B2E5
:10214000FFF7FEF9FFF78EFAFFF73AFA2920FFF7BB
:10215000F7F9FFF787FA0024002D88BF6F1E0AD910
:10216000BC4214BF01200020FFF76AF93055601C03
:10217000C4B2AC42F4D3BDE8F041FFF74DBA000061
:102180002DE9F14F744E0024744982B0744DA2467B
:102190003078401CC0B23070A1FB0021C908494210
:1021A00001EB810110EB410101D00A287AD2012212
:1021B00048F24E1002A9FFF7B1FF9DF808004FF05A
:1021C000000910F0800F0BD000F00F00062807D296
:1021D000012248F24E1001A98DF8049000F0C6F8D3
:1021E0009DF8080010F00F0F5CD000F00F000628DB
:1021F00058D2FF21DFF86CB1DFF86C814FF0010A93
:1022000001FA00F0C0B28DF8040095F83470C043B4
:1022100040F0C000A886A889A882288C2885A88EAE
:102220000AFA04F1084250D03BF81400042269462F
:10223000FFF774FFB8F80400A0F5AA41103904D0E4
:10224000A0F58641423917D03FE095F8440010F0E0
:10225000010F16D09DF801109DF8000000EB012140
:1022600005EB440001849DF803209DF8021001EB6A
:102270000221C1F5487127E095F8440010F0010FE4
:1022800011D09DF801109DF8000000EB012105EB35
:10229000440081819DF803209DF8021001EB02218A
:1022A000018412E03AE09DF801109DF8000000EB77
:1022B000012105EB440001849DF803209DF80210E4
:1022C00001EB0221C1F588718181601CC4B2052C2B
:1022D000A5D3A9894FF0010AB8F8002028468A4200
:1022E00007D3018CB8F802208A4228BF86F80090F4
:1022F00014D29DF8081001F00F01012906D9C189F7
:102300008181418C298486F8009007E0818A81814F
:10231000018D018480218DF80810AF869DF808009A
:1023200000F08F0080280DD1A88E10F0800F18BF0C
:1023300020F0800005D14FF6FF71A98100F0E00088
:102340002984A8863078F02884BF0A20307050464F
:1023500003B0BDE8F08F000051000220CDCCCCCC02
:1023600058000220000B0208FC4102202DE9F04138
:10237000002715460E460446FFF722F92820FFF7EE
:10238000DFF8FFF76FF9200AFFF7DAF8FFF76AF9CD
:10239000E0B2FFF7D5F8FFF765F90024002D0AD960
:1023A000305DFFF7CDF8FFF75DF9070003D1601C42
:1023B000C4B2AC42F4D3FFF72FF93846BDE8F08140
:1023C0002DE9F041504888B0016841F0800101607A
:1023D000016801F080010791016841F4807101609A
:1023E00000680125DFF82481802600F480700790C2
:1023F0000024009603270397CDE90145694640462E
:1024000000F052FD28026946CDE90005404D2846FE
:1024100000F04AFDFEF7E6FF00222846A91500F06D
:1024200064FE0A2010F08CF901222846110200F007
:102430005CFE0A2010F084F9CDE90064CDE9024782
:102440006946404600F030FD642010F079F904221E
:1024500048F2401005A900F075F805A98DF818405C
:102460002CA0FEF731F82FA105A8FEF7EBFB002802
:102470001EBF012008B0BDE8F0810220012205A99D
:102480008DF8140048F24000FFF770FF012248F277
:10249000470005A9FFF742FE9DF81410412924D2F8
:1024A00022A0FEF711F88DF81C4001218DF81D10B7
:1024B000002023499DF81C200B5C401CC0B2B828AA
:1024C0001A448DF81C20F5D3D0B21D49C043401CDE
:1024D0008DF81C00BA2248F2470000F08BF9022266
:1024E00048F2FF0007A900F085F90A2010F028F94A
:1024F000012248F2400005A98DF81440FFF736FF8D
:1025000008B00020BDE8F08130380240001C0240D5
:10251000002002404354502049443A25730D0A0DCF
:102520000A0000003932373100000000446566615E
:10253000756C74205665723A25640D0A000000001F
:102540000A0B02082DE9F04115460E460446FFF736
:1025500037F82820FEF7F4FFFFF784F8200AFEF78B
:10256000EFFFFFF77FF8E0B2FEF7EAFFFFF77AF838
:10257000FFF726F82920FEF7E3FFFFF773F80024A2
:10258000002D88BF6F1E0AD9BC4214BF0120002055
:10259000FEF756FF3055601CC4B2AC42F4D3BDE820
:1025A000F041FFF739B800002DE9F14F82B04FF04C
:1025B000000B8DF800B05C46DFF82492DFF828822B
:1025C00099F80000401CC1B2864889F80010A0FBB1
:1025D0000120C008404200EB800011EB400001D018
:1025E0000A297CD2012248F24E1002A9FFF7AAFF65
:1025F0009DF8080010F0800F0BD000F00F000B28A2
:1026000007D28DF800B00122694648F24E1000F062
:10261000F1F89DF8080010F00F0F60D000F00F00E7
:102620000B285CD24FF6FF71B8F834A001FA00F025
:10263000C04340F0C000A8F83400B8F80C00A8F877
:102640001E00B8F82000A8F832008DF800B09DF800
:1026500000000A2874D2B8F834109DF80020012038
:102660009040014263D061489DF80010062501AFFB
:1026700030F81140FEF7A4FF2820FEF761FFFEF7B7
:10268000F1FF200AFEF75CFFFEF7ECFFE0B2FEF779
:1026900057FFFEF7E7FFFEF793FF2920FEF750FFF5
:1026A000FEF7E0FF00246E1EB44214BF012000209C
:1026B000FEF7C6FE3855601CC4B2AC42F4D3FEF738
:1026C000ABFF98F8440010F0010F18D09DF80700F8
:1026D0009DF8061001EB00209DF8001000E05CE082
:1026E00008EB410108849DF805109DF8040000EBFB
:1026F00001209DF8001008EB4101888117E09DF84A
:1027000007109DF8060000EB01209DF80010C0F5B1
:10271000487008EB410188819DF805109DF8040080
:1027200000EB01209DF8001008EB410108849DF8A2
:102730000000401C8DF800009DF800000A288AD394
:102740002B480124B8F80C1002888A4207D3B8F845
:1027500020104088884228BF89F800B01DD29DF81B
:10276000080000F00F0001280AD9B8F80E00A8F8F8
:102770000C00B8F82200A8F8200089F800B00CE09E
:10278000B8F81E00A8F80C00B8F83200A8F820002D
:1027900080208DF80800A8F834A09DF8080000F00B
:1027A0008F00802811D1B8F8340010F0800F18BFC6
:1027B00020F0800007D14FF6FF71A8F80C1000F44C
:1027C0006040A8F82010A8F8340099F80000F0281C
:1027D00084BF0A2089F80000204603B0BDE8F08FCE
:1027E00052000220CDCCCCCC58000220C40B0208F1
:1027F000FC4102202DE9F041002715460E46044613
:10280000FEF7DEFE2820FEF79BFEFEF72BFF200AD8
:10281000FEF796FEFEF726FFE0B2FEF791FEFEF70A
:1028200021FF0024002D0AD9305DFEF789FEFEF756
:1028300019FF070003D1601CC4B2AC42F4D3FEF709
:10284000EBFE3846BDE8F08130B413468C460446B2
:1028500012F0070018BF012000EBD300217810FB15
:1028600003F08129C2B2607828BF402825D3FF2811
:1028700018BFFF2921D07F2834BF40384138C4B267
:10288000A1F18100C0B20C2BC0EB401101EB801014
:102890001B4904EB400000FB02F01CD0102B21D0A0
:1028A000182B26D0202B1CBF30BC7047D1F821102C
:1028B0000144604630BC0EF013BA0023002A8EBFDC
:1028C000002030BC70470CF8010B591CCBB29A4267
:1028D000F9D830BC7047D1F8091030BC01446046CB
:1028E0000EF0FEB9D1F8111030BC014460460EF074
:1028F000F7B9D1F8191030BC014460460EF0F0B9B8
:1029000020020520704700000A48012110B501701F
:102910000021094801800121084800F0E2FB084835
:102920000178491C017007480068C16841F0010145
:10293000C16010BD0000022004000220000402401B
:1029400030000220004102202DE9F04104460068D9
:1029500005694FF00406274F15F0040F0BD04661B0
:10296000E06C40F00200E06484F83560A06C07651C
:10297000A06C00F058F915F0020F0DD0216802206C
:102980004861E06C40F00100E06484F83560A06CC0
:102990000765A06C00F047F915F0100F05D021680D
:1029A00010204861204600F085F815F0080F05D08A
:1029B000216808204861204600F0F6F815F0010F64
:1029C00008BFBDE8F0812068016811F0020F03D054
:1029D000C16821F01E01C1602068C16821F00101B9
:1029E000C1602168012048612046FFF78DFFBDE8E6
:1029F000F08100008D170008002804BF01207047F7
:102A000010B5044690F83500002804BF204600F0B9
:102A100053F8022084F8350020680168244A1140E8
:102A20000160616960680843D4E9031211430843F7
:102A3000A1680843A1690843216A0843616A084301
:102A4000A16A0843E16A0843216B014320680268D8
:102A500011430160606810281DD14FF47F42617FEF
:102A6000207F4FF07F4392FAA2F293FAA3F3B2FAD7
:102A700082F2B3FA83F391404FF47F020843A17FBF
:102A800092FAA2F2B2FA82F29140E27F9A401143A6
:102A90000843216888612068C16841F01E01C16057
:102AA0000020E064012084F83500002010BD000003
:102AB00007F0E0FF7047000034484DF804ED87B0A0
:102AC000016841F001010160006800F0010005901B
:102AD0002F48016841F001010160016801F0010126
:102AE0000591016841F002010160016801F00201F5
:102AF0000591016841F004010160016801F00401E1
:102B00000591016841F008010160016801F00801C8
:102B10000591016841F0800101600068694600F09C
:102B2000800005904020009002200190012002903A
:102B3000032003900D200490164800F0B5F94FF4DF
:102B4000607000901448694600F0AEF94FF43C60A4
:102B500000901248694600F0A7F90820009010483C
:102B6000694600F0A1F94FF4807000900D48694665
:102B700000F09AF902224E20114600F0A9FC4E20E6
:102B800000F099FC07B05DF804FB00003438024007
:102B900030380240000002400004024000080240B9
:102BA000000C0240001C0240704770B484684FF073
:102BB000000C039D802C13D090F83440012C02BFF0
:102BC000022070BC7047012480F8344090F83540F2
:102BD000012C18BF4FF0020C08D070BC6046704743
:102BE0004FF4807141654FF0010CF6E7022480F844
:102BF00035400468266846F4802626600468236110
:102C000003685D608368402B036803BF9A600268B5
:102C1000D16099601CBF0168CA600068016841F01A
:102C200001010160D9E790F83510022903D0802115
:102C3000416501207047052180F835100068016862
:102C400021F001010160002070470000002804BF4E
:102C50000120704790F83510022904BF0220704708
:102C600001680A6822F001020A6001684FF0000C56
:102C7000C1F800C00168C1F804C00168C1F808C00B
:102C80000168C1F80CC00168C1F810C021210268B8
:102C9000516101680C4BCAB2103A6FF30901A3FBF2
:102CA00002320A4B1209032A9B5CC36588BF091DC7
:102CB0003F2281659A408A60C0F854C080F835C0D0
:102CC00080F834C000207047ABAAAAAA12AE01084F
:102CD00070B5044600F00EFA002C054604BF012032
:102CE00070BD0026022084F8346084F83500206826
:102CF000016821F0010101602068006810F0010FF7
:102D00000FD000F0F7F9401B052805D92020606599
:102D1000032084F8350070BD2068006810F0010FB2
:102D2000EFD1216808683E4A1040D4E901231A43D4
:102D3000D4E9033C43EA0C031A4363691A43A369C9
:102D40001A43E3691A43236A1A431043626A042A46
:102D500003D1D4E90B231A43104308602368586950
:102D60004FF0010C20F00701606A014304283ED1B6
:102D7000A06AA269014352B1B2F5005F1CD00028DD
:102D80001CBF012802282CD0032826D02FE020B118
:102D9000012807D002280AD029E0E06A10F0807FDD
:102DA0001FD124E0E06AB0F1C07F20D119E0E06AD1
:102DB00010F0807F15D11AE098B1012808D00228C0
:102DC0000FD0032804BFE06AB0F1C07F09D00EE045
:102DD000E06A10F0807F04D109E0E06A10F0807FA3
:102DE00005D04020606584F835C0012070BD596170
:102DF00020680C4AC1B210396FF30900A2FB01210F
:102E0000094A09090329525CE26588BF001D3F2178
:102E1000A06591408160666584F835C0002070BD72
:102E20003F8010E0ABAAAAAA12AE010830B490F815
:102E300034C00024BCF1010F02BF022030BC704737
:102E40004FF0010C80F834C090F835504FF0000C72
:102E5000012D1CBF80F834C0022402D0204630BCB3
:102E60007047022580F83550C0F854C0D0F800C033
:102E7000DCF8005025F48025CCF80050D0F800C0D4
:102E8000CCF804308368402B036803BF9A60026863
:102E9000D16099601CBF0168CA600068016841F098
:102EA00001010160DAE700002DE9F84FDFF81C921C
:102EB0000022DFF814820F2709F1040A4FF0010EF7
:102EC0000B680EFA02F52B40AB4240F0F780D1F8C8
:102ED00004C0BCF1020F18BFBCF1120F12D14FEAAF
:102EE000D20C00EB8C0CDCF820605407E40E07FADF
:102EF00004FB26EA0B06D1F810B00BFA04F43443B5
:102F0000CCF8204006684FEA420C91F804B0032444
:102F10000BF0030B04FA0CF4A6430BFA0CFB4BEA80
:102F2000060606604E68012E18BF022E03D0112E31
:102F300018BF122E11D18668D1F80CB0A6430BFA37
:102F40000CFB4BEA06068660466826EA05050E7904
:102F5000C6F30016964035434560C56825EA04046B
:102F60008D6805FA0CFC4CEA040CC0F80CC0D1F8D2
:102F700004C01CF0805F7CD0D8F800C04CF4804CBA
:102F8000C8F800C0D8F800C00CF4804CCDF800C0E0
:102F900022F0030C0CF1804505F59835D5F808C8EA
:102FA0009407240F07FA04F62CEA0606A0F1804CD9
:102FB000BCF5003C48D0A0F1804CBCF5013C08BFFA
:102FC0004FF0010C40D0A0F1804CBCF5023C08BF92
:102FD0004FF0020C38D0A0F1804CBCF5033C08BF88
:102FE0004FF0030C30D0A0F1804CBCF5043C08BF7E
:102FF0004FF0040C28D0A0F1804CBCF5053C08BF74
:103000004FF0050C20D0A0F1804CBCF5063C08BF69
:103010004FF0060C18D0A0F1804CBCF5073C08BF5F
:103020004FF0070C10D0A0F1804CBCF5083C08BF55
:103030004FF0080C08D0A0F1804CBCF5093C0CBF47
:103040004FF0090C4FF00A0C0CFA04FC4CEA060C89
:10305000C5F808C8D9F800C04C682CEA030C14F471
:10306000803F18BF4CEA030CC9F800C0DAF800C072
:1030700000E023E04C682CEA030C14F4003F18BF76
:103080004CEA030CCAF800C0114CD4F800C04D68DB
:103090002CEA030C15F4801F18BF4CEA030CC4F88B
:1030A00000C00C4CD4F800C04D682CEA030C15F499
:1030B000001F18BF4CEA030CC4F800C0521C102AB1
:1030C000FFF4FEAEBDE8F88F44380240003C0140FA
:1030D000083C01400C3C01400069084018BF012039
:1030E00070474269514041617047002A08BF090496
:1030F0008161704701480068704700001C00022091
:1031000002480168491C0160704700001C00022051
:10311000074810B5016841F400710160052000F016
:1031200009FA0F2000F006F800F0C4F9002010BDE5
:10313000003C024010B5044607484FF47A7200681C
:10314000B0FBF2F001F002FC00222146501E00F01C
:10315000BFF9002010BD0000180002202DE9F05F2B
:10316000044690F8A000012804BF0220BDE8F09FAB
:103170000125022084F8A05084F8A10002EB82000F
:1031800000EBC20004EB8003B1E8C11F3833A3E8B1
:10319000C11F91E8C111203983E8C111204608F010
:1031A00095FB2068456284F8A150002084F8A000B7
:1031B000BDE8F09F002804BF0120704770B50446A9
:1031C00090F8A100002520B9204684F8A05000F016
:1031D00077F8022084F8A1002068816921F070410D
:1031E0008161D4E901010843D4E903121143014389
:1031F0002068826911438161206882682F490A40F2
:103200008260A08A020420688368D4F818C043EA68
:103210000C031A4382602068C2680A40C260A08B17
:1032200002042068C368D4F820C043EA0C031A43A0
:10323000C260206802690A400261A08C0204206812
:103240000369D4F828C043EA0C031A4302612068DA
:10325000426911404161A08D010420684269236BDD
:103260001A431143416194F83500020294F8360084
:1032700001042068C36A03F07F43C3622068C36A05
:10328000114394F834C043EA0C031943C162206827
:10329000416B41F0040141632068416B41F0020140
:1032A00041632068816941F001018161C4F8A45043
:1032B000012084F8A100002070BD000000F800F09B
:1032C000354810B586B0016841F080610160006842
:1032D00000F0806005903148016841F40001016010
:1032E000016801F400010591016841F002010160EB
:1032F000016801F002010591016841F020010160BF
:10330000016801F020010591016841F04001016070
:10331000016801F040010591016841F08001016000
:10332000016801F080010591016841F4807101603C
:1033300000680324694600F4807005902020009006
:1033400001200190CDE902041548FFF7ADFD4FF4CF
:10335000806000900220019000206946CDE90204BF
:103360000E2004900F48FFF79FFD4FF40C60009073
:103370000D486946FFF798FD4FF47E4000900B48DA
:103380006946FFF791FD40F2F760009008486946F2
:10339000FFF78AFD06B010BD4438024030380240C5
:1033A000000402400014024000180240001C0240C9
:1033B0000020024070B5044690F8A0008C46012819
:1033C00004BF022070BD0125022084F8A05084F8BB
:1033D000A10003EB830000EBC30004EB800000F1CD
:1033E0003801C0F838C0006E6044C1E90102C86A03
:1033F00010441A46C860204608F068FA2068456202
:1034000084F8A150002084F8A00070BD70B5044677
:1034100090F8A0008C46012804BF022070BD012551
:10342000022084F8A05084F8A10003EB830000EB95
:10343000C300002604EB800000F138012046C1E9FA
:10344000006CC1E90262C1E90AC21A4608F03EFAFC
:103450002068456284F8A150002084F8A06070BD07
:10346000134A41781160111D03780A1D002B04BF17
:10347000002008601AD043680B60017BC37A0907FB
:1034800041EA0361837A41EAC341437B41EA8341D4
:10349000837B41EA4341C37B41EA0341437A41EAEA
:1034A0000321037A007841EA430108431060704722
:1034B00098ED00E07047012200F01F0102FA01F1CF
:1034C0004009800000F1E020C0F8001170470000C2
:1034D000174B4DF8044D1B68C3F30223C3F1070CCF
:1034E000BCF1040F88BF4FF0040C1C1D072C34BF27
:1034F0000023DB1E012404FA0CFCACF1010C0CEAE5
:103500000101994004FA03F35B1E1A40114300289D
:103510004FEA0111B8BF00F00F0000F1E020B4BF86
:1035200080F8141D80F800145DF8044B704700000B
:103530000CED00E0074A00F0070011684FF6FF03AA
:10354000194041EA002040F0FD7040F080601060BA
:10355000704700000CED00E01C4838B5016841F0F0
:103560008051016000681A4C00F080500090206883
:1035700040F480302060FFF7BDFD0546606810F420
:10358000803F09D1FFF7B6FD401BB0F57A7F14D814
:10359000606810F4803FF5D0206840F4003020606F
:1035A000FFF7A8FD0546606810F4003F0BD1FFF758
:1035B000A1FD401BB0F57A7F01D9032038BD6068BA
:1035C00010F4003FF3D0002038BD00004038024026
:1035D000007000402DE9F84F16468A460446FFF772
:1035E00089FD834694F83800012804BF0220BDE815
:1035F000F88F012784F8387094F839004FF00008EC
:10360000012818BF022504D084F838802846BDE878
:10361000F88FC4F83C804FF0020984F839900022FA
:1036200020215B46204600960BF0FEFC0500EBD106
:103630000022514620460BF071FBDAF824000028E6
:1036400018BF84F83970DFD101225B460221204681
:1036500000960BF0E9FC0500D6D12068C0F80C906C
:1036600084F83970D0E70000F8B50446FFF742FD52
:10367000002C074604BF0120F8BD94F8380001284B
:1036800004BF0220F8BD012684F8386094F83900A0
:10369000002538B984F83850204600F045F841F24A
:1036A00088302064206801686FF0FF03A26821F46D
:1036B000F85103EB022211430160206C002220210B
:1036C0003B46009020460BF0AFFC010026D1E2699A
:1036D000E06823791043226A42EA036202432068C9
:1036E000036823F0D00323F07F431A430260D4E938
:1036F0000502024320684368DFF828C003EA0C0390
:10370000B4F810C043EA0C431A43426020680268D0
:1037100042F001020260E56384F8396084F83850B1
:103720000846F8BDFEF8E0FF224830B587B00168D2
:1037300041F002010160006800F0020005901E489F
:10374000016841F002010160016801F00201059188
:10375000016841F02001016000680324174D6946AB
:1037600000F02000059040200090022001900120F0
:10377000CDE902040A2004902846FFF795FB2102B8
:1037800000910021CDE902140D4C69462046FFF757
:103790008BFB042100910921284604916946FFF71B
:1037A00083FBC020694600902046FFF77DFB07B0F1
:1037B00030BD00003838024030380240000402407A
:1037C000001402402DE9F84F15468A460446FFF7DB
:1037D00091FC81462068816900F1200694F8382028
:1037E000012A04BF0220BDE8F88F012784F8387051
:1037F00094F839204FF00008012A18BF022003D0A6
:1038000084F83880BDE8F88FC4F83C80BAF1000F26
:1038100035D0222284F839200269521C628602695E
:10382000521C2286C4F82CA0426922F0406242F069
:103830008062426120688161608E90B101224B46B6
:103840000621204600950BF0EFFBA8B93178E06A1D
:10385000421CE2620170608E401E6086608E00280D
:10386000ECD101224B460221204600950BF0DCFBF7
:1038700010B922680221D16084F83970C0E7E06B8A
:1038800040F00800E0630120BAE72DE9F84F154643
:103890008A460446FFF72EFC8146206894F83810CB
:1038A00000F12006012904BF0220BDE8F88F01279E
:1038B00084F8387094F839104FF00008012918BFC7
:1038C000022003D084F83880BDE8F88FC4F83C802B
:1038D000BAF1000F31D0122184F839100169491C66
:1038E00061850169491C2185C4F824A0416921F042
:1038F00040614161608D90B101224B460421204618
:1039000000950BF091FBA8B9606A411C61620078D8
:103910003070608D401E6085608D0028ECD10122E2
:103920004B460221204600950BF07EFB10B9226821
:103930000221D16084F83970C4E7E06B40F00800E0
:10394000E0630120BEE700002DE9F84F044600784F
:10395000DFF82C944FF0000B10F0010F5D4610D0F3
:10396000D9F8000020F40000C9F80000D9F80000E0
:10397000616B0843C9F80000606B002808BF4FF076
:10398000010B2068FF4E10F4002F0FD03068E16B60
:1039900020F4401008433060E06BB0F5801F08BF92
:1039A0004FF0010B02D0002808BF0125206810F459
:1039B000801F0FD03068216C20F440000843306035
:1039C000206CB0F5800F08BF4FF0010B02D000282B
:1039D00008BF0125206810F0807F18BF4FF0010B51
:1039E00010F0200F71D0E848016841F0805101606B
:1039F0000068DFF8988300F080500090D8F800004D
:103A000040F48070C8F80000FFF774FB0746D8F850
:103A1000000010F4807F0AD1FFF76CFBC01B642804
:103A200000F23083D8F8000010F4807FF4D0DFF883
:103A30006083D8F8000010F4407031D0218E01F47A
:103A4000407181422CD0D8F80000D8F8001020F442
:103A5000407041F48031C8F80010D8F8001021F40B
:103A60008031C8F80010C8F80000D8F8000010F045
:103A7000010F15D0FFF73EFB0746D8F8000010F005
:103A8000020F08BF41F2883A0AD1FFF733FBC01B8F
:103A9000504500F2F782D8F8000010F0020FF4D081
:103AA000206B4FF4407181431CBFD9F8000020F413
:103AB000F81000F0EE80C9F80000D8F80000218E60
:103AC000C1F30B010843C8F80000207810F0100F74
:103AD00007D0306820F0807030603068A16B0843F8
:103AE0003060208810F4804FAA4805D00168626ECB
:103AF00021F4403111430160218811F4004F05D0B9
:103B00000168A26E21F4402111430160216811F483
:103B1000803F05D00168E26E21F44011114301603D
:103B2000216811F4003F05D00168226F21F44001A3
:103B300011430160217811F0400F05D00168626CDB
:103B400021F0030111430160217811F0800F05D0AD
:103B50000168A26C21F00C0111430160218811F46D
:103B6000807F05D00168E26C21F0300111430160D3
:103B7000218811F4007F05D00168226D21F0C00179
:103B800011430160218811F4806F05D00168626DD6
:103B900021F4407111430160218811F4006F05D0B8
:103BA0000168A26D21F4406111430160218811F484
:103BB000805F05D00168E26D21F44051114301603E
:103BC000218811F4005F05D00168226E21F4404184
:103BD00011430160216811F4800F05D00168A26FC4
:103BE00021F0806111430160216811F4001F0AD0A7
:103BF0000168E26F21F0006111430160E16FB1F1F2
:103C0000006F08BF0125216811F0080F18BF0125BA
:103C100011F4802F05D00168626F21F040711143CB
:103C20000160216811F4000F06D00168D4F88020EB
:103C300021F0805111430160216811F0806F06D09E
:103C40000168D4F8842021F00051114301602068FC
:103C500010F0006F06D03068D4F8881020F00070A3
:103C600008433060206810F0805F06D03068D4F8D8
:103C70008C1020F0806008433060BBF1000F47F6E5
:103C8000C07A4FF440374FF070684FF0E0490ED1E2
:103C900009E0D9F8001020F4407020F0704021F4C1
:103CA000F811084307E72068B0F1007F67D13A4870
:103CB000006820F0806138480160FFF71BFA8346F6
:103CC0003548006810F0006F0BD0FFF713FAA0EB37
:103CD0000B00642800F2D6812F48006810F0006FB6
:103CE000F3D1207810F0010F2C482DD0616B59BB17
:103CF000016897FAA7F201F44031B2FA82F2D1409A
:103D0000026898FAA8F39AFAAAFC02F07062B3FA71
:103D100083F3BCFA8CFCDA40636803FA0CF397FA7D
:103D2000A7FCBCFA8CFC01FA0CF1194398FAA8F331
:103D3000B3FA83F39A4099FAA9F30A43A168B3FA54
:103D400083F3994011430160216811F4002F03D0DF
:103D5000E26BB2F5801F06D011F4801F49D0216CB0
:103D6000B1F5800F45D1016897FAA7F201F440310F
:103D7000B2FA82F2D140026802F0E04210E0A5E01F
:103D8000083802408C380240403802400070004041
:103D900070380240903802400038024084380240B7
:103DA00099FAA9F39AFAAAFCB3FA83F3BCFA8CFC49
:103DB000DA40636803FA0CF397FAA7FCBCFA8CFCB0
:103DC00001FA0CF198FAA8FC1943E368BCFA8CFCE0
:103DD00003FA0CF3194399FAA9F3B3FA83F39A405F
:103DE000114301603168626A21F01F01521E1143C4
:103DF0003160216811F0807F2ED0016898FAA8F216
:103E000001F07061B2FA82F2D140026899FAA9F326
:103E10009AFAAAFC02F0E042B3FA83F3BCFA8CFCF3
:103E2000DA40636897FAA7FBBBFA8BFB03FA0CF343
:103E3000D4F810C00CFA0BFC43EA0C0398FAA8FC67
:103E4000BCFA8CFC01FA0CF1194399FAA9F3B3FA04
:103E500083F39A4011430160216811F0007F1CD068
:103E60009AFAAAF2616897FAA7F3B2FA82F2B3FA61
:103E700083F301FA02F22169994098FAA8F31143F9
:103E8000E268B3FA83F39A4099FAA9F31143A2685E
:103E9000B3FA83F39A40114301607F48006840F011
:103EA00080617D480160FFF725F983467A48006804
:103EB00010F0006F0AD1FFF71DF9A0EB0B0064288A
:103EC0007DD87548006810F0006FF4D0002D77D0D1
:103ED000714D286820F080502860FFF70BF9834669
:103EE000286810F0005F09D0FFF704F9A0EB0B0081
:103EF000642864D8286810F0005FF5D12068DFF8E6
:103F00009CC110F4002F01D0E16B21B110F4801F8F
:103F100038D0206CB0BBDCF8000097FAA7F100F4B1
:103F20004030B1FA81F1C840DCF8001099FAA9F2EA
:103F30009AFAAAF301F0E041B2FA82F2B3FA83F3FB
:103F4000D14062699A4097FAA7F3B3FA83F3984095
:103F500098FAA8F31043A269B3FA83F39A40104386
:103F600099FAA9F2B2FA82F291400843CCF8000023
:103F700030686FF0FF02A16A20F4F85002EB0121D3
:103F800008433060206810F4001F34D0E06FB0F1B7
:103F9000006F30D1DCF8000098FAA8F100F07060F2
:103FA000B1FA81F1C840DCF8001099FAA9F29AFA46
:103FB000AAF301F0E041B2FA82F2D14001E061E0FF
:103FC00067E06269B3FA83F397FAA7FB9A40236A22
:103FD000BBFA8BFB03FA0BF31A4398FAA8F3B3FA74
:103FE00083F39840104399FAA9F2B2FA82F2914011
:103FF0000843CCF80000207810F0080F32D0DCF82D
:10400000000098FAA8F100F07060B1FA81F1C840A0
:10401000DCF8001097FAA7F29AFAAAF301F44031FB
:10402000B2FA82F2B3FA83F3D14062699A4097FA06
:10403000A7F3B3FA83F39940114398FAA8F2B2FABE
:1040400082F2904099FAA9F20843E169B2FA82F249
:1040500091400843CCF800003068E16A20F4403019
:1040600008433060286840F080502860FFF742F82D
:104070000446286810F0005F0BD1FFF73BF8001BE7
:10408000642802D90320BDE8F88F286810F0005F8B
:10409000F3D00020BDE8F88F003802408838024095
:1040A0002DE9F047DFF8688104460D46D8F8000096
:1040B00000F00F00A8420CD2D8F8000020F00F004A
:1040C0002843C8F80000D8F8000000F00F00A8420C
:1040D00070D120784F4F10F0020F05D03868A168DA
:1040E00020F0F00008433860207810F0010F4ED027
:1040F00060684949012820D00968022822D011F0BF
:10410000020F57D0396821F0030108433860FEF7E9
:10411000F1FF0646606841F28839012816D002286E
:10412000386800F00C0021D0F8B1FEF7E3FF801BE7
:10413000484528D90320BDE8F087096811F4003FFD
:10414000E0D137E011F0007FDCD133E0386800F0D7
:104150000C0004281BD0FEF7CDFF801B4845E9D892
:10416000386800F00C000428F5D110E008280ED0C3
:10417000FEF7C0FF801B4845DCD8386800F00C0013
:104180000828F5D103E0386810F00C0FCDD1D8F82D
:10419000000000F00F00A8420FD9D8F8000020F06E
:1041A0000F002843C8F80000D8F8000000F00F0006
:1041B000A84202D00120BDE8F087207810F0040F5B
:1041C00005D03868E16820F4E05008433860207872
:1041D00010F0080F06D03868216920F4604040EAEA
:1041E000C100386000F054F83968F02292FAA2F267
:1041F00001F0F001B2FA82F2D140084A515CC840A5
:10420000074908600F20FEF795FF0020BDE8F08702
:10421000003C02400838024000380240FAAD010874
:1042200018000220014800687047000018000220B2
:1042300008480949006809684FF4E05292FAA2F26E
:1042400001F4E051B2FA82F2D140044A515CC84014
:104250007047000018000220083802400AAE01082A
:1042600008480949006809684FF4604292FAA2F2CE
:1042700001F46041B2FA82F2D140044A515CC84074
:104280007047000018000220083802400AAE0108FA
:104290002148006810F00C01204808BF7047DFF883
:1042A00080C0042904BF60467047082918BF7047C2
:1042B0004DF8044D1B4A1168136801F03F0113F4D7
:1042C000800F47F6C0730BD0BCFBF1F011681940AA
:1042D00093FAA3F3B3FA83F3D94000FB01F00AE0A9
:1042E000B0FBF1F01168194093FAA3F3B3FA83F32A
:1042F000D94000FB01F011684FF440325DF8044BE7
:1043000092FAA2F201F44031B2FA82F2D140491C91
:104310004900B0FBF1F07047083802400024F40077
:1043200040787D01043802402DE9F84FDFF8A8837A
:1043300004460078A8F1040710F0010FA7F1040566
:104340005AD0D8F8000000F00C00042809D0D8F8A2
:10435000000000F00C0008280CD1386810F4800F21
:1043600008D0286810F4003F46D06068002800F0AC
:10437000AF8141E06068B0F5803F04BF286840F439
:1043800080300AD010B1B0F5A02F11D0286820F4E9
:1043900080302860286820F4802028606068D0B1D0
:1043A000FEF7A8FE0646286810F4003F08D023E078
:1043B000286840F480202860286840F48030ECE7CA
:1043C000FEF798FE801B642800F22581286810F40F
:1043D000003FF5D010E0FEF78DFE0646286810F489
:1043E000003F09D0FEF786FE801B642800F213818F
:1043F000286810F4003FF5D1207810F0020F50D05B
:10440000D8F800004FF0F80910F00C0F18D0D8F8C9
:10441000000000F00C00082804BF386810F4800F7A
:104420000ED0E0680028286828D040F001002860FD
:10443000FEF760FE0646286810F0020F09D011E072
:10444000286810F0020F1CBFE06801280AD000F0B5
:104450003FB9FEF74FFE801B02287DD8286810F078
:10446000020FF6D0286899FAA9F22169B2FA82F20D
:1044700020F0F80091400843286012E020F001008D
:104480002860FEF737FE0646286810F0020F08D0B5
:10449000FEF730FE801B02285ED8286810F0020F5D
:1044A000F6D1207810F0080F33D0DFF83092606931
:1044B0000028D9F8000016D040F00100C9F800002B
:1044C000FEF718FE0646D9F8000010F0020F20D1C2
:1044D000FEF710FE801B02283ED8D9F8000010F02D
:1044E000020FF5D015E020F00100C9F80000FEF73A
:1044F00001FE0646D9F8000010F0020F09D0FEF7C1
:10450000F9FD801B022827D8D9F8000010F0020F0F
:10451000F5D1207810F0040F63D07148016841F0A4
:104520008051016000686F4E00F08050009030684C
:1045300040F480703060FEF7DDFD8146306810F495
:10454000807F0BD1FEF7D6FDA0EB0900642862D86E
:10455000306810F4807F00E05DE0F3D0A068624E28
:10456000012804BF306840F0010009D008B10528D7
:1045700013D0306820F001003060306820F0040073
:104580003060A06841F2883AD0B1FEF7B3FD8146B1
:10459000306810F0020F08D023E0306840F00400CB
:1045A0003060306840F00100EAE7FEF7A3FDA0EBC1
:1045B000090050452FD8306810F0020FF5D010E0F8
:1045C000FEF798FD8146306810F0020F09D0FEF723
:1045D00091FDA0EB090050451DD8306810F0020F86
:1045E000F5D1A069E8B3D8F8001001F00C01082952
:1045F0006ED00228286820F0807028600ED0FEF768
:1046000079FD0446286810F0007F5ED0FEF772FD49
:10461000001B022855D90320BDE8F88FFEF76AFD7C
:104620000646286810F0007F08D0FEF763FD801B67
:104630000228F0D8286810F0007FF6D1D4E90701ED
:1046400047F6C0724FF0FF3392FAA2F20843616A54
:10465000B2FA82F29140A26A03EB52024FF4403365
:1046600000E032E093FAA3F3B3FA83F39A401143E4
:104670004FF070620843E16A92FAA2F2B2FA82F253
:1046800091404FF0E0420843216B92FAA2F2B2FA55
:1046900082F2914008433860286840F080702860BA
:1046A000FEF728FD0446286810F0007F0DD1FEF7C4
:1046B00021FD001B0228AED8286810F0007FF6D03C
:1046C00003E0286810F0007FA0D10020BDE8F88F3B
:1046D0000120BDE8F88F000008380240743802401D
:1046E000403802400070004070380240002804BF8B
:1046F0000120704770B5044690F82C000D4628B98B
:10470000002084F82D00204600F012F8022084F8E2
:104710002C002068211DFDF7E9F9D4E900022946A3
:10472000FDF742FA012084F82C00002070BD000043
:1047300030484DF804ED87B0016841F00101016097
:10474000006800F0010005902B48016841F0040169
:104750000160016801F004010591016841F0080160
:104760000160016801F008010591016841F0100144
:104770000160016801F010010591016841F020011C
:104780000160016801F020010591016841F04001DC
:1047900001600068694600F0400005900D2000901F
:1047A0000220019001200290032003900C2004902D
:1047B0001248FEF779FB4CF20370009010486946EE
:1047C000FEF772FB4FF6837000900E486946FEF7C5
:1047D0006BFB4FF63F0000900B486946FEF764FB09
:1047E00048F23710009009486946FEF75DFB07B0B4
:1047F0005DF804FB383802403038024000080240BF
:10480000000C024000100240001402400018024058
:1048100010B5044690F82C00022808BF10BD0220F5
:1048200084F82C002068FDF790F9012084F82C0012
:10483000002010BD70B5044690F82C000D460228EB
:1048400008BF70BD022084F82C002068FDF783F9B2
:10485000286802280CBF0520012084F82C000020C5
:1048600070BD002804BF0120704770B5044690F861
:10487000450015460E4628B9002084F8440020461D
:1048800000F01AF8206804F10801FDF7BFF8A268EB
:1048900031462068FDF7F8F8E36A2946D4E90102B9
:1048A000FDF790F8A168206850F8212042F001023D
:1048B00040F82120002070BD1A484DF804ED87B063
:1048C000016841F001010160006800F001000590FD
:1048D0001548016841F008010160016801F0080114
:1048E0000591016841F0100101600068694600F01F
:1048F000100005904EF2B37000900220019001204C
:104900000290032003900C2004900848FEF7CCFA94
:104910004FF68070009006486946FEF7C5FA07B06A
:104920005DF804FB3838024030380240000C024089
:10493000001002404FF0E021042808690CBF40F04D
:10494000040020F00400086170470000401EB0F130
:10495000807F24BF012070474FF0E0214861F020A4
:10496000044A82F8140D00208861072008610020A5
:10497000704700000FE000E07047704770B51F4EB1
:10498000307810F0800F18BF70BD10F0400F4FF658
:10499000F5751B4C0FD040F0800030700021204690
:1049A00000F02EFA70602068016A294001622068D8
:1049B000016A016270BD0021716040203070206882
:1049C000026A41F211131A4207D1026A9B101A427D
:1049D00003D1026822F0010202602068416220686F
:1049E000016A294001622068016A41F00201016206
:1049F0002068016841F00101016070BDA000022043
:104A0000884302202DE9F041044690F838000D4615
:104A1000012804BF0220BDE8F0810126022084F8AD
:104A2000386084F83900002A37D0042A4FF47047E0
:104A300043D02068082A6CD0D5E90032E968D0F864
:104A400020C02CF4805CC0F820C0D0F81C80D0F8C6
:104A500020C007EA013128F4407848EA022222F413
:104A600070421143C1612CF420424FF4204C0CEAF7
:104A700003331A4302622068C16921F44061C161B5
:104A80002068C169AA6841EA0221C16184F83960DD
:104A9000002084F83800BDE8F081EB682068D5E993
:104AA00000120AF0B4FE2068816921F00C018161D6
:104AB00020688169AA68114329E02068D5E900329D
:104AC000E968D0F820C02CF0100CC0F820C0D0F855
:104AD0001880D0F820C007EA013128F4407848EA6D
:104AE000022222F47042114381612CF0A0024FF0A7
:104AF000A00C0CEA03131A4302622068816921F4B6
:104B00004061816120688169AA6841EA022181616E
:104B1000BCE7D5E900C1EB68026A22F48072026248
:104B2000C769026A27F003073943F02721F0F00133
:104B300007EA03131943C1614FF4206322F4206292
:104B400003EA0C231A4302622068C16921F00C01B8
:104B5000C1612068C169AA68114396E7002804BFB3
:104B60000120704710B5044690F8390028B900209C
:104B700084F83800204600F00DF8022084F839004F
:104B80002068211D0AF0D4FD012084F8390000209E
:104B900010BD000015484DF804ED87B0016841F0E4
:104BA00008010160006800F00800059010480168E5
:104BB00041F0010101600068032100F0010005904F
:104BC0000120009002200190CDE902010490694685
:104BD0000848FEF769F9002202213220FEF778FC2E
:104BE0003220FEF768FC07B05DF804FB4038024055
:104BF000303802400000024010B502680029044627
:104C000004BFD06840F0020011D0042904BFD0686E
:104C100040F004000BD0082904BFD06840F0080021
:104C200005D00C2904BFD06840F0100000D1D0603E
:104C3000012220680AF0DEFD2068016841F00101D0
:104C40000160002010BD70B50446006801694FF096
:104C5000000511F0020F1CBFC16811F0020F13D044
:104C60006FF002010161012020762068806910F058
:104C7000030F204602D0FFF781FE04E000F0A6F803
:104C8000204600F0A4F825762068016911F0040F91
:104C90001CBFC16811F0040F13D06FF00401016153
:104CA000022020762068806910F4407F204602D0E0
:104CB000FFF764FE04E000F089F8204600F087F872
:104CC00025762068016911F0080F1CBFC16811F03A
:104CD000080F13D06FF008010161042020762068CE
:104CE000C06910F0030F204602D0FFF747FE04E032
:104CF00000F06CF8204600F06AF82576206801691B
:104D000011F0100F1CBFC16811F0100F13D06FF01D
:104D100010010161082020762068C06910F4407FEE
:104D2000204602D0FFF72AFE04E000F04FF82046AC
:104D300000F04DF825762068016911F0010F1CBFC5
:104D4000C16811F0010F05D06FF00101016120462B
:104D500000F03EF8206801696FF0800511F0800FC7
:104D60001CBFC16811F0800F03D005612046FFF71A
:104D700003FE2068016911F4807F1CBFC16811F037
:104D8000800F03D005612046FFF7F6FD206801691A
:104D900011F0400F1CBFC16811F0400F05D06FF03B
:104DA00040010161204600F04DF82068016911F0D2
:104DB000200F1ABFC16811F0200F70BD6FF02001E5
:104DC00001612046BDE87040FFF7D7BD70477047CE
:104DD0000A49087810F0800F18BF704710F0400F94
:104DE00008BF70473F2282430CBF40F08000401C48
:104DF000087004BF4FF0FF3048607047A0000220E9
:104E000090F838300022012B04BF022070470123A4
:104E1000002980F8383004BF01684A6B0DD004299E
:104E200004BF01688A6B08D0082904BF0168CA6BF7
:104E300003D00C2904BF01680A6C002180F83810E7
:104E4000104670477047704790F8691090F86A00F4
:104E50000843704770B501680446C8690A688B68E2
:104E600010F00F0F4FF0200551D040F2011C13EA53
:104E70000C0F7DD010F0010F18BF12F4807F07D007
:104E80004FF0010CC1F820C0E16E41F00101E16674
:104E900010F0020F18BF13F0010F08D0D4F800C0B3
:104EA0000221CCF82010E16E41F00401E16610F01F
:104EB000040F18BF13F0010F08D0D4F800C004216C
:104EC000CCF82010E16E41F00201E16610F0080F0D
:104ED0000CD002F0200103F00103194306D023682F
:104EE00008211962E16E41F00801E166E16E0029D6
:104EF00008BF70BD10F0200F1EBF12F0200F20461B
:104F00000BF06FFCE06E10F0080F10D10AE010F00B
:104F1000200F18BF12F0200F39D02046BDE8704096
:104F20000BF05FBC2068806810F0400F29D020682B
:104F3000016821F4907101602068816821F001010D
:104F4000816084F86A502068816811F0400F14D0A5
:104F5000816821F040018160606E70B12D4901656A
:104F6000606EFDF760FE002808BF70BD606E00E057
:104F70000DE0016DBDE8704008472046FFF763FF74
:104F800070BD2046FFF75FFF0020E06670BD10F0A7
:104F9000800F18BF12F0800F2CD094F869002128E0
:104FA00018BF70BDB4F8520090B1A068B0F5805F32
:104FB00004BF20690028E06C14D0411CE164216822
:104FC00000788862B4F85200401EA4F8520070BD08
:104FD000086820F0800008602068016841F0400106
:104FE000016070BD0088C0F308008862E06C801C1E
:104FF000E064E7E710F0400F14BF12F0400F70BDFF
:1050000020460A6822F040020A6084F8695000F0E5
:10501000CEF970BDCF070108002804BF01207047FA
:1050200010B5044690F8690028B9002084F868009B
:10503000204600F029F8242084F8690020680168DF
:1050400021F00101016020460BF00AFC012808BF95
:1050500010BD606A00281CBF20460BF01BFB2068B7
:10506000416821F4904141602068816821F02A0163
:1050700081602068016841F0010101602046BDE8BF
:1050800010400BF074BB000010B5006886B0A0F1B2
:105090008041B1F588311CBF06B010BD18480168C9
:1050A00041F001010160006800F001000590154821
:1050B000016841F01001016000680121124C00F00C
:1050C000100005904FF4007000900220CDE901011E
:1050D00003900720694604902046FDF7E5FE211560
:1050E000204600916946FDF7DFFE2520FEF7E3F933
:1050F000032225201146FEF7EBF906B010BD000093
:105100003038024044380240000002402DE9F84F98
:10511000044690F86A00984616460D4620286AD143
:10512000002D12BF002E0120BDE8F88F94F8680012
:10513000012860D0012084F868004FF00009C4F80D
:105140006C90222084F86A00FDF7D4FFA4F8586020
:105150008246A4F85A60FF21A068B0F5805F05D0B0
:105160007F2250B1B0F1805F0CD012E0206900289E
:1051700008BF40F2FF1002D109E02069E8B9A4F8A5
:105180005C1006E02069002818BF3F2015D0A4F865
:105190005C00B4F85C60F7B2B4F85A0000225346E1
:1051A000401EA4F85A0020212046CDF800800BF0C4
:1051B0009DFC28B10320BDE8F88FA4F85C20E8E747
:1051C000A068B0F5805F04BF206900282068406AAD
:1051D00019BF384005F8010B304025F8020BB4F830
:1051E0005A000028D8D1202084F86A00002084F8D2
:1051F0006890BDE8F88F0220BDE8F88F90F86A301B
:10520000202B49D1002912BF002A0120704790F8B5
:105210006830012B40D0012380F868304165A0F848
:105220005820A0F85A20FF228168B1F5805F05D090
:105230007F2351B1B1F1805F0CD012E001690029E8
:1052400008BF40F2FF1102D109E0016909BBA0F8D3
:105250005C2006E00169002918BF3F2119D0A0F8A1
:105260005C100021C166222280F86A2080F8681054
:1052700001680A6842F480720A6001688A6842F034
:1052800001028A600068016841F02001016000208D
:105290007047A0F85C30E4E7022070470068A0F196
:1052A0008041B1F5883118BF70470E49488810F425
:1052B000004F18BF70470B4AC0F30D03DFF828C03A
:1052C000401C80B2C72812780CF80320074A488097
:1052D000108098BF704700204880108004490870F3
:1052E0007047000028000220C83F0220080002206A
:1052F000030002202DE9F843044690F869001E4699
:1053000091460D4620284FD1002D12BFB9F1000F54
:105310000120BDE8F88394F86800012844D00120FA
:1053200084F868000027E766212084F86900FDF70B
:10533000E1FEA4F850908046A4F852900022B4F800
:10534000520080214346401EA4F852002046009699
:105350000BF0CCFBB0B9A068B0F5805F04BF20694A
:10536000002812D0216815F8010B8862B4F85200A9
:105370000028E3D1002243464021204600960BF04E
:10538000B5FB48B10320BDE8F883216835F8020B6E
:10539000C0F308008862E9E7202084F86900002053
:1053A00084F86870BDE8F8830220BDE8F883704790
:1053B000FEE70000114810B586B0016841F0800199
:1053C0000160006869460E4C00F0800005903020B6
:1053D0000090012001900290022003902046FDF7EA
:1053E00063FD012220462021FDF77FFE0122204699
:1053F0001021FDF77AFE06B010BD000030380240E3
:10540000001C02402DE9F041374E07460024306869
:1054100020F440603060306830602546002230461D
:105420001021FDF762FE02200DF0C6F90122304680
:105430001021FDF75AFE60062021040E3046FDF7CC
:105440004BFE00281CBF601CC4B201200DF0B4F953
:10545000681CC5B2082DE1D34FF000024FF01001D7
:1054600030460FB3FDF741FE306820F440603060F5
:10547000306840F480603060002230462021FDF723
:1054800034FE02200DF098F9012230461021FDF77C
:105490002CFE02200DF090F9002230461021FDF77D
:1054A00024FE2046BDE8F081FDF71FFE306820F4A1
:1054B00040603060306840F48060306001223046E7
:1054C0002021FDF712FE02200DF076F90122304670
:1054D0001021FDF70AFE02200DF06EF90022304681
:1054E0001021FDF702FEDCE7001C024070B51C4EE7
:1054F00005463046316821F440613160316841F43D
:105500008061316000221021FDF7EFFD002415F0CD
:10551000800F05D0012230462021FDF7E6FD04E092
:10552000002230462021FDF7E0FD6806050E02202E
:105530000DF042F9012230461021FDF7D6FD022080
:105540000DF03AF9002230461021FDF7CEFD022081
:105550000DF032F9601CC4B2082CD8D370BD000025
:10556000001C024010B5124C206820F440602060FE
:10557000206840F480602060012220462021FDF751
:10558000B4FD012220461021FDF7AFFD04200DF0EF
:1055900013F9002220462021FDF7A7FD04200DF07D
:1055A0000BF900222046BDE810401021FDF79DBDFB
:1055B000001C024010B5124C206820F440602060AE
:1055C000206840F480602060002220461021FDF712
:1055D0008CFD002220462021FDF787FD04200DF0E0
:1055E000EBF8012220461021FDF77FFD0122204625
:1055F0002021FDF77AFDBDE8104004200DF0DCB855
:10560000001C024070B5294D0024286820F4406039
:10561000286028682860012220212846FDF765FDC2
:1056200001200DF0C9F8012228461021FDF75DFD8B
:1056300001200DF0C1F820212846FDF74DFD00287E
:105640002DD0601CC4B2FA2C23D9286820F4406005
:105650002860286840F480602860002228461021D5
:10566000FDF743FD002228462021FDF73EFD0420E2
:105670000DF0A2F8012228461021FDF736FD012287
:1056800028462021FDF731FD04200DF095F801207A
:1056900070BD20212846FDF71FFD0028D1D1002232
:1056A00028461021FDF721FD002070BD001C02409E
:1056B0001B4870B586B0016841F0010101600168C6
:1056C00001F001010591016841F0040101600168E8
:1056D00001F004010591016841F08001016000685A
:1056E00003250026694600F0800005900220012471
:1056F000CDE902050B48CDE90046FDF7D5FB600377
:105700006946CDE900060848CDE90245FDF7CCFB26
:105710000C20009005486946FDF7C6FB06B070BD39
:10572000303802400000024000080240001C0240E5
:105730002DE9F041344C0126344F0128DFF8D080A8
:10574000344D08BF267001D02078A8B10821284622
:10575000FDF7C2FCB8B104212846FDF7BDFC90B1AD
:105760004FF400513846FDF7B7FC60B101214046C7
:10577000FDF7B2FC012806D008212846FDF7ACFC55
:1057800001283ED12AE00A200CF0DAFF0020207028
:1057900008212846FDF7A0FC002804BF0120BDE831
:1057A000F08104212846FDF797FC002804BF022061
:1057B000BDE8F0814FF400513846FDF78DFC00281C
:1057C00004BF0320BDE8F08101214046FDF784FCC1
:1057D000012804BF0420BDE8F08112E0042128461E
:1057E000FDF77AFC01280CD141033846FDF774FC23
:1057F000012806D101214046FDF76EFC002808BFB4
:1058000026700020BDE8F081380002200008024028
:1058100000000240001C02402DE9F041104E0746F6
:10582000104800243188006820B13846BDE8F041B6
:1058300005F0C8BD708800FB01F50021084605F0A1
:1058400021FB094930890880002D86BFB8B207497D
:10585000BDE8F0810880641CA542FBD8BDE8F0815A
:10586000FC410220B4420220FEFF076000000860F5
:105870002DE9FF4F1F4881B088460E9E006830B169
:105880000198009605F0AEFD05B0BDE8F08F0198D7
:105890004FF00004101A401C85B2A3EB0800401C16
:1058A00007043F0C04BF05B0BDE8F08FDFF848A047
:1058B000DFF848B00BF1020908EB040081B201984F
:1058C00005F0E0FABAF80800ABF800000020002D5F
:1058D00009D904FB050136F81110A9F80010401C85
:1058E00080B28542F5D8601C84B2BC42E4D305B0D6
:1058F000BDE8F08FB4420220FC410220FEFF0760A9
:105900002DE9F05F3D4C3E4DA071296839B105F09D
:10591000C7FDE88A2080288B6080BDE8F09F37496A
:105920002C232B254FF0F0094FF4305E49F2413A19
:105930004FF448764FF02A0C89884FF4A0784FF442
:10594000F07245F2105B45F2103760B1A4F80080A8
:105950005145A4F8029018BFB9422ED12381A4F872
:105960000AC0A58140E0A4F800905145A4F8028047
:1059700018BFB94209D12381B942A4F80AC0A58150
:1059800004BFA4F80080628033E059450AD1A4F82E
:1059900008E04FF4285060814FF42C50A081228001
:1059A000668026E0A1F5C850633822D12381658145
:1059B000A4F80CC0228066801BE059450AD1A4F8E7
:1059C00008E04FF4285060814FF42C50A0812680CD
:1059D000628009E0A1F5C850633805D12381A4F89D
:1059E0000AC0A58126806280B94204BF2280A4F843
:1059F00002800020BDE8F05F05F0B6B8FC4102204F
:105A0000B44202202DE9F04F002682465F1A354647
:105A1000A2EB00088946B8F1000F83B0C8BF01208F
:105A200007DC0FBF00204FF0FF30C8F100080190E5
:105A300000D10190002FC8BF012006DC0FBF00205D
:105A40004FF0FF307F42009000D10090B845CCBFAE
:105A500044463C464FF0000B601C52BF029003B01E
:105A6000BDE8F08F1FFA8AF315481FFA89F1006824
:105A700028B114480268184605F026FD0AE01846C9
:105A800005F000FA10480189104801800D481049BE
:105A9000008808804644A6423D4402DD0198361B3A
:105AA0008244A54202DD00982D1B81440BF10100C8
:105AB0001FFA80FB02988345D4DD03B0BDE8F08F68
:105AC000B44202203C000220FC410220FEFF07609D
:105AD00000000860094A10B5094C126822B122681A
